{
  "contractName": "CarLedger",
  "abi": [
    {
      "inputs": [],
      "stateMutability": "nonpayable",
      "type": "constructor"
    },
    {
      "anonymous": false,
      "inputs": [
        {
          "indexed": true,
          "internalType": "address",
          "name": "owner",
          "type": "address"
        },
        {
          "indexed": true,
          "internalType": "address",
          "name": "approved",
          "type": "address"
        },
        {
          "indexed": true,
          "internalType": "uint256",
          "name": "tokenId",
          "type": "uint256"
        }
      ],
      "name": "Approval",
      "type": "event"
    },
    {
      "anonymous": false,
      "inputs": [
        {
          "indexed": true,
          "internalType": "address",
          "name": "owner",
          "type": "address"
        },
        {
          "indexed": true,
          "internalType": "address",
          "name": "operator",
          "type": "address"
        },
        {
          "indexed": false,
          "internalType": "bool",
          "name": "approved",
          "type": "bool"
        }
      ],
      "name": "ApprovalForAll",
      "type": "event"
    },
    {
      "anonymous": false,
      "inputs": [
        {
          "indexed": false,
          "internalType": "uint256[]",
          "name": "owners",
          "type": "uint256[]"
        },
        {
          "indexed": false,
          "internalType": "address",
          "name": "from",
          "type": "address"
        }
      ],
      "name": "LogCars",
      "type": "event"
    },
    {
      "anonymous": false,
      "inputs": [
        {
          "components": [
            {
              "internalType": "string",
              "name": "name",
              "type": "string"
            },
            {
              "internalType": "string",
              "name": "age_production",
              "type": "string"
            },
            {
              "internalType": "string",
              "name": "model",
              "type": "string"
            },
            {
              "internalType": "string",
              "name": "staging",
              "type": "string"
            },
            {
              "internalType": "string",
              "name": "motor",
              "type": "string"
            },
            {
              "internalType": "string",
              "name": "power",
              "type": "string"
            },
            {
              "components": [
                {
                  "internalType": "uint256",
                  "name": "date",
                  "type": "uint256"
                },
                {
                  "internalType": "uint32",
                  "name": "km",
                  "type": "uint32"
                },
                {
                  "internalType": "string",
                  "name": "operation",
                  "type": "string"
                },
                {
                  "internalType": "string",
                  "name": "office",
                  "type": "string"
                }
              ],
              "internalType": "struct CarLedger.Service[]",
              "name": "services",
              "type": "tuple[]"
            },
            {
              "internalType": "address[]",
              "name": "history",
              "type": "address[]"
            },
            {
              "internalType": "string",
              "name": "vin",
              "type": "string"
            },
            {
              "internalType": "string",
              "name": "plate",
              "type": "string"
            },
            {
              "internalType": "string",
              "name": "optionals",
              "type": "string"
            },
            {
              "internalType": "string",
              "name": "url_info",
              "type": "string"
            },
            {
              "internalType": "string",
              "name": "picture",
              "type": "string"
            },
            {
              "internalType": "bool",
              "name": "isSet",
              "type": "bool"
            }
          ],
          "indexed": false,
          "internalType": "struct CarLedger.Info[]",
          "name": "info",
          "type": "tuple[]"
        }
      ],
      "name": "LogInfo",
      "type": "event"
    },
    {
      "anonymous": false,
      "inputs": [
        {
          "indexed": false,
          "internalType": "string",
          "name": "info",
          "type": "string"
        },
        {
          "indexed": false,
          "internalType": "address",
          "name": "sito",
          "type": "address"
        },
        {
          "indexed": false,
          "internalType": "uint256[]",
          "name": "tokens",
          "type": "uint256[]"
        }
      ],
      "name": "LogLedger",
      "type": "event"
    },
    {
      "anonymous": false,
      "inputs": [
        {
          "indexed": true,
          "internalType": "bytes32",
          "name": "role",
          "type": "bytes32"
        },
        {
          "indexed": true,
          "internalType": "bytes32",
          "name": "previousAdminRole",
          "type": "bytes32"
        },
        {
          "indexed": true,
          "internalType": "bytes32",
          "name": "newAdminRole",
          "type": "bytes32"
        }
      ],
      "name": "RoleAdminChanged",
      "type": "event"
    },
    {
      "anonymous": false,
      "inputs": [
        {
          "indexed": true,
          "internalType": "bytes32",
          "name": "role",
          "type": "bytes32"
        },
        {
          "indexed": true,
          "internalType": "address",
          "name": "account",
          "type": "address"
        },
        {
          "indexed": true,
          "internalType": "address",
          "name": "sender",
          "type": "address"
        }
      ],
      "name": "RoleGranted",
      "type": "event"
    },
    {
      "anonymous": false,
      "inputs": [
        {
          "indexed": true,
          "internalType": "bytes32",
          "name": "role",
          "type": "bytes32"
        },
        {
          "indexed": true,
          "internalType": "address",
          "name": "account",
          "type": "address"
        },
        {
          "indexed": true,
          "internalType": "address",
          "name": "sender",
          "type": "address"
        }
      ],
      "name": "RoleRevoked",
      "type": "event"
    },
    {
      "anonymous": false,
      "inputs": [
        {
          "indexed": true,
          "internalType": "address",
          "name": "from",
          "type": "address"
        },
        {
          "indexed": true,
          "internalType": "address",
          "name": "to",
          "type": "address"
        },
        {
          "indexed": true,
          "internalType": "uint256",
          "name": "tokenId",
          "type": "uint256"
        }
      ],
      "name": "Transfer",
      "type": "event"
    },
    {
      "inputs": [],
      "name": "DEALER_ROLE",
      "outputs": [
        {
          "internalType": "bytes32",
          "name": "",
          "type": "bytes32"
        }
      ],
      "stateMutability": "view",
      "type": "function",
      "constant": true
    },
    {
      "inputs": [],
      "name": "DEFAULT_ADMIN_ROLE",
      "outputs": [
        {
          "internalType": "bytes32",
          "name": "",
          "type": "bytes32"
        }
      ],
      "stateMutability": "view",
      "type": "function",
      "constant": true
    },
    {
      "inputs": [],
      "name": "SERVICE_ROLE",
      "outputs": [
        {
          "internalType": "bytes32",
          "name": "",
          "type": "bytes32"
        }
      ],
      "stateMutability": "view",
      "type": "function",
      "constant": true
    },
    {
      "inputs": [
        {
          "internalType": "address",
          "name": "to",
          "type": "address"
        },
        {
          "internalType": "uint256",
          "name": "tokenId",
          "type": "uint256"
        }
      ],
      "name": "approve",
      "outputs": [],
      "stateMutability": "nonpayable",
      "type": "function"
    },
    {
      "inputs": [
        {
          "internalType": "address",
          "name": "owner",
          "type": "address"
        }
      ],
      "name": "balanceOf",
      "outputs": [
        {
          "internalType": "uint256",
          "name": "",
          "type": "uint256"
        }
      ],
      "stateMutability": "view",
      "type": "function",
      "constant": true
    },
    {
      "inputs": [
        {
          "internalType": "uint256",
          "name": "tokenId",
          "type": "uint256"
        }
      ],
      "name": "getApproved",
      "outputs": [
        {
          "internalType": "address",
          "name": "",
          "type": "address"
        }
      ],
      "stateMutability": "view",
      "type": "function",
      "constant": true
    },
    {
      "inputs": [
        {
          "internalType": "bytes32",
          "name": "role",
          "type": "bytes32"
        }
      ],
      "name": "getRoleAdmin",
      "outputs": [
        {
          "internalType": "bytes32",
          "name": "",
          "type": "bytes32"
        }
      ],
      "stateMutability": "view",
      "type": "function",
      "constant": true
    },
    {
      "inputs": [
        {
          "internalType": "bytes32",
          "name": "role",
          "type": "bytes32"
        },
        {
          "internalType": "address",
          "name": "account",
          "type": "address"
        }
      ],
      "name": "grantRole",
      "outputs": [],
      "stateMutability": "nonpayable",
      "type": "function"
    },
    {
      "inputs": [
        {
          "internalType": "bytes32",
          "name": "role",
          "type": "bytes32"
        },
        {
          "internalType": "address",
          "name": "account",
          "type": "address"
        }
      ],
      "name": "hasRole",
      "outputs": [
        {
          "internalType": "bool",
          "name": "",
          "type": "bool"
        }
      ],
      "stateMutability": "view",
      "type": "function",
      "constant": true
    },
    {
      "inputs": [
        {
          "internalType": "address",
          "name": "owner",
          "type": "address"
        },
        {
          "internalType": "address",
          "name": "operator",
          "type": "address"
        }
      ],
      "name": "isApprovedForAll",
      "outputs": [
        {
          "internalType": "bool",
          "name": "",
          "type": "bool"
        }
      ],
      "stateMutability": "view",
      "type": "function",
      "constant": true
    },
    {
      "inputs": [],
      "name": "name",
      "outputs": [
        {
          "internalType": "string",
          "name": "",
          "type": "string"
        }
      ],
      "stateMutability": "view",
      "type": "function",
      "constant": true
    },
    {
      "inputs": [
        {
          "internalType": "uint256",
          "name": "tokenId",
          "type": "uint256"
        }
      ],
      "name": "ownerOf",
      "outputs": [
        {
          "internalType": "address",
          "name": "",
          "type": "address"
        }
      ],
      "stateMutability": "view",
      "type": "function",
      "constant": true
    },
    {
      "inputs": [
        {
          "internalType": "bytes32",
          "name": "role",
          "type": "bytes32"
        },
        {
          "internalType": "address",
          "name": "account",
          "type": "address"
        }
      ],
      "name": "renounceRole",
      "outputs": [],
      "stateMutability": "nonpayable",
      "type": "function"
    },
    {
      "inputs": [
        {
          "internalType": "bytes32",
          "name": "role",
          "type": "bytes32"
        },
        {
          "internalType": "address",
          "name": "account",
          "type": "address"
        }
      ],
      "name": "revokeRole",
      "outputs": [],
      "stateMutability": "nonpayable",
      "type": "function"
    },
    {
      "inputs": [
        {
          "internalType": "address",
          "name": "from",
          "type": "address"
        },
        {
          "internalType": "address",
          "name": "to",
          "type": "address"
        },
        {
          "internalType": "uint256",
          "name": "tokenId",
          "type": "uint256"
        }
      ],
      "name": "safeTransferFrom",
      "outputs": [],
      "stateMutability": "nonpayable",
      "type": "function"
    },
    {
      "inputs": [
        {
          "internalType": "address",
          "name": "from",
          "type": "address"
        },
        {
          "internalType": "address",
          "name": "to",
          "type": "address"
        },
        {
          "internalType": "uint256",
          "name": "tokenId",
          "type": "uint256"
        },
        {
          "internalType": "bytes",
          "name": "data",
          "type": "bytes"
        }
      ],
      "name": "safeTransferFrom",
      "outputs": [],
      "stateMutability": "nonpayable",
      "type": "function"
    },
    {
      "inputs": [
        {
          "internalType": "address",
          "name": "operator",
          "type": "address"
        },
        {
          "internalType": "bool",
          "name": "approved",
          "type": "bool"
        }
      ],
      "name": "setApprovalForAll",
      "outputs": [],
      "stateMutability": "nonpayable",
      "type": "function"
    },
    {
      "inputs": [],
      "name": "symbol",
      "outputs": [
        {
          "internalType": "string",
          "name": "",
          "type": "string"
        }
      ],
      "stateMutability": "view",
      "type": "function",
      "constant": true
    },
    {
      "inputs": [
        {
          "internalType": "uint256",
          "name": "index",
          "type": "uint256"
        }
      ],
      "name": "tokenByIndex",
      "outputs": [
        {
          "internalType": "uint256",
          "name": "",
          "type": "uint256"
        }
      ],
      "stateMutability": "view",
      "type": "function",
      "constant": true
    },
    {
      "inputs": [
        {
          "internalType": "address",
          "name": "owner",
          "type": "address"
        },
        {
          "internalType": "uint256",
          "name": "index",
          "type": "uint256"
        }
      ],
      "name": "tokenOfOwnerByIndex",
      "outputs": [
        {
          "internalType": "uint256",
          "name": "",
          "type": "uint256"
        }
      ],
      "stateMutability": "view",
      "type": "function",
      "constant": true
    },
    {
      "inputs": [
        {
          "internalType": "uint256",
          "name": "tokenId",
          "type": "uint256"
        }
      ],
      "name": "tokenURI",
      "outputs": [
        {
          "internalType": "string",
          "name": "",
          "type": "string"
        }
      ],
      "stateMutability": "view",
      "type": "function",
      "constant": true
    },
    {
      "inputs": [],
      "name": "totalSupply",
      "outputs": [
        {
          "internalType": "uint256",
          "name": "",
          "type": "uint256"
        }
      ],
      "stateMutability": "view",
      "type": "function",
      "constant": true
    },
    {
      "inputs": [
        {
          "internalType": "address",
          "name": "from",
          "type": "address"
        },
        {
          "internalType": "address",
          "name": "to",
          "type": "address"
        },
        {
          "internalType": "uint256",
          "name": "tokenId",
          "type": "uint256"
        }
      ],
      "name": "transferFrom",
      "outputs": [],
      "stateMutability": "nonpayable",
      "type": "function"
    },
    {
      "inputs": [
        {
          "internalType": "address",
          "name": "dealer",
          "type": "address"
        }
      ],
      "name": "addDealer",
      "outputs": [],
      "stateMutability": "nonpayable",
      "type": "function"
    },
    {
      "inputs": [
        {
          "internalType": "address",
          "name": "serv",
          "type": "address"
        }
      ],
      "name": "addStation",
      "outputs": [],
      "stateMutability": "nonpayable",
      "type": "function"
    },
    {
      "inputs": [
        {
          "internalType": "address",
          "name": "dealer",
          "type": "address"
        }
      ],
      "name": "revokeDealer",
      "outputs": [],
      "stateMutability": "nonpayable",
      "type": "function"
    },
    {
      "inputs": [
        {
          "internalType": "address",
          "name": "serv",
          "type": "address"
        }
      ],
      "name": "revokeStation",
      "outputs": [],
      "stateMutability": "nonpayable",
      "type": "function"
    },
    {
      "inputs": [
        {
          "internalType": "address",
          "name": "to",
          "type": "address"
        },
        {
          "internalType": "string",
          "name": "_name",
          "type": "string"
        },
        {
          "internalType": "string",
          "name": "_age_production",
          "type": "string"
        },
        {
          "internalType": "string",
          "name": "_model",
          "type": "string"
        },
        {
          "internalType": "string",
          "name": "_staging",
          "type": "string"
        },
        {
          "internalType": "string",
          "name": "_motor",
          "type": "string"
        },
        {
          "internalType": "string",
          "name": "_power",
          "type": "string"
        },
        {
          "internalType": "string",
          "name": "_url_info",
          "type": "string"
        },
        {
          "internalType": "string",
          "name": "_optionals",
          "type": "string"
        },
        {
          "internalType": "string",
          "name": "picture",
          "type": "string"
        }
      ],
      "name": "createCar",
      "outputs": [
        {
          "internalType": "uint256",
          "name": "",
          "type": "uint256"
        }
      ],
      "stateMutability": "nonpayable",
      "type": "function"
    },
    {
      "inputs": [
        {
          "internalType": "uint256",
          "name": "tokenId",
          "type": "uint256"
        },
        {
          "internalType": "uint32",
          "name": "_km",
          "type": "uint32"
        },
        {
          "internalType": "string",
          "name": "_operation",
          "type": "string"
        },
        {
          "internalType": "string",
          "name": "_office",
          "type": "string"
        }
      ],
      "name": "addService",
      "outputs": [],
      "stateMutability": "nonpayable",
      "type": "function"
    },
    {
      "inputs": [
        {
          "internalType": "uint256",
          "name": "tokenId",
          "type": "uint256"
        }
      ],
      "name": "getInfoCar",
      "outputs": [
        {
          "components": [
            {
              "internalType": "string",
              "name": "name",
              "type": "string"
            },
            {
              "internalType": "string",
              "name": "age_production",
              "type": "string"
            },
            {
              "internalType": "string",
              "name": "model",
              "type": "string"
            },
            {
              "internalType": "string",
              "name": "staging",
              "type": "string"
            },
            {
              "internalType": "string",
              "name": "motor",
              "type": "string"
            },
            {
              "internalType": "string",
              "name": "power",
              "type": "string"
            },
            {
              "components": [
                {
                  "internalType": "uint256",
                  "name": "date",
                  "type": "uint256"
                },
                {
                  "internalType": "uint32",
                  "name": "km",
                  "type": "uint32"
                },
                {
                  "internalType": "string",
                  "name": "operation",
                  "type": "string"
                },
                {
                  "internalType": "string",
                  "name": "office",
                  "type": "string"
                }
              ],
              "internalType": "struct CarLedger.Service[]",
              "name": "services",
              "type": "tuple[]"
            },
            {
              "internalType": "address[]",
              "name": "history",
              "type": "address[]"
            },
            {
              "internalType": "string",
              "name": "vin",
              "type": "string"
            },
            {
              "internalType": "string",
              "name": "plate",
              "type": "string"
            },
            {
              "internalType": "string",
              "name": "optionals",
              "type": "string"
            },
            {
              "internalType": "string",
              "name": "url_info",
              "type": "string"
            },
            {
              "internalType": "string",
              "name": "picture",
              "type": "string"
            },
            {
              "internalType": "bool",
              "name": "isSet",
              "type": "bool"
            }
          ],
          "internalType": "struct CarLedger.Info",
          "name": "",
          "type": "tuple"
        }
      ],
      "stateMutability": "view",
      "type": "function",
      "constant": true
    },
    {
      "inputs": [],
      "name": "getCarsbyOwner",
      "outputs": [
        {
          "components": [
            {
              "internalType": "string",
              "name": "name",
              "type": "string"
            },
            {
              "internalType": "string",
              "name": "age_production",
              "type": "string"
            },
            {
              "internalType": "string",
              "name": "model",
              "type": "string"
            },
            {
              "internalType": "string",
              "name": "staging",
              "type": "string"
            },
            {
              "internalType": "string",
              "name": "motor",
              "type": "string"
            },
            {
              "internalType": "string",
              "name": "power",
              "type": "string"
            },
            {
              "components": [
                {
                  "internalType": "uint256",
                  "name": "date",
                  "type": "uint256"
                },
                {
                  "internalType": "uint32",
                  "name": "km",
                  "type": "uint32"
                },
                {
                  "internalType": "string",
                  "name": "operation",
                  "type": "string"
                },
                {
                  "internalType": "string",
                  "name": "office",
                  "type": "string"
                }
              ],
              "internalType": "struct CarLedger.Service[]",
              "name": "services",
              "type": "tuple[]"
            },
            {
              "internalType": "address[]",
              "name": "history",
              "type": "address[]"
            },
            {
              "internalType": "string",
              "name": "vin",
              "type": "string"
            },
            {
              "internalType": "string",
              "name": "plate",
              "type": "string"
            },
            {
              "internalType": "string",
              "name": "optionals",
              "type": "string"
            },
            {
              "internalType": "string",
              "name": "url_info",
              "type": "string"
            },
            {
              "internalType": "string",
              "name": "picture",
              "type": "string"
            },
            {
              "internalType": "bool",
              "name": "isSet",
              "type": "bool"
            }
          ],
          "internalType": "struct CarLedger.Info[]",
          "name": "",
          "type": "tuple[]"
        }
      ],
      "stateMutability": "view",
      "type": "function",
      "constant": true
    },
    {
      "inputs": [
        {
          "internalType": "bytes4",
          "name": "interfaceId",
          "type": "bytes4"
        }
      ],
      "name": "supportsInterface",
      "outputs": [
        {
          "internalType": "bool",
          "name": "",
          "type": "bool"
        }
      ],
      "stateMutability": "view",
      "type": "function",
      "constant": true
    }
  ],
  "bytecode": "0x60806040523480156200001157600080fd5b506040518060400160405280600981526020017f4361724c656467657200000000000000000000000000000000000000000000008152506040518060400160405280600481526020017f434c65640000000000000000000000000000000000000000000000000000000081525081600090816200008f9190620008d1565b508060019081620000a19190620008d1565b505050620000b96000801b336200012360201b60201c565b620000eb7fcf75f067314df4d0527f2a9e12148d8bd7c8a3f7235b2171d24fa195d2c3ecb9336200013960201b60201c565b6200011d7fd8a7a79547af723ee3e12b59a480111268d8969c634e1a34a144d2c8b91d635b336200013960201b60201c565b62000d13565b6200013582826200017260201b60201c565b5050565b6200014a826200026460201b60201c565b6200015b816200028460201b60201c565b6200016d83836200017260201b60201c565b505050565b620001848282620002a860201b60201c565b62000260576001600a600084815260200190815260200160002060000160008373ffffffffffffffffffffffffffffffffffffffff1673ffffffffffffffffffffffffffffffffffffffff16815260200190815260200160002060006101000a81548160ff021916908315150217905550620002056200031360201b60201c565b73ffffffffffffffffffffffffffffffffffffffff168173ffffffffffffffffffffffffffffffffffffffff16837f2f8788117e7eff1d82e926ec794901d17c78024a50270940304540a733656f0d60405160405180910390a45b5050565b6000600a6000838152602001908152602001600020600101549050919050565b620002a581620002996200031360201b60201c565b6200031b60201b60201c565b50565b6000600a600084815260200190815260200160002060000160008373ffffffffffffffffffffffffffffffffffffffff1673ffffffffffffffffffffffffffffffffffffffff16815260200190815260200160002060009054906101000a900460ff16905092915050565b600033905090565b6200032d8282620002a860201b60201c565b620003c3576200034881620003c760201b62001f2f1760201c565b620003638360001c6020620003fc60201b62001f5c1760201c565b6040516020016200037692919062000ac6565b6040516020818303038152906040526040517f08c379a0000000000000000000000000000000000000000000000000000000008152600401620003ba919062000b6b565b60405180910390fd5b5050565b6060620003f58273ffffffffffffffffffffffffffffffffffffffff16601460ff16620003fc60201b60201c565b9050919050565b60606000600283600262000411919062000bbe565b6200041d919062000c09565b67ffffffffffffffff81111562000439576200043862000662565b5b6040519080825280601f01601f1916602001820160405280156200046c5781602001600182028036833780820191505090505b5090507f300000000000000000000000000000000000000000000000000000000000000081600081518110620004a757620004a662000c44565b5b60200101907effffffffffffffffffffffffffffffffffffffffffffffffffffffffffffff1916908160001a9053507f7800000000000000000000000000000000000000000000000000000000000000816001815181106200050e576200050d62000c44565b5b60200101907effffffffffffffffffffffffffffffffffffffffffffffffffffffffffffff1916908160001a9053506000600184600262000550919062000bbe565b6200055c919062000c09565b90505b600181111562000606577f3031323334353637383961626364656600000000000000000000000000000000600f861660108110620005a257620005a162000c44565b5b1a60f81b828281518110620005bc57620005bb62000c44565b5b60200101907effffffffffffffffffffffffffffffffffffffffffffffffffffffffffffff1916908160001a905350600485901c945080620005fe9062000c73565b90506200055f565b50600084146200064d576040517f08c379a0000000000000000000000000000000000000000000000000000000008152600401620006449062000cf1565b60405180910390fd5b8091505092915050565b600081519050919050565b7f4e487b7100000000000000000000000000000000000000000000000000000000600052604160045260246000fd5b7f4e487b7100000000000000000000000000000000000000000000000000000000600052602260045260246000fd5b60006002820490506001821680620006d957607f821691505b602082108103620006ef57620006ee62000691565b5b50919050565b60008190508160005260206000209050919050565b60006020601f8301049050919050565b600082821b905092915050565b600060088302620007597fffffffffffffffffffffffffffffffffffffffffffffffffffffffffffffffff826200071a565b6200076586836200071a565b95508019841693508086168417925050509392505050565b6000819050919050565b6000819050919050565b6000620007b2620007ac620007a6846200077d565b62000787565b6200077d565b9050919050565b6000819050919050565b620007ce8362000791565b620007e6620007dd82620007b9565b84845462000727565b825550505050565b600090565b620007fd620007ee565b6200080a818484620007c3565b505050565b5b81811015620008325762000826600082620007f3565b60018101905062000810565b5050565b601f82111562000881576200084b81620006f5565b62000856846200070a565b8101602085101562000866578190505b6200087e62000875856200070a565b8301826200080f565b50505b505050565b600082821c905092915050565b6000620008a66000198460080262000886565b1980831691505092915050565b6000620008c1838362000893565b9150826002028217905092915050565b620008dc8262000657565b67ffffffffffffffff811115620008f857620008f762000662565b5b620009048254620006c0565b6200091182828562000836565b600060209050601f83116001811462000949576000841562000934578287015190505b620009408582620008b3565b865550620009b0565b601f1984166200095986620006f5565b60005b8281101562000983578489015182556001820191506020850194506020810190506200095c565b86831015620009a357848901516200099f601f89168262000893565b8355505b6001600288020188555050505b505050505050565b600081905092915050565b7f416363657373436f6e74726f6c3a206163636f756e7420000000000000000000600082015250565b6000620009fb601783620009b8565b915062000a0882620009c3565b601782019050919050565b60005b8381101562000a3357808201518184015260208101905062000a16565b60008484015250505050565b600062000a4c8262000657565b62000a588185620009b8565b935062000a6a81856020860162000a13565b80840191505092915050565b7f206973206d697373696e6720726f6c6520000000000000000000000000000000600082015250565b600062000aae601183620009b8565b915062000abb8262000a76565b601182019050919050565b600062000ad382620009ec565b915062000ae1828562000a3f565b915062000aee8262000a9f565b915062000afc828462000a3f565b91508190509392505050565b600082825260208201905092915050565b6000601f19601f8301169050919050565b600062000b378262000657565b62000b43818562000b08565b935062000b5581856020860162000a13565b62000b608162000b19565b840191505092915050565b6000602082019050818103600083015262000b87818462000b2a565b905092915050565b7f4e487b7100000000000000000000000000000000000000000000000000000000600052601160045260246000fd5b600062000bcb826200077d565b915062000bd8836200077d565b925082820262000be8816200077d565b9150828204841483151762000c025762000c0162000b8f565b5b5092915050565b600062000c16826200077d565b915062000c23836200077d565b925082820190508082111562000c3e5762000c3d62000b8f565b5b92915050565b7f4e487b7100000000000000000000000000000000000000000000000000000000600052603260045260246000fd5b600062000c80826200077d565b91506000820362000c965762000c9562000b8f565b5b600182039050919050565b7f537472696e67733a20686578206c656e67746820696e73756666696369656e74600082015250565b600062000cd960208362000b08565b915062000ce68262000ca1565b602082019050919050565b6000602082019050818103600083015262000d0c8162000cca565b9050919050565b615d948062000d236000396000f3fe608060405234801561001057600080fd5b50600436106101f05760003560e01c80634a5b68bc1161010f578063a20e7d47116100a2578063c743678411610071578063c7436784146105db578063c87b56dd146105f7578063d547741f14610627578063e985e9c514610643576101f0565b8063a20e7d4714610567578063a217fddf14610585578063a22cb465146105a3578063b88d4fde146105bf576101f0565b80636352211e116100de5780636352211e146104b957806370a08231146104e957806391d148541461051957806395d89b4114610549576101f0565b80634a5b68bc146104215780634dc54a031461043d5780634f6ccce71461046d578063594fb0d31461049d576101f0565b8063248a9ca31161018757806334d6ff4c1161015657806334d6ff4c146103af57806336568abe146103cd57806342842e0e146103e957806342fb42b714610405576101f0565b8063248a9ca3146103035780632f2ff15d146103335780632f745c591461034f5780633319e0741461037f576101f0565b8063095ea7b3116101c3578063095ea7b31461028f57806318160ddd146102ab5780632139526e146102c957806323b872dd146102e7576101f0565b806301ffc9a7146101f557806306d6cb761461022557806306fdde0314610241578063081812fc1461025f575b600080fd5b61020f600480360381019061020a9190613d4c565b610673565b60405161021c9190613d94565b60405180910390f35b61023f600480360381019061023a9190613e0d565b610685565b005b6102496106c0565b6040516102569190613eca565b60405180910390f35b61027960048036038101906102749190613f22565b610752565b6040516102869190613f5e565b60405180910390f35b6102a960048036038101906102a49190613f79565b610798565b005b6102b36108af565b6040516102c09190613fc8565b60405180910390f35b6102d16108bc565b6040516102de9190614498565b60405180910390f35b61030160048036038101906102fc91906144ba565b610a12565b005b61031d60048036038101906103189190614543565b610a72565b60405161032a919061457f565b60405180910390f35b61034d6004803603810190610348919061459a565b610a92565b005b61036960048036038101906103649190613f79565b610ab3565b6040516103769190613fc8565b60405180910390f35b61039960048036038101906103949190613f22565b610b58565b6040516103a6919061475c565b60405180910390f35b6103b7611492565b6040516103c4919061457f565b60405180910390f35b6103e760048036038101906103e2919061459a565b6114b6565b005b61040360048036038101906103fe91906144ba565b611539565b005b61041f600480360381019061041a9190613e0d565b611559565b005b61043b600480360381019061043691906148df565b611594565b005b6104576004803603810190610452919061497e565b6116f4565b6040516104649190613fc8565b60405180910390f35b61048760048036038101906104829190613f22565b611a4e565b6040516104949190613fc8565b60405180910390f35b6104b760048036038101906104b29190613e0d565b611abf565b005b6104d360048036038101906104ce9190613f22565b611afa565b6040516104e09190613f5e565b60405180910390f35b61050360048036038101906104fe9190613e0d565b611b80565b6040516105109190613fc8565b60405180910390f35b610533600480360381019061052e919061459a565b611c37565b6040516105409190613d94565b60405180910390f35b610551611ca2565b60405161055e9190613eca565b60405180910390f35b61056f611d34565b60405161057c919061457f565b60405180910390f35b61058d611d58565b60405161059a919061457f565b60405180910390f35b6105bd60048036038101906105b89190614b85565b611d5f565b005b6105d960048036038101906105d49190614c66565b611d75565b005b6105f560048036038101906105f09190613e0d565b611dd7565b005b610611600480360381019061060c9190613f22565b611e12565b60405161061e9190613eca565b60405180910390f35b610641600480360381019061063c919061459a565b611e7a565b005b61065d60048036038101906106589190614ce9565b611e9b565b60405161066a9190613d94565b60405180910390f35b600061067e82612198565b9050919050565b6000801b61069281612212565b6106bc7fcf75f067314df4d0527f2a9e12148d8bd7c8a3f7235b2171d24fa195d2c3ecb983610a92565b5050565b6060600080546106cf90614d58565b80601f01602080910402602001604051908101604052809291908181526020018280546106fb90614d58565b80156107485780601f1061071d57610100808354040283529160200191610748565b820191906000526020600020905b81548152906001019060200180831161072b57829003601f168201915b5050505050905090565b600061075d82612226565b6004600083815260200190815260200160002060009054906101000a900473ffffffffffffffffffffffffffffffffffffffff169050919050565b60006107a382611afa565b90508073ffffffffffffffffffffffffffffffffffffffff168373ffffffffffffffffffffffffffffffffffffffff1603610813576040517f08c379a000000000000000000000000000000000000000000000000000000000815260040161080a90614dfb565b60405180910390fd5b8073ffffffffffffffffffffffffffffffffffffffff16610832612271565b73ffffffffffffffffffffffffffffffffffffffff16148061086157506108608161085b612271565b611e9b565b5b6108a0576040517f08c379a000000000000000000000000000000000000000000000000000000000815260040161089790614e8d565b60405180910390fd5b6108aa8383612279565b505050565b6000600880549050905090565b60606000600d60003373ffffffffffffffffffffffffffffffffffffffff1673ffffffffffffffffffffffffffffffffffffffff16815260200190815260200160002080548060200260200160405190810160405280929190818152602001828054801561094957602002820191906000526020600020905b815481526020019060010190808311610935575b505050505090506000815167ffffffffffffffff81111561096d5761096c6147b4565b5b6040519080825280602002602001820160405280156109a657816020015b610993613c6f565b81526020019060019003908161098b5790505b50905060005b8251811015610a09576109d88382815181106109cb576109ca614ead565b5b6020026020010151610b58565b8282815181106109eb576109ea614ead565b5b60200260200101819052508080610a0190614f0b565b9150506109ac565b50809250505090565b610a23610a1d612271565b82612332565b610a62576040517f08c379a0000000000000000000000000000000000000000000000000000000008152600401610a5990614fc5565b60405180910390fd5b610a6d8383836123c7565b505050565b6000600a6000838152602001908152602001600020600101549050919050565b610a9b82610a72565b610aa481612212565b610aae83836126c0565b505050565b6000610abe83611b80565b8210610aff576040517f08c379a0000000000000000000000000000000000000000000000000000000008152600401610af690615057565b60405180910390fd5b600660008473ffffffffffffffffffffffffffffffffffffffff1673ffffffffffffffffffffffffffffffffffffffff168152602001908152602001600020600083815260200190815260200160002054905092915050565b610b60613c6f565b60011515600c6000848152602001908152602001600020600d0160009054906101000a900460ff16151514610bca576040517f08c379a0000000000000000000000000000000000000000000000000000000008152600401610bc1906150c3565b60405180910390fd5b600c6000838152602001908152602001600020604051806101c0016040529081600082018054610bf990614d58565b80601f0160208091040260200160405190810160405280929190818152602001828054610c2590614d58565b8015610c725780601f10610c4757610100808354040283529160200191610c72565b820191906000526020600020905b815481529060010190602001808311610c5557829003601f168201915b50505050508152602001600182018054610c8b90614d58565b80601f0160208091040260200160405190810160405280929190818152602001828054610cb790614d58565b8015610d045780601f10610cd957610100808354040283529160200191610d04565b820191906000526020600020905b815481529060010190602001808311610ce757829003601f168201915b50505050508152602001600282018054610d1d90614d58565b80601f0160208091040260200160405190810160405280929190818152602001828054610d4990614d58565b8015610d965780601f10610d6b57610100808354040283529160200191610d96565b820191906000526020600020905b815481529060010190602001808311610d7957829003601f168201915b50505050508152602001600382018054610daf90614d58565b80601f0160208091040260200160405190810160405280929190818152602001828054610ddb90614d58565b8015610e285780601f10610dfd57610100808354040283529160200191610e28565b820191906000526020600020905b815481529060010190602001808311610e0b57829003601f168201915b50505050508152602001600482018054610e4190614d58565b80601f0160208091040260200160405190810160405280929190818152602001828054610e6d90614d58565b8015610eba5780601f10610e8f57610100808354040283529160200191610eba565b820191906000526020600020905b815481529060010190602001808311610e9d57829003601f168201915b50505050508152602001600582018054610ed390614d58565b80601f0160208091040260200160405190810160405280929190818152602001828054610eff90614d58565b8015610f4c5780601f10610f2157610100808354040283529160200191610f4c565b820191906000526020600020905b815481529060010190602001808311610f2f57829003601f168201915b5050505050815260200160068201805480602002602001604051908101604052809291908181526020016000905b828210156111005783829060005260206000209060040201604051806080016040529081600082015481526020016001820160009054906101000a900463ffffffff1663ffffffff1663ffffffff168152602001600282018054610fdd90614d58565b80601f016020809104026020016040519081016040528092919081815260200182805461100990614d58565b80156110565780601f1061102b57610100808354040283529160200191611056565b820191906000526020600020905b81548152906001019060200180831161103957829003601f168201915b5050505050815260200160038201805461106f90614d58565b80601f016020809104026020016040519081016040528092919081815260200182805461109b90614d58565b80156110e85780601f106110bd576101008083540402835291602001916110e8565b820191906000526020600020905b8154815290600101906020018083116110cb57829003601f168201915b50505050508152505081526020019060010190610f7a565b5050505081526020016007820180548060200260200160405190810160405280929190818152602001828054801561118d57602002820191906000526020600020905b8160009054906101000a900473ffffffffffffffffffffffffffffffffffffffff1673ffffffffffffffffffffffffffffffffffffffff1681526020019060010190808311611143575b505050505081526020016008820180546111a690614d58565b80601f01602080910402602001604051908101604052809291908181526020018280546111d290614d58565b801561121f5780601f106111f45761010080835404028352916020019161121f565b820191906000526020600020905b81548152906001019060200180831161120257829003601f168201915b5050505050815260200160098201805461123890614d58565b80601f016020809104026020016040519081016040528092919081815260200182805461126490614d58565b80156112b15780601f10611286576101008083540402835291602001916112b1565b820191906000526020600020905b81548152906001019060200180831161129457829003601f168201915b50505050508152602001600a820180546112ca90614d58565b80601f01602080910402602001604051908101604052809291908181526020018280546112f690614d58565b80156113435780601f1061131857610100808354040283529160200191611343565b820191906000526020600020905b81548152906001019060200180831161132657829003601f168201915b50505050508152602001600b8201805461135c90614d58565b80601f016020809104026020016040519081016040528092919081815260200182805461138890614d58565b80156113d55780601f106113aa576101008083540402835291602001916113d5565b820191906000526020600020905b8154815290600101906020018083116113b857829003601f168201915b50505050508152602001600c820180546113ee90614d58565b80601f016020809104026020016040519081016040528092919081815260200182805461141a90614d58565b80156114675780601f1061143c57610100808354040283529160200191611467565b820191906000526020600020905b81548152906001019060200180831161144a57829003601f168201915b50505050508152602001600d820160009054906101000a900460ff1615151515815250509050919050565b7fcf75f067314df4d0527f2a9e12148d8bd7c8a3f7235b2171d24fa195d2c3ecb981565b6114be612271565b73ffffffffffffffffffffffffffffffffffffffff168173ffffffffffffffffffffffffffffffffffffffff161461152b576040517f08c379a000000000000000000000000000000000000000000000000000000000815260040161152290615155565b60405180910390fd5b61153582826127a1565b5050565b61155483838360405180602001604052806000815250611d75565b505050565b6000801b61156681612212565b6115907fcf75f067314df4d0527f2a9e12148d8bd7c8a3f7235b2171d24fa195d2c3ecb983611e7a565b5050565b7fd8a7a79547af723ee3e12b59a480111268d8969c634e1a34a144d2c8b91d635b6115be81612212565b60011515600c6000878152602001908152602001600020600d0160009054906101000a900460ff16151514611628576040517f08c379a000000000000000000000000000000000000000000000000000000000815260040161161f906151c1565b60405180910390fd5b600c600086815260200190815260200160002060060160405180608001604052804281526020018663ffffffff1681526020018581526020018481525090806001815401808255809150506001900390600052602060002090600402016000909190919091506000820151816000015560208201518160010160006101000a81548163ffffffff021916908363ffffffff16021790555060408201518160020190816116d4919061538d565b5060608201518160030190816116ea919061538d565b5050505050505050565b60007fcf75f067314df4d0527f2a9e12148d8bd7c8a3f7235b2171d24fa195d2c3ecb961172081612212565b600061172c600b612883565b90506117388d82612891565b86600c6000838152602001908152602001600020600501908161175b919061538d565b5087600c6000838152602001908152602001600020600401908161177f919061538d565b5088600c600083815260200190815260200160002060030190816117a3919061538d565b508a600c600083815260200190815260200160002060010190816117c7919061538d565b508b600c600083815260200190815260200160002060000190816117eb919061538d565b506118016013426117fc919061548e565b6128af565b600c60008381526020019081526020016000206008019081611823919061538d565b50611845600860c84261183691906154bf565b611840919061548e565b6128af565b600c60008381526020019081526020016000206009019081611867919061538d565b5089600c6000838152602001908152602001600020600201908161188b919061538d565b506001600c6000838152602001908152602001600020600d0160006101000a81548160ff02191690831515021790555085600c6000838152602001908152602001600020600b0190816118de919061538d565b5084600c6000838152602001908152602001600020600a019081611902919061538d565b50600c60008281526020019081526020016000206006016040518060800160405280428152602001600063ffffffff1681526020016040518060200160405280600081525081526020016040518060400160405280600b81526020017f436172206372656174656400000000000000000000000000000000000000000081525081525090806001815401808255809150506001900390600052602060002090600402016000909190919091506000820151816000015560208201518160010160006101000a81548163ffffffff021916908363ffffffff16021790555060408201518160020190816119f4919061538d565b506060820151816003019081611a0a919061538d565b50505083600c6000838152602001908152602001600020600c019081611a30919061538d565b50611a3b600b61297d565b80925050509a9950505050505050505050565b6000611a586108af565b8210611a99576040517f08c379a0000000000000000000000000000000000000000000000000000000008152600401611a9090615565565b60405180910390fd5b60088281548110611aad57611aac614ead565b5b90600052602060002001549050919050565b6000801b611acc81612212565b611af67fd8a7a79547af723ee3e12b59a480111268d8969c634e1a34a144d2c8b91d635b83610a92565b5050565b600080611b0683612993565b9050600073ffffffffffffffffffffffffffffffffffffffff168173ffffffffffffffffffffffffffffffffffffffff1603611b77576040517f08c379a0000000000000000000000000000000000000000000000000000000008152600401611b6e906155d1565b60405180910390fd5b80915050919050565b60008073ffffffffffffffffffffffffffffffffffffffff168273ffffffffffffffffffffffffffffffffffffffff1603611bf0576040517f08c379a0000000000000000000000000000000000000000000000000000000008152600401611be790615663565b60405180910390fd5b600360008373ffffffffffffffffffffffffffffffffffffffff1673ffffffffffffffffffffffffffffffffffffffff168152602001908152602001600020549050919050565b6000600a600084815260200190815260200160002060000160008373ffffffffffffffffffffffffffffffffffffffff1673ffffffffffffffffffffffffffffffffffffffff16815260200190815260200160002060009054906101000a900460ff16905092915050565b606060018054611cb190614d58565b80601f0160208091040260200160405190810160405280929190818152602001828054611cdd90614d58565b8015611d2a5780601f10611cff57610100808354040283529160200191611d2a565b820191906000526020600020905b815481529060010190602001808311611d0d57829003601f168201915b5050505050905090565b7fd8a7a79547af723ee3e12b59a480111268d8969c634e1a34a144d2c8b91d635b81565b6000801b81565b611d71611d6a612271565b83836129d0565b5050565b611d86611d80612271565b83612332565b611dc5576040517f08c379a0000000000000000000000000000000000000000000000000000000008152600401611dbc90614fc5565b60405180910390fd5b611dd184848484612b3c565b50505050565b6000801b611de481612212565b611e0e7fd8a7a79547af723ee3e12b59a480111268d8969c634e1a34a144d2c8b91d635b83611e7a565b5050565b6060611e1d82612226565b6000611e27612b98565b90506000815111611e475760405180602001604052806000815250611e72565b80611e51846128af565b604051602001611e629291906156bf565b6040516020818303038152906040525b915050919050565b611e8382610a72565b611e8c81612212565b611e9683836127a1565b505050565b6000600560008473ffffffffffffffffffffffffffffffffffffffff1673ffffffffffffffffffffffffffffffffffffffff16815260200190815260200160002060008373ffffffffffffffffffffffffffffffffffffffff1673ffffffffffffffffffffffffffffffffffffffff16815260200190815260200160002060009054906101000a900460ff16905092915050565b6060611f558273ffffffffffffffffffffffffffffffffffffffff16601460ff16611f5c565b9050919050565b606060006002836002611f6f91906156e3565b611f7991906154bf565b67ffffffffffffffff811115611f9257611f916147b4565b5b6040519080825280601f01601f191660200182016040528015611fc45781602001600182028036833780820191505090505b5090507f300000000000000000000000000000000000000000000000000000000000000081600081518110611ffc57611ffb614ead565b5b60200101907effffffffffffffffffffffffffffffffffffffffffffffffffffffffffffff1916908160001a9053507f7800000000000000000000000000000000000000000000000000000000000000816001815181106120605761205f614ead565b5b60200101907effffffffffffffffffffffffffffffffffffffffffffffffffffffffffffff1916908160001a905350600060018460026120a091906156e3565b6120aa91906154bf565b90505b600181111561214a577f3031323334353637383961626364656600000000000000000000000000000000600f8616601081106120ec576120eb614ead565b5b1a60f81b82828151811061210357612102614ead565b5b60200101907effffffffffffffffffffffffffffffffffffffffffffffffffffffffffffff1916908160001a905350600485901c94508061214390615725565b90506120ad565b506000841461218e576040517f08c379a00000000000000000000000000000000000000000000000000000000081526004016121859061579a565b60405180910390fd5b8091505092915050565b60007f7965db0b000000000000000000000000000000000000000000000000000000007bffffffffffffffffffffffffffffffffffffffffffffffffffffffff1916827bffffffffffffffffffffffffffffffffffffffffffffffffffffffff1916148061220b575061220a82612baf565b5b9050919050565b6122238161221e612271565b612c29565b50565b61222f81612cae565b61226e576040517f08c379a0000000000000000000000000000000000000000000000000000000008152600401612265906155d1565b60405180910390fd5b50565b600033905090565b816004600083815260200190815260200160002060006101000a81548173ffffffffffffffffffffffffffffffffffffffff021916908373ffffffffffffffffffffffffffffffffffffffff160217905550808273ffffffffffffffffffffffffffffffffffffffff166122ec83611afa565b73ffffffffffffffffffffffffffffffffffffffff167f8c5be1e5ebec7d5bd14f71427d1e84f3dd0314c0f7b2291e5b200ac8c7c3b92560405160405180910390a45050565b60008061233e83611afa565b90508073ffffffffffffffffffffffffffffffffffffffff168473ffffffffffffffffffffffffffffffffffffffff161480612380575061237f8185611e9b565b5b806123be57508373ffffffffffffffffffffffffffffffffffffffff166123a684610752565b73ffffffffffffffffffffffffffffffffffffffff16145b91505092915050565b8273ffffffffffffffffffffffffffffffffffffffff166123e782611afa565b73ffffffffffffffffffffffffffffffffffffffff161461243d576040517f08c379a00000000000000000000000000000000000000000000000000000000081526004016124349061582c565b60405180910390fd5b600073ffffffffffffffffffffffffffffffffffffffff168273ffffffffffffffffffffffffffffffffffffffff16036124ac576040517f08c379a00000000000000000000000000000000000000000000000000000000081526004016124a3906158be565b60405180910390fd5b6124b98383836001612cef565b8273ffffffffffffffffffffffffffffffffffffffff166124d982611afa565b73ffffffffffffffffffffffffffffffffffffffff161461252f576040517f08c379a00000000000000000000000000000000000000000000000000000000081526004016125269061582c565b60405180910390fd5b6004600082815260200190815260200160002060006101000a81549073ffffffffffffffffffffffffffffffffffffffff02191690556001600360008573ffffffffffffffffffffffffffffffffffffffff1673ffffffffffffffffffffffffffffffffffffffff168152602001908152602001600020600082825403925050819055506001600360008473ffffffffffffffffffffffffffffffffffffffff1673ffffffffffffffffffffffffffffffffffffffff16815260200190815260200160002060008282540192505081905550816002600083815260200190815260200160002060006101000a81548173ffffffffffffffffffffffffffffffffffffffff021916908373ffffffffffffffffffffffffffffffffffffffff160217905550808273ffffffffffffffffffffffffffffffffffffffff168473ffffffffffffffffffffffffffffffffffffffff167fddf252ad1be2c89b69c2b068fc378daa952ba7f163c4a11628f55a4df523b3ef60405160405180910390a46126bb8383836001612de8565b505050565b6126ca8282611c37565b61279d576001600a600084815260200190815260200160002060000160008373ffffffffffffffffffffffffffffffffffffffff1673ffffffffffffffffffffffffffffffffffffffff16815260200190815260200160002060006101000a81548160ff021916908315150217905550612742612271565b73ffffffffffffffffffffffffffffffffffffffff168173ffffffffffffffffffffffffffffffffffffffff16837f2f8788117e7eff1d82e926ec794901d17c78024a50270940304540a733656f0d60405160405180910390a45b5050565b6127ab8282611c37565b1561287f576000600a600084815260200190815260200160002060000160008373ffffffffffffffffffffffffffffffffffffffff1673ffffffffffffffffffffffffffffffffffffffff16815260200190815260200160002060006101000a81548160ff021916908315150217905550612824612271565b73ffffffffffffffffffffffffffffffffffffffff168173ffffffffffffffffffffffffffffffffffffffff16837ff6391f5c32d9c69d2a47ea670b442974b53935d1edc7fd64eb21e047a839171b60405160405180910390a45b5050565b600081600001549050919050565b6128ab828260405180602001604052806000815250612dee565b5050565b6060600060016128be84612e49565b01905060008167ffffffffffffffff8111156128dd576128dc6147b4565b5b6040519080825280601f01601f19166020018201604052801561290f5781602001600182028036833780820191505090505b509050600082602001820190505b600115612972578080600190039150507f3031323334353637383961626364656600000000000000000000000000000000600a86061a8153600a85816129665761296561545f565b5b0494506000850361291d575b819350505050919050565b6001816000016000828254019250508190555050565b60006002600083815260200190815260200160002060009054906101000a900473ffffffffffffffffffffffffffffffffffffffff169050919050565b8173ffffffffffffffffffffffffffffffffffffffff168373ffffffffffffffffffffffffffffffffffffffff1603612a3e576040517f08c379a0000000000000000000000000000000000000000000000000000000008152600401612a359061592a565b60405180910390fd5b80600560008573ffffffffffffffffffffffffffffffffffffffff1673ffffffffffffffffffffffffffffffffffffffff16815260200190815260200160002060008473ffffffffffffffffffffffffffffffffffffffff1673ffffffffffffffffffffffffffffffffffffffff16815260200190815260200160002060006101000a81548160ff0219169083151502179055508173ffffffffffffffffffffffffffffffffffffffff168373ffffffffffffffffffffffffffffffffffffffff167f17307eab39ab6107e8899845ad3d59bd9653f200f220920489ca2b5937696c3183604051612b2f9190613d94565b60405180910390a3505050565b612b478484846123c7565b612b5384848484612f9c565b612b92576040517f08c379a0000000000000000000000000000000000000000000000000000000008152600401612b89906159bc565b60405180910390fd5b50505050565b606060405180602001604052806000815250905090565b60007f780e9d63000000000000000000000000000000000000000000000000000000007bffffffffffffffffffffffffffffffffffffffffffffffffffffffff1916827bffffffffffffffffffffffffffffffffffffffffffffffffffffffff19161480612c225750612c2182613123565b5b9050919050565b612c338282611c37565b612caa57612c4081611f2f565b612c4e8360001c6020611f5c565b604051602001612c5f929190615a74565b6040516020818303038152906040526040517f08c379a0000000000000000000000000000000000000000000000000000000008152600401612ca19190613eca565b60405180910390fd5b5050565b60008073ffffffffffffffffffffffffffffffffffffffff16612cd083612993565b73ffffffffffffffffffffffffffffffffffffffff1614159050919050565b612cfb84848484613205565b612d058285613363565b600d60008473ffffffffffffffffffffffffffffffffffffffff1673ffffffffffffffffffffffffffffffffffffffff168152602001908152602001600020829080600181540180825580915050600190039060005260206000200160009091909190915055600c6000838152602001908152602001600020600701839080600181540180825580915050600190039060005260206000200160009091909190916101000a81548173ffffffffffffffffffffffffffffffffffffffff021916908373ffffffffffffffffffffffffffffffffffffffff16021790555050505050565b50505050565b612df88383613599565b612e056000848484612f9c565b612e44576040517f08c379a0000000000000000000000000000000000000000000000000000000008152600401612e3b906159bc565b60405180910390fd5b505050565b600080600090507a184f03e93ff9f4daa797ed6e38ed64bf6a1f0100000000000000008310612ea7577a184f03e93ff9f4daa797ed6e38ed64bf6a1f0100000000000000008381612e9d57612e9c61545f565b5b0492506040810190505b6d04ee2d6d415b85acef81000000008310612ee4576d04ee2d6d415b85acef81000000008381612eda57612ed961545f565b5b0492506020810190505b662386f26fc100008310612f1357662386f26fc100008381612f0957612f0861545f565b5b0492506010810190505b6305f5e1008310612f3c576305f5e1008381612f3257612f3161545f565b5b0492506008810190505b6127108310612f61576127108381612f5757612f5661545f565b5b0492506004810190505b60648310612f845760648381612f7a57612f7961545f565b5b0492506002810190505b600a8310612f93576001810190505b80915050919050565b6000612fbd8473ffffffffffffffffffffffffffffffffffffffff166137b6565b15613116578373ffffffffffffffffffffffffffffffffffffffff1663150b7a02612fe6612271565b8786866040518563ffffffff1660e01b81526004016130089493929190615b03565b6020604051808303816000875af192505050801561304457506040513d601f19601f820116820180604052508101906130419190615b64565b60015b6130c6573d8060008114613074576040519150601f19603f3d011682016040523d82523d6000602084013e613079565b606091505b5060008151036130be576040517f08c379a00000000000000000000000000000000000000000000000000000000081526004016130b5906159bc565b60405180910390fd5b805181602001fd5b63150b7a0260e01b7bffffffffffffffffffffffffffffffffffffffffffffffffffffffff1916817bffffffffffffffffffffffffffffffffffffffffffffffffffffffff19161491505061311b565b600190505b949350505050565b60007f80ac58cd000000000000000000000000000000000000000000000000000000007bffffffffffffffffffffffffffffffffffffffffffffffffffffffff1916827bffffffffffffffffffffffffffffffffffffffffffffffffffffffff191614806131ee57507f5b5e139f000000000000000000000000000000000000000000000000000000007bffffffffffffffffffffffffffffffffffffffffffffffffffffffff1916827bffffffffffffffffffffffffffffffffffffffffffffffffffffffff1916145b806131fe57506131fd826137d9565b5b9050919050565b61321184848484613843565b6001811115613255576040517f08c379a000000000000000000000000000000000000000000000000000000000815260040161324c90615c03565b60405180910390fd5b6000829050600073ffffffffffffffffffffffffffffffffffffffff168573ffffffffffffffffffffffffffffffffffffffff160361329c5761329781613969565b6132db565b8373ffffffffffffffffffffffffffffffffffffffff168573ffffffffffffffffffffffffffffffffffffffff16146132da576132d985826139b2565b5b5b600073ffffffffffffffffffffffffffffffffffffffff168473ffffffffffffffffffffffffffffffffffffffff160361331d5761331881613b1f565b61335c565b8473ffffffffffffffffffffffffffffffffffffffff168473ffffffffffffffffffffffffffffffffffffffff161461335b5761335a8482613bf0565b5b5b5050505050565b60005b600d60008373ffffffffffffffffffffffffffffffffffffffff1673ffffffffffffffffffffffffffffffffffffffff168152602001908152602001600020805490508110156135945782600d60008473ffffffffffffffffffffffffffffffffffffffff1673ffffffffffffffffffffffffffffffffffffffff168152602001908152602001600020828154811061340257613401614ead565b5b90600052602060002001540361358157600d60008373ffffffffffffffffffffffffffffffffffffffff1673ffffffffffffffffffffffffffffffffffffffff1681526020019081526020016000206001600d60008573ffffffffffffffffffffffffffffffffffffffff1673ffffffffffffffffffffffffffffffffffffffff168152602001908152602001600020805490506134a09190615c23565b815481106134b1576134b0614ead565b5b9060005260206000200154600d60008473ffffffffffffffffffffffffffffffffffffffff1673ffffffffffffffffffffffffffffffffffffffff168152602001908152602001600020828154811061350d5761350c614ead565b5b9060005260206000200181905550600d60008373ffffffffffffffffffffffffffffffffffffffff1673ffffffffffffffffffffffffffffffffffffffff16815260200190815260200160002080548061356a57613569615c57565b5b600190038181906000526020600020016000905590555b808061358c90614f0b565b915050613366565b505050565b600073ffffffffffffffffffffffffffffffffffffffff168273ffffffffffffffffffffffffffffffffffffffff1603613608576040517f08c379a00000000000000000000000000000000000000000000000000000000081526004016135ff90615cd2565b60405180910390fd5b61361181612cae565b15613651576040517f08c379a000000000000000000000000000000000000000000000000000000000815260040161364890615d3e565b60405180910390fd5b61365f600083836001612cef565b61366881612cae565b156136a8576040517f08c379a000000000000000000000000000000000000000000000000000000000815260040161369f90615d3e565b60405180910390fd5b6001600360008473ffffffffffffffffffffffffffffffffffffffff1673ffffffffffffffffffffffffffffffffffffffff16815260200190815260200160002060008282540192505081905550816002600083815260200190815260200160002060006101000a81548173ffffffffffffffffffffffffffffffffffffffff021916908373ffffffffffffffffffffffffffffffffffffffff160217905550808273ffffffffffffffffffffffffffffffffffffffff16600073ffffffffffffffffffffffffffffffffffffffff167fddf252ad1be2c89b69c2b068fc378daa952ba7f163c4a11628f55a4df523b3ef60405160405180910390a46137b2600083836001612de8565b5050565b6000808273ffffffffffffffffffffffffffffffffffffffff163b119050919050565b60007f01ffc9a7000000000000000000000000000000000000000000000000000000007bffffffffffffffffffffffffffffffffffffffffffffffffffffffff1916827bffffffffffffffffffffffffffffffffffffffffffffffffffffffff1916149050919050565b600181111561396357600073ffffffffffffffffffffffffffffffffffffffff168473ffffffffffffffffffffffffffffffffffffffff16146138d75780600360008673ffffffffffffffffffffffffffffffffffffffff1673ffffffffffffffffffffffffffffffffffffffff16815260200190815260200160002060008282546138cf9190615c23565b925050819055505b600073ffffffffffffffffffffffffffffffffffffffff168373ffffffffffffffffffffffffffffffffffffffff16146139625780600360008573ffffffffffffffffffffffffffffffffffffffff1673ffffffffffffffffffffffffffffffffffffffff168152602001908152602001600020600082825461395a91906154bf565b925050819055505b5b50505050565b6008805490506009600083815260200190815260200160002081905550600881908060018154018082558091505060019003906000526020600020016000909190919091505550565b600060016139bf84611b80565b6139c99190615c23565b9050600060076000848152602001908152602001600020549050818114613aae576000600660008673ffffffffffffffffffffffffffffffffffffffff1673ffffffffffffffffffffffffffffffffffffffff168152602001908152602001600020600084815260200190815260200160002054905080600660008773ffffffffffffffffffffffffffffffffffffffff1673ffffffffffffffffffffffffffffffffffffffff168152602001908152602001600020600084815260200190815260200160002081905550816007600083815260200190815260200160002081905550505b6007600084815260200190815260200160002060009055600660008573ffffffffffffffffffffffffffffffffffffffff1673ffffffffffffffffffffffffffffffffffffffff16815260200190815260200160002060008381526020019081526020016000206000905550505050565b60006001600880549050613b339190615c23565b9050600060096000848152602001908152602001600020549050600060088381548110613b6357613b62614ead565b5b906000526020600020015490508060088381548110613b8557613b84614ead565b5b906000526020600020018190555081600960008381526020019081526020016000208190555060096000858152602001908152602001600020600090556008805480613bd457613bd3615c57565b5b6001900381819060005260206000200160009055905550505050565b6000613bfb83611b80565b905081600660008573ffffffffffffffffffffffffffffffffffffffff1673ffffffffffffffffffffffffffffffffffffffff168152602001908152602001600020600083815260200190815260200160002081905550806007600084815260200190815260200160002081905550505050565b604051806101c00160405280606081526020016060815260200160608152602001606081526020016060815260200160608152602001606081526020016060815260200160608152602001606081526020016060815260200160608152602001606081526020016000151581525090565b6000604051905090565b600080fd5b600080fd5b60007fffffffff0000000000000000000000000000000000000000000000000000000082169050919050565b613d2981613cf4565b8114613d3457600080fd5b50565b600081359050613d4681613d20565b92915050565b600060208284031215613d6257613d61613cea565b5b6000613d7084828501613d37565b91505092915050565b60008115159050919050565b613d8e81613d79565b82525050565b6000602082019050613da96000830184613d85565b92915050565b600073ffffffffffffffffffffffffffffffffffffffff82169050919050565b6000613dda82613daf565b9050919050565b613dea81613dcf565b8114613df557600080fd5b50565b600081359050613e0781613de1565b92915050565b600060208284031215613e2357613e22613cea565b5b6000613e3184828501613df8565b91505092915050565b600081519050919050565b600082825260208201905092915050565b60005b83811015613e74578082015181840152602081019050613e59565b60008484015250505050565b6000601f19601f8301169050919050565b6000613e9c82613e3a565b613ea68185613e45565b9350613eb6818560208601613e56565b613ebf81613e80565b840191505092915050565b60006020820190508181036000830152613ee48184613e91565b905092915050565b6000819050919050565b613eff81613eec565b8114613f0a57600080fd5b50565b600081359050613f1c81613ef6565b92915050565b600060208284031215613f3857613f37613cea565b5b6000613f4684828501613f0d565b91505092915050565b613f5881613dcf565b82525050565b6000602082019050613f736000830184613f4f565b92915050565b60008060408385031215613f9057613f8f613cea565b5b6000613f9e85828601613df8565b9250506020613faf85828601613f0d565b9150509250929050565b613fc281613eec565b82525050565b6000602082019050613fdd6000830184613fb9565b92915050565b600081519050919050565b600082825260208201905092915050565b6000819050602082019050919050565b600082825260208201905092915050565b600061402b82613e3a565b614035818561400f565b9350614045818560208601613e56565b61404e81613e80565b840191505092915050565b600081519050919050565b600082825260208201905092915050565b6000819050602082019050919050565b61408e81613eec565b82525050565b600063ffffffff82169050919050565b6140ad81614094565b82525050565b60006080830160008301516140cb6000860182614085565b5060208301516140de60208601826140a4565b50604083015184820360408601526140f68282614020565b915050606083015184820360608601526141108282614020565b9150508091505092915050565b600061412983836140b3565b905092915050565b6000602082019050919050565b600061414982614059565b6141538185614064565b93508360208202850161416585614075565b8060005b858110156141a15784840389528151614182858261411d565b945061418d83614131565b925060208a01995050600181019050614169565b50829750879550505050505092915050565b600081519050919050565b600082825260208201905092915050565b6000819050602082019050919050565b6141e881613dcf565b82525050565b60006141fa83836141df565b60208301905092915050565b6000602082019050919050565b600061421e826141b3565b61422881856141be565b9350614233836141cf565b8060005b8381101561426457815161424b88826141ee565b975061425683614206565b925050600181019050614237565b5085935050505092915050565b61427a81613d79565b82525050565b60006101c083016000830151848203600086015261429e8282614020565b915050602083015184820360208601526142b88282614020565b915050604083015184820360408601526142d28282614020565b915050606083015184820360608601526142ec8282614020565b915050608083015184820360808601526143068282614020565b91505060a083015184820360a08601526143208282614020565b91505060c083015184820360c086015261433a828261413e565b91505060e083015184820360e08601526143548282614213565b9150506101008301518482036101008601526143708282614020565b91505061012083015184820361012086015261438c8282614020565b9150506101408301518482036101408601526143a88282614020565b9150506101608301518482036101608601526143c48282614020565b9150506101808301518482036101808601526143e08282614020565b9150506101a08301516143f76101a0860182614271565b508091505092915050565b600061440e8383614280565b905092915050565b6000602082019050919050565b600061442e82613fe3565b6144388185613fee565b93508360208202850161444a85613fff565b8060005b8581101561448657848403895281516144678582614402565b945061447283614416565b925060208a0199505060018101905061444e565b50829750879550505050505092915050565b600060208201905081810360008301526144b28184614423565b905092915050565b6000806000606084860312156144d3576144d2613cea565b5b60006144e186828701613df8565b93505060206144f286828701613df8565b925050604061450386828701613f0d565b9150509250925092565b6000819050919050565b6145208161450d565b811461452b57600080fd5b50565b60008135905061453d81614517565b92915050565b60006020828403121561455957614558613cea565b5b60006145678482850161452e565b91505092915050565b6145798161450d565b82525050565b60006020820190506145946000830184614570565b92915050565b600080604083850312156145b1576145b0613cea565b5b60006145bf8582860161452e565b92505060206145d085828601613df8565b9150509250929050565b60006101c08301600083015184820360008601526145f88282614020565b915050602083015184820360208601526146128282614020565b9150506040830151848203604086015261462c8282614020565b915050606083015184820360608601526146468282614020565b915050608083015184820360808601526146608282614020565b91505060a083015184820360a086015261467a8282614020565b91505060c083015184820360c0860152614694828261413e565b91505060e083015184820360e08601526146ae8282614213565b9150506101008301518482036101008601526146ca8282614020565b9150506101208301518482036101208601526146e68282614020565b9150506101408301518482036101408601526147028282614020565b91505061016083015184820361016086015261471e8282614020565b91505061018083015184820361018086015261473a8282614020565b9150506101a08301516147516101a0860182614271565b508091505092915050565b6000602082019050818103600083015261477681846145da565b905092915050565b61478781614094565b811461479257600080fd5b50565b6000813590506147a48161477e565b92915050565b600080fd5b600080fd5b7f4e487b7100000000000000000000000000000000000000000000000000000000600052604160045260246000fd5b6147ec82613e80565b810181811067ffffffffffffffff8211171561480b5761480a6147b4565b5b80604052505050565b600061481e613ce0565b905061482a82826147e3565b919050565b600067ffffffffffffffff82111561484a576148496147b4565b5b61485382613e80565b9050602081019050919050565b82818337600083830152505050565b600061488261487d8461482f565b614814565b90508281526020810184848401111561489e5761489d6147af565b5b6148a9848285614860565b509392505050565b600082601f8301126148c6576148c56147aa565b5b81356148d684826020860161486f565b91505092915050565b600080600080608085870312156148f9576148f8613cea565b5b600061490787828801613f0d565b945050602061491887828801614795565b935050604085013567ffffffffffffffff81111561493957614938613cef565b5b614945878288016148b1565b925050606085013567ffffffffffffffff81111561496657614965613cef565b5b614972878288016148b1565b91505092959194509250565b6000806000806000806000806000806101408b8d0312156149a2576149a1613cea565b5b60006149b08d828e01613df8565b9a505060208b013567ffffffffffffffff8111156149d1576149d0613cef565b5b6149dd8d828e016148b1565b99505060408b013567ffffffffffffffff8111156149fe576149fd613cef565b5b614a0a8d828e016148b1565b98505060608b013567ffffffffffffffff811115614a2b57614a2a613cef565b5b614a378d828e016148b1565b97505060808b013567ffffffffffffffff811115614a5857614a57613cef565b5b614a648d828e016148b1565b96505060a08b013567ffffffffffffffff811115614a8557614a84613cef565b5b614a918d828e016148b1565b95505060c08b013567ffffffffffffffff811115614ab257614ab1613cef565b5b614abe8d828e016148b1565b94505060e08b013567ffffffffffffffff811115614adf57614ade613cef565b5b614aeb8d828e016148b1565b9350506101008b013567ffffffffffffffff811115614b0d57614b0c613cef565b5b614b198d828e016148b1565b9250506101208b013567ffffffffffffffff811115614b3b57614b3a613cef565b5b614b478d828e016148b1565b9150509295989b9194979a5092959850565b614b6281613d79565b8114614b6d57600080fd5b50565b600081359050614b7f81614b59565b92915050565b60008060408385031215614b9c57614b9b613cea565b5b6000614baa85828601613df8565b9250506020614bbb85828601614b70565b9150509250929050565b600067ffffffffffffffff821115614be057614bdf6147b4565b5b614be982613e80565b9050602081019050919050565b6000614c09614c0484614bc5565b614814565b905082815260208101848484011115614c2557614c246147af565b5b614c30848285614860565b509392505050565b600082601f830112614c4d57614c4c6147aa565b5b8135614c5d848260208601614bf6565b91505092915050565b60008060008060808587031215614c8057614c7f613cea565b5b6000614c8e87828801613df8565b9450506020614c9f87828801613df8565b9350506040614cb087828801613f0d565b925050606085013567ffffffffffffffff811115614cd157614cd0613cef565b5b614cdd87828801614c38565b91505092959194509250565b60008060408385031215614d0057614cff613cea565b5b6000614d0e85828601613df8565b9250506020614d1f85828601613df8565b9150509250929050565b7f4e487b7100000000000000000000000000000000000000000000000000000000600052602260045260246000fd5b60006002820490506001821680614d7057607f821691505b602082108103614d8357614d82614d29565b5b50919050565b7f4552433732313a20617070726f76616c20746f2063757272656e74206f776e6560008201527f7200000000000000000000000000000000000000000000000000000000000000602082015250565b6000614de5602183613e45565b9150614df082614d89565b604082019050919050565b60006020820190508181036000830152614e1481614dd8565b9050919050565b7f4552433732313a20617070726f76652063616c6c6572206973206e6f7420746f60008201527f6b656e206f776e6572206f7220617070726f76656420666f7220616c6c000000602082015250565b6000614e77603d83613e45565b9150614e8282614e1b565b604082019050919050565b60006020820190508181036000830152614ea681614e6a565b9050919050565b7f4e487b7100000000000000000000000000000000000000000000000000000000600052603260045260246000fd5b7f4e487b7100000000000000000000000000000000000000000000000000000000600052601160045260246000fd5b6000614f1682613eec565b91507fffffffffffffffffffffffffffffffffffffffffffffffffffffffffffffffff8203614f4857614f47614edc565b5b600182019050919050565b7f4552433732313a2063616c6c6572206973206e6f7420746f6b656e206f776e6560008201527f72206f7220617070726f76656400000000000000000000000000000000000000602082015250565b6000614faf602d83613e45565b9150614fba82614f53565b604082019050919050565b60006020820190508181036000830152614fde81614fa2565b9050919050565b7f455243373231456e756d657261626c653a206f776e657220696e646578206f7560008201527f74206f6620626f756e6473000000000000000000000000000000000000000000602082015250565b6000615041602b83613e45565b915061504c82614fe5565b604082019050919050565b6000602082019050818103600083015261507081615034565b9050919050565b7f5468652063617220646f6573656e277420657869737473000000000000000000600082015250565b60006150ad601783613e45565b91506150b882615077565b602082019050919050565b600060208201905081810360008301526150dc816150a0565b9050919050565b7f416363657373436f6e74726f6c3a2063616e206f6e6c792072656e6f756e636560008201527f20726f6c657320666f722073656c660000000000000000000000000000000000602082015250565b600061513f602f83613e45565b915061514a826150e3565b604082019050919050565b6000602082019050818103600083015261516e81615132565b9050919050565b7f56656963686c6520646f6573656e277420657869737473000000000000000000600082015250565b60006151ab601783613e45565b91506151b682615175565b602082019050919050565b600060208201905081810360008301526151da8161519e565b9050919050565b60008190508160005260206000209050919050565b60006020601f8301049050919050565b600082821b905092915050565b6000600883026152437fffffffffffffffffffffffffffffffffffffffffffffffffffffffffffffffff82615206565b61524d8683615206565b95508019841693508086168417925050509392505050565b6000819050919050565b600061528a61528561528084613eec565b615265565b613eec565b9050919050565b6000819050919050565b6152a48361526f565b6152b86152b082615291565b848454615213565b825550505050565b600090565b6152cd6152c0565b6152d881848461529b565b505050565b5b818110156152fc576152f16000826152c5565b6001810190506152de565b5050565b601f82111561534157615312816151e1565b61531b846151f6565b8101602085101561532a578190505b61533e615336856151f6565b8301826152dd565b50505b505050565b600082821c905092915050565b600061536460001984600802615346565b1980831691505092915050565b600061537d8383615353565b9150826002028217905092915050565b61539682613e3a565b67ffffffffffffffff8111156153af576153ae6147b4565b5b6153b98254614d58565b6153c4828285615300565b600060209050601f8311600181146153f757600084156153e5578287015190505b6153ef8582615371565b865550615457565b601f198416615405866151e1565b60005b8281101561542d57848901518255600182019150602085019450602081019050615408565b8683101561544a5784890151615446601f891682615353565b8355505b6001600288020188555050505b505050505050565b7f4e487b7100000000000000000000000000000000000000000000000000000000600052601260045260246000fd5b600061549982613eec565b91506154a483613eec565b9250826154b4576154b361545f565b5b828206905092915050565b60006154ca82613eec565b91506154d583613eec565b92508282019050808211156154ed576154ec614edc565b5b92915050565b7f455243373231456e756d657261626c653a20676c6f62616c20696e646578206f60008201527f7574206f6620626f756e64730000000000000000000000000000000000000000602082015250565b600061554f602c83613e45565b915061555a826154f3565b604082019050919050565b6000602082019050818103600083015261557e81615542565b9050919050565b7f4552433732313a20696e76616c696420746f6b656e2049440000000000000000600082015250565b60006155bb601883613e45565b91506155c682615585565b602082019050919050565b600060208201905081810360008301526155ea816155ae565b9050919050565b7f4552433732313a2061646472657373207a65726f206973206e6f74206120766160008201527f6c6964206f776e65720000000000000000000000000000000000000000000000602082015250565b600061564d602983613e45565b9150615658826155f1565b604082019050919050565b6000602082019050818103600083015261567c81615640565b9050919050565b600081905092915050565b600061569982613e3a565b6156a38185615683565b93506156b3818560208601613e56565b80840191505092915050565b60006156cb828561568e565b91506156d7828461568e565b91508190509392505050565b60006156ee82613eec565b91506156f983613eec565b925082820261570781613eec565b9150828204841483151761571e5761571d614edc565b5b5092915050565b600061573082613eec565b91506000820361574357615742614edc565b5b600182039050919050565b7f537472696e67733a20686578206c656e67746820696e73756666696369656e74600082015250565b6000615784602083613e45565b915061578f8261574e565b602082019050919050565b600060208201905081810360008301526157b381615777565b9050919050565b7f4552433732313a207472616e736665722066726f6d20696e636f72726563742060008201527f6f776e6572000000000000000000000000000000000000000000000000000000602082015250565b6000615816602583613e45565b9150615821826157ba565b604082019050919050565b6000602082019050818103600083015261584581615809565b9050919050565b7f4552433732313a207472616e7366657220746f20746865207a65726f2061646460008201527f7265737300000000000000000000000000000000000000000000000000000000602082015250565b60006158a8602483613e45565b91506158b38261584c565b604082019050919050565b600060208201905081810360008301526158d78161589b565b9050919050565b7f4552433732313a20617070726f766520746f2063616c6c657200000000000000600082015250565b6000615914601983613e45565b915061591f826158de565b602082019050919050565b6000602082019050818103600083015261594381615907565b9050919050565b7f4552433732313a207472616e7366657220746f206e6f6e20455243373231526560008201527f63656976657220696d706c656d656e7465720000000000000000000000000000602082015250565b60006159a6603283613e45565b91506159b18261594a565b604082019050919050565b600060208201905081810360008301526159d581615999565b9050919050565b7f416363657373436f6e74726f6c3a206163636f756e7420000000000000000000600082015250565b6000615a12601783615683565b9150615a1d826159dc565b601782019050919050565b7f206973206d697373696e6720726f6c6520000000000000000000000000000000600082015250565b6000615a5e601183615683565b9150615a6982615a28565b601182019050919050565b6000615a7f82615a05565b9150615a8b828561568e565b9150615a9682615a51565b9150615aa2828461568e565b91508190509392505050565b600081519050919050565b600082825260208201905092915050565b6000615ad582615aae565b615adf8185615ab9565b9350615aef818560208601613e56565b615af881613e80565b840191505092915050565b6000608082019050615b186000830187613f4f565b615b256020830186613f4f565b615b326040830185613fb9565b8181036060830152615b448184615aca565b905095945050505050565b600081519050615b5e81613d20565b92915050565b600060208284031215615b7a57615b79613cea565b5b6000615b8884828501615b4f565b91505092915050565b7f455243373231456e756d657261626c653a20636f6e736563757469766520747260008201527f616e7366657273206e6f7420737570706f727465640000000000000000000000602082015250565b6000615bed603583613e45565b9150615bf882615b91565b604082019050919050565b60006020820190508181036000830152615c1c81615be0565b9050919050565b6000615c2e82613eec565b9150615c3983613eec565b9250828203905081811115615c5157615c50614edc565b5b92915050565b7f4e487b7100000000000000000000000000000000000000000000000000000000600052603160045260246000fd5b7f4552433732313a206d696e7420746f20746865207a65726f2061646472657373600082015250565b6000615cbc602083613e45565b9150615cc782615c86565b602082019050919050565b60006020820190508181036000830152615ceb81615caf565b9050919050565b7f4552433732313a20746f6b656e20616c7265616479206d696e74656400000000600082015250565b6000615d28601c83613e45565b9150615d3382615cf2565b602082019050919050565b60006020820190508181036000830152615d5781615d1b565b905091905056fea2646970667358221220eb572bcf2f06898763f0e02357b2f88cc0c0c4e82ca07d097433e8cd5794a52f64736f6c63430008110033",
  "immutableReferences": {},
  "source": "// SPDX-License-Identifier: MIT\r\npragma solidity ^0.8.9;\r\n\r\nimport \"@openzeppelin/contracts/token/ERC721/ERC721.sol\";\r\nimport \"@openzeppelin/contracts/token/ERC721/extensions/ERC721Enumerable.sol\";\r\nimport \"@openzeppelin/contracts/access/AccessControl.sol\";\r\nimport \"@openzeppelin/contracts/utils/Counters.sol\";\r\n\r\ncontract CarLedger is ERC721, ERC721Enumerable, AccessControl {\r\n    using Counters for Counters.Counter; \r\n\r\n    event LogLedger(string info, address sito, uint256[] tokens); \r\n    event LogCars(uint256[] owners, address from );\r\n    event LogInfo(Info[] info);\r\n\r\n    Counters.Counter private _tokenIdCounter;\r\n    \r\n    bytes32 public constant DEALER_ROLE = keccak256(\"DEALER_ROLE\");\r\n    bytes32 public constant SERVICE_ROLE = keccak256(\"SERVICE_ROLE\");\r\n    \r\n    struct Service {\r\n        uint date;\r\n        uint32 km;\r\n        string operation; \r\n        string office; \r\n\r\n    }\r\n\r\n    struct Info {\r\n        string name; \r\n        string age_production; \r\n\t\tstring model;\r\n\t\tstring staging; \r\n\t\tstring motor;\r\n\t\tstring power;  \r\n        Service[] services; \r\n        address[] history;\r\n        string vin; \r\n        string plate;\r\n        string optionals; \r\n        string url_info;\r\n        string picture;  \r\n        bool isSet; \r\n    }\r\n\r\n    mapping( uint256 => Info ) private ledger; \r\n    mapping(address => uint256[] ) private ownersList; \r\n\r\n\r\n    constructor() ERC721(\"CarLedger\", \"CLed\") {\r\n\r\n        _setupRole(DEFAULT_ADMIN_ROLE, msg.sender);\r\n        grantRole(DEALER_ROLE, msg.sender);\r\n        grantRole(SERVICE_ROLE, msg.sender); \r\n     \r\n    }\r\n\r\n    function addDealer(address dealer) public onlyRole(DEFAULT_ADMIN_ROLE) {\r\n        grantRole(DEALER_ROLE, dealer);\r\n    }\r\n\r\n    \r\n    function addStation(address serv) public onlyRole(DEFAULT_ADMIN_ROLE) {\r\n        grantRole(SERVICE_ROLE, serv);\r\n    }\r\n\r\n    function revokeDealer(address dealer) public onlyRole(DEFAULT_ADMIN_ROLE) {\r\n        revokeRole(DEALER_ROLE, dealer);\r\n    }\r\n\r\n    \r\n    function revokeStation(address serv) public onlyRole(DEFAULT_ADMIN_ROLE) {\r\n        revokeRole(SERVICE_ROLE, serv);\r\n    }\r\n\r\n    function createCar(address to ,string memory _name,string memory _age_production, string memory _model,string memory _staging, string memory _motor, string memory _power, string memory _url_info, string memory _optionals, string memory picture  ) public onlyRole(DEALER_ROLE) returns (uint256) {\r\n\r\n        uint256 tokenId = _tokenIdCounter.current(); \r\n        \r\n        _safeMint(to, tokenId);\r\n        ledger[tokenId].power = _power;\r\n        ledger[tokenId].motor = _motor;\r\n        ledger[tokenId].staging = _staging;  \r\n        ledger[tokenId].age_production = _age_production; \r\n        ledger[tokenId].name = _name; \r\n        ledger[tokenId].vin = Strings.toString(block.timestamp%19);\r\n        ledger[tokenId].plate = Strings.toString((block.timestamp+200)%8); \r\n        ledger[tokenId].model = _model; \r\n        ledger[tokenId].isSet = true;\r\n        ledger[tokenId].url_info = _url_info;\r\n        ledger[tokenId].optionals = _optionals;\r\n        ledger[tokenId].services.push(Service(block.timestamp , 0 , \"\", \"Car created\" ));\r\n        ledger[tokenId].picture = picture;\r\n        _tokenIdCounter.increment();\r\n        return tokenId; \r\n    }\r\n\r\n    function addService( uint256 tokenId, uint32 _km, string memory _operation, string memory _office) public onlyRole(SERVICE_ROLE)  {\r\n\r\n        require(ledger[tokenId].isSet == true , \"Veichle doesen't exists\");\r\n        ledger[tokenId].services.push(Service(block.timestamp, _km, _operation, _office ));\r\n        \r\n\r\n    }\r\n\r\n    // The following functions are overrides required by Solidity.\r\n\r\n    function _beforeTokenTransfer(address from, address to, uint256 tokenId, uint256 batchSize)\r\n        internal\r\n        override(ERC721, ERC721Enumerable)\r\n    {\r\n        super._beforeTokenTransfer(from, to, tokenId, batchSize);\r\n        removeTokenIdList(tokenId, from);\r\n        ownersList[to].push(tokenId); \r\n        ledger[tokenId].history.push(to);\r\n         \r\n    }\r\n\r\n\r\n    function getInfoCar(uint256 tokenId) public view returns ( Info memory ){\r\n\r\n        require( ledger[tokenId].isSet == true , \"The car doesen't exists\");\r\n        return ledger[tokenId]; \r\n\r\n    }\r\n    \r\n    function getCarsbyOwner() public view returns (Info[] memory){\r\n        \r\n        uint256[] memory owners = ownersList[msg.sender];\r\n        \r\n        Info[] memory cars = new Info[](owners.length);\r\n    \r\n        for (uint i = 0; i < owners.length; i++) {\r\n            cars[i] = getInfoCar(owners[i]); \r\n        }\r\n  \r\n        return cars; \r\n    }\r\n\r\n    function removeTokenIdList(uint256 tokenId , address from) internal {\r\n        \r\n        for (uint i = 0; i < ownersList[from].length; i++) {\r\n            if (ownersList[from][i] == tokenId) {\r\n                ownersList[from][i] = ownersList[from][ownersList[from].length-1];\r\n                ownersList[from].pop(); \r\n            }\r\n        }\r\n    }\r\n\r\n    function supportsInterface(bytes4 interfaceId)\r\n        public\r\n        view\r\n        override(ERC721, ERC721Enumerable,AccessControl)\r\n        returns (bool)\r\n    {\r\n        return super.supportsInterface(interfaceId);\r\n    }\r\n}\r\n",
  "sourcePath": "D:\\ethCar\\contracts\\CarLedger.sol",
  "compiler": {
    "name": "solc",
    "version": "0.8.17+commit.8df45f5f.Emscripten.clang"
  },
  "schemaVersion": "3.4.11",
  "updatedAt": "2023-02-18T19:47:21.760Z",
  "networkType": "ethereum",
  "devdoc": {
    "kind": "dev",
    "methods": {
      "approve(address,uint256)": {
        "details": "See {IERC721-approve}."
      },
      "balanceOf(address)": {
        "details": "See {IERC721-balanceOf}."
      },
      "getApproved(uint256)": {
        "details": "See {IERC721-getApproved}."
      },
      "getRoleAdmin(bytes32)": {
        "details": "Returns the admin role that controls `role`. See {grantRole} and {revokeRole}. To change a role's admin, use {_setRoleAdmin}."
      },
      "grantRole(bytes32,address)": {
        "details": "Grants `role` to `account`. If `account` had not been already granted `role`, emits a {RoleGranted} event. Requirements: - the caller must have ``role``'s admin role. May emit a {RoleGranted} event."
      },
      "hasRole(bytes32,address)": {
        "details": "Returns `true` if `account` has been granted `role`."
      },
      "isApprovedForAll(address,address)": {
        "details": "See {IERC721-isApprovedForAll}."
      },
      "name()": {
        "details": "See {IERC721Metadata-name}."
      },
      "ownerOf(uint256)": {
        "details": "See {IERC721-ownerOf}."
      },
      "renounceRole(bytes32,address)": {
        "details": "Revokes `role` from the calling account. Roles are often managed via {grantRole} and {revokeRole}: this function's purpose is to provide a mechanism for accounts to lose their privileges if they are compromised (such as when a trusted device is misplaced). If the calling account had been revoked `role`, emits a {RoleRevoked} event. Requirements: - the caller must be `account`. May emit a {RoleRevoked} event."
      },
      "revokeRole(bytes32,address)": {
        "details": "Revokes `role` from `account`. If `account` had been granted `role`, emits a {RoleRevoked} event. Requirements: - the caller must have ``role``'s admin role. May emit a {RoleRevoked} event."
      },
      "safeTransferFrom(address,address,uint256)": {
        "details": "See {IERC721-safeTransferFrom}."
      },
      "safeTransferFrom(address,address,uint256,bytes)": {
        "details": "See {IERC721-safeTransferFrom}."
      },
      "setApprovalForAll(address,bool)": {
        "details": "See {IERC721-setApprovalForAll}."
      },
      "symbol()": {
        "details": "See {IERC721Metadata-symbol}."
      },
      "tokenByIndex(uint256)": {
        "details": "See {IERC721Enumerable-tokenByIndex}."
      },
      "tokenOfOwnerByIndex(address,uint256)": {
        "details": "See {IERC721Enumerable-tokenOfOwnerByIndex}."
      },
      "tokenURI(uint256)": {
        "details": "See {IERC721Metadata-tokenURI}."
      },
      "totalSupply()": {
        "details": "See {IERC721Enumerable-totalSupply}."
      },
      "transferFrom(address,address,uint256)": {
        "details": "See {IERC721-transferFrom}."
      }
    },
    "version": 1
  },
  "userdoc": {
    "kind": "user",
    "methods": {},
    "version": 1
  }
}