{
  "contractName": "CryptoCar",
  "abi": [
    {
      "inputs": [
        {
          "internalType": "address",
          "name": "ledger",
          "type": "address"
        }
      ],
      "stateMutability": "nonpayable",
      "type": "constructor"
    },
    {
      "anonymous": false,
      "inputs": [
        {
          "indexed": false,
          "internalType": "string",
          "name": "message",
          "type": "string"
        },
        {
          "indexed": false,
          "internalType": "uint256",
          "name": "id",
          "type": "uint256"
        },
        {
          "indexed": false,
          "internalType": "string",
          "name": "model",
          "type": "string"
        }
      ],
      "name": "CarAdd",
      "type": "event"
    },
    {
      "anonymous": false,
      "inputs": [
        {
          "indexed": false,
          "internalType": "string",
          "name": "message",
          "type": "string"
        },
        {
          "indexed": false,
          "internalType": "uint256",
          "name": "tokenId",
          "type": "uint256"
        },
        {
          "indexed": false,
          "internalType": "address",
          "name": "to",
          "type": "address"
        }
      ],
      "name": "CarCreation",
      "type": "event"
    },
    {
      "anonymous": false,
      "inputs": [
        {
          "indexed": false,
          "internalType": "string",
          "name": "message",
          "type": "string"
        }
      ],
      "name": "Log",
      "type": "event"
    },
    {
      "anonymous": false,
      "inputs": [
        {
          "indexed": true,
          "internalType": "bytes32",
          "name": "role",
          "type": "bytes32"
        },
        {
          "indexed": true,
          "internalType": "bytes32",
          "name": "previousAdminRole",
          "type": "bytes32"
        },
        {
          "indexed": true,
          "internalType": "bytes32",
          "name": "newAdminRole",
          "type": "bytes32"
        }
      ],
      "name": "RoleAdminChanged",
      "type": "event"
    },
    {
      "anonymous": false,
      "inputs": [
        {
          "indexed": true,
          "internalType": "bytes32",
          "name": "role",
          "type": "bytes32"
        },
        {
          "indexed": true,
          "internalType": "address",
          "name": "account",
          "type": "address"
        },
        {
          "indexed": true,
          "internalType": "address",
          "name": "sender",
          "type": "address"
        }
      ],
      "name": "RoleGranted",
      "type": "event"
    },
    {
      "anonymous": false,
      "inputs": [
        {
          "indexed": true,
          "internalType": "bytes32",
          "name": "role",
          "type": "bytes32"
        },
        {
          "indexed": true,
          "internalType": "address",
          "name": "account",
          "type": "address"
        },
        {
          "indexed": true,
          "internalType": "address",
          "name": "sender",
          "type": "address"
        }
      ],
      "name": "RoleRevoked",
      "type": "event"
    },
    {
      "stateMutability": "payable",
      "type": "fallback"
    },
    {
      "inputs": [],
      "name": "DEALER_ROLE",
      "outputs": [
        {
          "internalType": "bytes32",
          "name": "",
          "type": "bytes32"
        }
      ],
      "stateMutability": "view",
      "type": "function"
    },
    {
      "inputs": [],
      "name": "DEFAULT_ADMIN_ROLE",
      "outputs": [
        {
          "internalType": "bytes32",
          "name": "",
          "type": "bytes32"
        }
      ],
      "stateMutability": "view",
      "type": "function"
    },
    {
      "inputs": [],
      "name": "MEC_ROLE",
      "outputs": [
        {
          "internalType": "bytes32",
          "name": "",
          "type": "bytes32"
        }
      ],
      "stateMutability": "view",
      "type": "function"
    },
    {
      "inputs": [
        {
          "internalType": "bytes32",
          "name": "role",
          "type": "bytes32"
        }
      ],
      "name": "getRoleAdmin",
      "outputs": [
        {
          "internalType": "bytes32",
          "name": "",
          "type": "bytes32"
        }
      ],
      "stateMutability": "view",
      "type": "function"
    },
    {
      "inputs": [
        {
          "internalType": "bytes32",
          "name": "role",
          "type": "bytes32"
        },
        {
          "internalType": "address",
          "name": "account",
          "type": "address"
        }
      ],
      "name": "grantRole",
      "outputs": [],
      "stateMutability": "nonpayable",
      "type": "function"
    },
    {
      "inputs": [
        {
          "internalType": "bytes32",
          "name": "role",
          "type": "bytes32"
        },
        {
          "internalType": "address",
          "name": "account",
          "type": "address"
        }
      ],
      "name": "hasRole",
      "outputs": [
        {
          "internalType": "bool",
          "name": "",
          "type": "bool"
        }
      ],
      "stateMutability": "view",
      "type": "function"
    },
    {
      "inputs": [
        {
          "internalType": "bytes32",
          "name": "role",
          "type": "bytes32"
        },
        {
          "internalType": "address",
          "name": "account",
          "type": "address"
        }
      ],
      "name": "renounceRole",
      "outputs": [],
      "stateMutability": "nonpayable",
      "type": "function"
    },
    {
      "inputs": [
        {
          "internalType": "bytes32",
          "name": "role",
          "type": "bytes32"
        },
        {
          "internalType": "address",
          "name": "account",
          "type": "address"
        }
      ],
      "name": "revokeRole",
      "outputs": [],
      "stateMutability": "nonpayable",
      "type": "function"
    },
    {
      "inputs": [
        {
          "internalType": "bytes4",
          "name": "interfaceId",
          "type": "bytes4"
        }
      ],
      "name": "supportsInterface",
      "outputs": [
        {
          "internalType": "bool",
          "name": "",
          "type": "bool"
        }
      ],
      "stateMutability": "view",
      "type": "function"
    },
    {
      "stateMutability": "payable",
      "type": "receive"
    },
    {
      "inputs": [
        {
          "internalType": "address",
          "name": "mec",
          "type": "address"
        }
      ],
      "name": "addMech",
      "outputs": [],
      "stateMutability": "nonpayable",
      "type": "function"
    },
    {
      "inputs": [
        {
          "internalType": "address",
          "name": "client",
          "type": "address"
        },
        {
          "internalType": "uint256",
          "name": "tokenId",
          "type": "uint256"
        },
        {
          "internalType": "uint32",
          "name": "_km",
          "type": "uint32"
        },
        {
          "internalType": "string",
          "name": "_operation",
          "type": "string"
        }
      ],
      "name": "insertServiceCustomer",
      "outputs": [
        {
          "internalType": "bool",
          "name": "",
          "type": "bool"
        }
      ],
      "stateMutability": "nonpayable",
      "type": "function"
    },
    {
      "inputs": [],
      "name": "getCarList",
      "outputs": [
        {
          "components": [
            {
              "internalType": "string",
              "name": "name",
              "type": "string"
            },
            {
              "internalType": "string",
              "name": "picture",
              "type": "string"
            },
            {
              "internalType": "string",
              "name": "age_production",
              "type": "string"
            },
            {
              "internalType": "string",
              "name": "model",
              "type": "string"
            },
            {
              "internalType": "string",
              "name": "staging",
              "type": "string"
            },
            {
              "internalType": "string",
              "name": "motor",
              "type": "string"
            },
            {
              "internalType": "string",
              "name": "power",
              "type": "string"
            },
            {
              "internalType": "string",
              "name": "optionals",
              "type": "string"
            },
            {
              "internalType": "string",
              "name": "url_info",
              "type": "string"
            },
            {
              "internalType": "bool",
              "name": "isSold",
              "type": "bool"
            },
            {
              "internalType": "bool",
              "name": "isSet",
              "type": "bool"
            },
            {
              "internalType": "uint256",
              "name": "price",
              "type": "uint256"
            },
            {
              "internalType": "uint256",
              "name": "tokenId",
              "type": "uint256"
            }
          ],
          "internalType": "struct CryptoCar.Info[]",
          "name": "",
          "type": "tuple[]"
        }
      ],
      "stateMutability": "view",
      "type": "function"
    },
    {
      "inputs": [
        {
          "internalType": "string",
          "name": "model",
          "type": "string"
        },
        {
          "internalType": "string",
          "name": "name",
          "type": "string"
        },
        {
          "internalType": "string",
          "name": "picture",
          "type": "string"
        },
        {
          "internalType": "string",
          "name": "age_prod",
          "type": "string"
        },
        {
          "internalType": "string",
          "name": "staging",
          "type": "string"
        },
        {
          "internalType": "string",
          "name": "motor",
          "type": "string"
        },
        {
          "internalType": "string",
          "name": "power",
          "type": "string"
        },
        {
          "internalType": "string",
          "name": "optionals",
          "type": "string"
        },
        {
          "internalType": "string",
          "name": "url_info",
          "type": "string"
        },
        {
          "internalType": "uint256",
          "name": "price",
          "type": "uint256"
        }
      ],
      "name": "addCar",
      "outputs": [
        {
          "internalType": "uint256",
          "name": "",
          "type": "uint256"
        }
      ],
      "stateMutability": "nonpayable",
      "type": "function"
    },
    {
      "inputs": [
        {
          "internalType": "uint256",
          "name": "idCar",
          "type": "uint256"
        }
      ],
      "name": "buyCar",
      "outputs": [
        {
          "internalType": "uint256",
          "name": "",
          "type": "uint256"
        }
      ],
      "stateMutability": "payable",
      "type": "function"
    },
    {
      "inputs": [],
      "name": "withdrow",
      "outputs": [],
      "stateMutability": "payable",
      "type": "function"
    }
  ],
  "bytecode": "0x60806040523480156200001157600080fd5b5060405162003db238038062003db2833981810160405281019062000037919062000741565b6001808190555033600360006101000a81548173ffffffffffffffffffffffffffffffffffffffff021916908373ffffffffffffffffffffffffffffffffffffffff160217905550620000b66000801b600360009054906101000a900473ffffffffffffffffffffffffffffffffffffffff16620001a660201b60201c565b6200010a7fcf75f067314df4d0527f2a9e12148d8bd7c8a3f7235b2171d24fa195d2c3ecb9600360009054906101000a900473ffffffffffffffffffffffffffffffffffffffff16620001bc60201b60201c565b6200015e7f2ec661f4dc1364cd2d7198905b94b6807bc2be6c423cf69e4b7c802f4eb1cf8a600360009054906101000a900473ffffffffffffffffffffffffffffffffffffffff16620001bc60201b60201c565b80600460006101000a81548173ffffffffffffffffffffffffffffffffffffffff021916908373ffffffffffffffffffffffffffffffffffffffff1602179055505062000b12565b620001b88282620001f560201b60201c565b5050565b620001cd82620002e660201b60201c565b620001de816200030560201b60201c565b620001f08383620001f560201b60201c565b505050565b6200020782826200032960201b60201c565b620002e257600160008084815260200190815260200160002060000160008373ffffffffffffffffffffffffffffffffffffffff1673ffffffffffffffffffffffffffffffffffffffff16815260200190815260200160002060006101000a81548160ff021916908315150217905550620002876200039360201b60201c565b73ffffffffffffffffffffffffffffffffffffffff168173ffffffffffffffffffffffffffffffffffffffff16837f2f8788117e7eff1d82e926ec794901d17c78024a50270940304540a733656f0d60405160405180910390a45b5050565b6000806000838152602001908152602001600020600101549050919050565b62000326816200031a6200039360201b60201c565b6200039b60201b60201c565b50565b600080600084815260200190815260200160002060000160008373ffffffffffffffffffffffffffffffffffffffff1673ffffffffffffffffffffffffffffffffffffffff16815260200190815260200160002060009054906101000a900460ff16905092915050565b600033905090565b620003ad82826200032960201b60201c565b6200044357620003c8816200044760201b620014921760201c565b620003e38360001c60206200047c60201b620014bf1760201c565b604051602001620003f69291906200088c565b6040516020818303038152906040526040517f08c379a00000000000000000000000000000000000000000000000000000000081526004016200043a919062000931565b60405180910390fd5b5050565b6060620004758273ffffffffffffffffffffffffffffffffffffffff16601460ff166200047c60201b60201c565b9050919050565b6060600060028360026200049191906200098e565b6200049d9190620009d9565b67ffffffffffffffff811115620004b957620004b862000a14565b5b6040519080825280601f01601f191660200182016040528015620004ec5781602001600182028036833780820191505090505b5090507f30000000000000000000000000000000000000000000000000000000000000008160008151811062000527576200052662000a43565b5b60200101907effffffffffffffffffffffffffffffffffffffffffffffffffffffffffffff1916908160001a9053507f7800000000000000000000000000000000000000000000000000000000000000816001815181106200058e576200058d62000a43565b5b60200101907effffffffffffffffffffffffffffffffffffffffffffffffffffffffffffff1916908160001a90535060006001846002620005d091906200098e565b620005dc9190620009d9565b90505b600181111562000686577f3031323334353637383961626364656600000000000000000000000000000000600f86166010811062000622576200062162000a43565b5b1a60f81b8282815181106200063c576200063b62000a43565b5b60200101907effffffffffffffffffffffffffffffffffffffffffffffffffffffffffffff1916908160001a905350600485901c9450806200067e9062000a72565b9050620005df565b5060008414620006cd576040517f08c379a0000000000000000000000000000000000000000000000000000000008152600401620006c49062000af0565b60405180910390fd5b8091505092915050565b600080fd5b600073ffffffffffffffffffffffffffffffffffffffff82169050919050565b60006200070982620006dc565b9050919050565b6200071b81620006fc565b81146200072757600080fd5b50565b6000815190506200073b8162000710565b92915050565b6000602082840312156200075a5762000759620006d7565b5b60006200076a848285016200072a565b91505092915050565b600081905092915050565b7f416363657373436f6e74726f6c3a206163636f756e7420000000000000000000600082015250565b6000620007b660178362000773565b9150620007c3826200077e565b601782019050919050565b600081519050919050565b60005b83811015620007f9578082015181840152602081019050620007dc565b60008484015250505050565b60006200081282620007ce565b6200081e818562000773565b935062000830818560208601620007d9565b80840191505092915050565b7f206973206d697373696e6720726f6c6520000000000000000000000000000000600082015250565b60006200087460118362000773565b915062000881826200083c565b601182019050919050565b60006200089982620007a7565b9150620008a7828562000805565b9150620008b48262000865565b9150620008c2828462000805565b91508190509392505050565b600082825260208201905092915050565b6000601f19601f8301169050919050565b6000620008fd82620007ce565b620009098185620008ce565b93506200091b818560208601620007d9565b6200092681620008df565b840191505092915050565b600060208201905081810360008301526200094d8184620008f0565b905092915050565b6000819050919050565b7f4e487b7100000000000000000000000000000000000000000000000000000000600052601160045260246000fd5b60006200099b8262000955565b9150620009a88362000955565b9250828202620009b88162000955565b91508282048414831517620009d257620009d16200095f565b5b5092915050565b6000620009e68262000955565b9150620009f38362000955565b925082820190508082111562000a0e5762000a0d6200095f565b5b92915050565b7f4e487b7100000000000000000000000000000000000000000000000000000000600052604160045260246000fd5b7f4e487b7100000000000000000000000000000000000000000000000000000000600052603260045260246000fd5b600062000a7f8262000955565b91506000820362000a955762000a946200095f565b5b600182039050919050565b7f537472696e67733a20686578206c656e67746820696e73756666696369656e74600082015250565b600062000ad8602083620008ce565b915062000ae58262000aa0565b602082019050919050565b6000602082019050818103600083015262000b0b8162000ac9565b9050919050565b6132908062000b226000396000f3fe6080604052600436106100ec5760003560e01c80633b8745211161008a578063a217fddf11610059578063a217fddf14610378578063d0adcdf6146103a3578063d547741f146103cc578063ee4db4e5146103f55761012b565b80633b874521146102d65780636c231060146102e057806391d1485414610310578063924f73071461034d5761012b565b8063248a9ca3116100c6578063248a9ca31461021c5780632f2ff15d1461025957806334d6ff4c1461028257806336568abe146102ad5761012b565b8063019727b41461016557806301ffc9a7146101a25780631b043d5d146101df5761012b565b3661012b577fcf34ef537ac33ee1ac626ca1587a0a7e8e51561e5514f8cb36afa1c5102b3bab60405161011e90611b32565b60405180910390a1600080fd5b7fcf34ef537ac33ee1ac626ca1587a0a7e8e51561e5514f8cb36afa1c5102b3bab60405161015890611b32565b60405180910390a1600080fd5b34801561017157600080fd5b5061018c60048036038101906101879190611d7c565b610420565b6040516101999190611e1a565b60405180910390f35b3480156101ae57600080fd5b506101c960048036038101906101c49190611e8d565b6104f3565b6040516101d69190611e1a565b60405180910390f35b3480156101eb57600080fd5b5061020660048036038101906102019190611eba565b61056d565b60405161021391906120a4565b60405180910390f35b34801561022857600080fd5b50610243600480360381019061023e91906120f5565b6107cf565b6040516102509190612131565b60405180910390f35b34801561026557600080fd5b50610280600480360381019061027b919061214c565b6107ee565b005b34801561028e57600080fd5b5061029761080f565b6040516102a49190612131565b60405180910390f35b3480156102b957600080fd5b506102d460048036038101906102cf919061214c565b610833565b005b6102de6108b6565b005b6102fa60048036038101906102f5919061218c565b6109df565b60405161030791906120a4565b60405180910390f35b34801561031c57600080fd5b506103376004803603810190610332919061214c565b610d26565b6040516103449190611e1a565b60405180910390f35b34801561035957600080fd5b50610362610d90565b60405161036f9190612469565b60405180910390f35b34801561038457600080fd5b5061038d61140b565b60405161039a9190612131565b60405180910390f35b3480156103af57600080fd5b506103ca60048036038101906103c5919061248b565b611412565b005b3480156103d857600080fd5b506103f360048036038101906103ee919061214c565b61144d565b005b34801561040157600080fd5b5061040a61146e565b6040516104179190612131565b60405180910390f35b60007f2ec661f4dc1364cd2d7198905b94b6807bc2be6c423cf69e4b7c802f4eb1cf8a61044c816116fb565b600460009054906101000a900473ffffffffffffffffffffffffffffffffffffffff1673ffffffffffffffffffffffffffffffffffffffff1663f94e4846878787876040518563ffffffff1660e01b81526004016104ad949392919061255b565b600060405180830381600087803b1580156104c757600080fd5b505af19250505080156104d8575060015b6104e557600091506104ea565b600191505b50949350505050565b60007f7965db0b000000000000000000000000000000000000000000000000000000007bffffffffffffffffffffffffffffffffffffffffffffffffffffffff1916827bffffffffffffffffffffffffffffffffffffffffffffffffffffffff1916148061056657506105658261170f565b5b9050919050565b60007fcf75f067314df4d0527f2a9e12148d8bd7c8a3f7235b2171d24fa195d2c3ecb9610599816116fb565b60006105a56002611779565b90508b6005600083815260200190815260200160002060000190816105ca91906127c6565b508a6005600083815260200190815260200160002060010190816105ee91906127c6565b508960056000838152602001908152602001600020600201908161061291906127c6565b508c60056000838152602001908152602001600020600301908161063691906127c6565b508860056000838152602001908152602001600020600401908161065a91906127c6565b508760056000838152602001908152602001600020600501908161067e91906127c6565b50866005600083815260200190815260200160002060060190816106a291906127c6565b50856005600083815260200190815260200160002060070190816106c691906127c6565b50846005600083815260200190815260200160002060080190816106ea91906127c6565b5060006005600083815260200190815260200160002060090160006101000a81548160ff02191690831515021790555060016005600083815260200190815260200160002060090160016101000a81548160ff0219169083151502179055508360056000838152602001908152602001600020600a01819055507fa2d35dc9e5e0643d5696463cc32d1c47dab8cff1343ea5f8ee70c9380fb7bc2281600560008481526020019081526020016000206003016040516107aa929190612968565b60405180910390a16107bc6002611787565b80925050509a9950505050505050505050565b6000806000838152602001908152602001600020600101549050919050565b6107f7826107cf565b610800816116fb565b61080a838361179d565b505050565b7fcf75f067314df4d0527f2a9e12148d8bd7c8a3f7235b2171d24fa195d2c3ecb981565b61083b61187d565b73ffffffffffffffffffffffffffffffffffffffff168173ffffffffffffffffffffffffffffffffffffffff16146108a8576040517f08c379a000000000000000000000000000000000000000000000000000000000815260040161089f90612a1d565b60405180910390fd5b6108b28282611885565b5050565b6000801b6108c3816116fb565b6108cb611966565b600047905060003373ffffffffffffffffffffffffffffffffffffffff16826040516108f690612a6e565b60006040518083038185875af1925050503d8060008114610933576040519150601f19603f3d011682016040523d82523d6000602084013e610938565b606091505b505090508061097c576040517f08c379a000000000000000000000000000000000000000000000000000000000815260040161097390612acf565b60405180910390fd5b7fcf34ef537ac33ee1ac626ca1587a0a7e8e51561e5514f8cb36afa1c5102b3bab826040516020016109ae9190612b67565b6040516020818303038152906040526040516109ca9190612b8d565b60405180910390a150506109dc6119b5565b50565b6000600115156005600084815260200190815260200160002060090160019054906101000a900460ff16151514610a4b576040517f08c379a0000000000000000000000000000000000000000000000000000000008152600401610a4290612bfb565b60405180910390fd5b600015156005600084815260200190815260200160002060090160009054906101000a900460ff16151514610ab5576040517f08c379a0000000000000000000000000000000000000000000000000000000008152600401610aac90612c67565b60405180910390fd5b60056000838152602001908152602001600020600a01543414610b0d576040517f08c379a0000000000000000000000000000000000000000000000000000000008152600401610b0490612cf9565b60405180910390fd5b600460009054906101000a900473ffffffffffffffffffffffffffffffffffffffff1673ffffffffffffffffffffffffffffffffffffffff16638492df013360056000868152602001908152602001600020600001600560008781526020019081526020016000206002016005600088815260200190815260200160002060030160056000898152602001908152602001600020600401600560008a8152602001908152602001600020600501600560008b8152602001908152602001600020600601600560008c8152602001908152602001600020600801600560008d81526020019081526020016000206007016040518a63ffffffff1660e01b8152600401610c2099989796959493929190612d19565b6020604051808303816000875af1925050508015610c5c57506040513d601f19601f82011682018060405250810190610c599190612df3565b60015b610c9a577fcf34ef537ac33ee1ac626ca1587a0a7e8e51561e5514f8cb36afa1c5102b3bab604051610c8d90612e92565b60405180910390a1600080fd5b60016005600085815260200190815260200160002060090160006101000a81548160ff0219169083151502179055508060056000858152602001908152602001600020600b01819055507f7f7dada9e0d2e0b68ea025179eeca3b34d40e60d5ff418726bc785f013b897ba8133604051610d15929190612efe565b60405180910390a180915050919050565b600080600084815260200190815260200160002060000160008373ffffffffffffffffffffffffffffffffffffffff1673ffffffffffffffffffffffffffffffffffffffff16815260200190815260200160002060009054906101000a900460ff16905092915050565b6060600080610d9f6002611779565b67ffffffffffffffff811115610db857610db7611c51565b5b604051908082528060200260200182016040528015610df157816020015b610dde611a43565b815260200190600190039081610dd65790505b50905060005b610e016002611779565b81101561140257600115156005600083815260200190815260200160002060090160019054906101000a900460ff161515036113ef5760056000828152602001908152602001600020604051806101a0016040529081600082018054610e66906125e9565b80601f0160208091040260200160405190810160405280929190818152602001828054610e92906125e9565b8015610edf5780601f10610eb457610100808354040283529160200191610edf565b820191906000526020600020905b815481529060010190602001808311610ec257829003601f168201915b50505050508152602001600182018054610ef8906125e9565b80601f0160208091040260200160405190810160405280929190818152602001828054610f24906125e9565b8015610f715780601f10610f4657610100808354040283529160200191610f71565b820191906000526020600020905b815481529060010190602001808311610f5457829003601f168201915b50505050508152602001600282018054610f8a906125e9565b80601f0160208091040260200160405190810160405280929190818152602001828054610fb6906125e9565b80156110035780601f10610fd857610100808354040283529160200191611003565b820191906000526020600020905b815481529060010190602001808311610fe657829003601f168201915b5050505050815260200160038201805461101c906125e9565b80601f0160208091040260200160405190810160405280929190818152602001828054611048906125e9565b80156110955780601f1061106a57610100808354040283529160200191611095565b820191906000526020600020905b81548152906001019060200180831161107857829003601f168201915b505050505081526020016004820180546110ae906125e9565b80601f01602080910402602001604051908101604052809291908181526020018280546110da906125e9565b80156111275780601f106110fc57610100808354040283529160200191611127565b820191906000526020600020905b81548152906001019060200180831161110a57829003601f168201915b50505050508152602001600582018054611140906125e9565b80601f016020809104026020016040519081016040528092919081815260200182805461116c906125e9565b80156111b95780601f1061118e576101008083540402835291602001916111b9565b820191906000526020600020905b81548152906001019060200180831161119c57829003601f168201915b505050505081526020016006820180546111d2906125e9565b80601f01602080910402602001604051908101604052809291908181526020018280546111fe906125e9565b801561124b5780601f106112205761010080835404028352916020019161124b565b820191906000526020600020905b81548152906001019060200180831161122e57829003601f168201915b50505050508152602001600782018054611264906125e9565b80601f0160208091040260200160405190810160405280929190818152602001828054611290906125e9565b80156112dd5780601f106112b2576101008083540402835291602001916112dd565b820191906000526020600020905b8154815290600101906020018083116112c057829003601f168201915b505050505081526020016008820180546112f6906125e9565b80601f0160208091040260200160405190810160405280929190818152602001828054611322906125e9565b801561136f5780601f106113445761010080835404028352916020019161136f565b820191906000526020600020905b81548152906001019060200180831161135257829003601f168201915b505050505081526020016009820160009054906101000a900460ff161515151581526020016009820160019054906101000a900460ff16151515158152602001600a8201548152602001600b820154815250508284815181106113d5576113d4612f3a565b5b602002602001018190525082806113eb90612f98565b9350505b80806113fa90612f98565b915050610df7565b50809250505090565b6000801b81565b6000801b61141f816116fb565b6114497f2ec661f4dc1364cd2d7198905b94b6807bc2be6c423cf69e4b7c802f4eb1cf8a8361179d565b5050565b611456826107cf565b61145f816116fb565b6114698383611885565b505050565b7f2ec661f4dc1364cd2d7198905b94b6807bc2be6c423cf69e4b7c802f4eb1cf8a81565b60606114b88273ffffffffffffffffffffffffffffffffffffffff16601460ff166114bf565b9050919050565b6060600060028360026114d29190612fe0565b6114dc9190613022565b67ffffffffffffffff8111156114f5576114f4611c51565b5b6040519080825280601f01601f1916602001820160405280156115275781602001600182028036833780820191505090505b5090507f30000000000000000000000000000000000000000000000000000000000000008160008151811061155f5761155e612f3a565b5b60200101907effffffffffffffffffffffffffffffffffffffffffffffffffffffffffffff1916908160001a9053507f7800000000000000000000000000000000000000000000000000000000000000816001815181106115c3576115c2612f3a565b5b60200101907effffffffffffffffffffffffffffffffffffffffffffffffffffffffffffff1916908160001a905350600060018460026116039190612fe0565b61160d9190613022565b90505b60018111156116ad577f3031323334353637383961626364656600000000000000000000000000000000600f86166010811061164f5761164e612f3a565b5b1a60f81b82828151811061166657611665612f3a565b5b60200101907effffffffffffffffffffffffffffffffffffffffffffffffffffffffffffff1916908160001a905350600485901c9450806116a690613056565b9050611610565b50600084146116f1576040517f08c379a00000000000000000000000000000000000000000000000000000000081526004016116e8906130cb565b60405180910390fd5b8091505092915050565b61170c8161170761187d565b6119be565b50565b60007f01ffc9a7000000000000000000000000000000000000000000000000000000007bffffffffffffffffffffffffffffffffffffffffffffffffffffffff1916827bffffffffffffffffffffffffffffffffffffffffffffffffffffffff1916149050919050565b600081600001549050919050565b6001816000016000828254019250508190555050565b6117a78282610d26565b61187957600160008084815260200190815260200160002060000160008373ffffffffffffffffffffffffffffffffffffffff1673ffffffffffffffffffffffffffffffffffffffff16815260200190815260200160002060006101000a81548160ff02191690831515021790555061181e61187d565b73ffffffffffffffffffffffffffffffffffffffff168173ffffffffffffffffffffffffffffffffffffffff16837f2f8788117e7eff1d82e926ec794901d17c78024a50270940304540a733656f0d60405160405180910390a45b5050565b600033905090565b61188f8282610d26565b1561196257600080600084815260200190815260200160002060000160008373ffffffffffffffffffffffffffffffffffffffff1673ffffffffffffffffffffffffffffffffffffffff16815260200190815260200160002060006101000a81548160ff02191690831515021790555061190761187d565b73ffffffffffffffffffffffffffffffffffffffff168173ffffffffffffffffffffffffffffffffffffffff16837ff6391f5c32d9c69d2a47ea670b442974b53935d1edc7fd64eb21e047a839171b60405160405180910390a45b5050565b6002600154036119ab576040517f08c379a00000000000000000000000000000000000000000000000000000000081526004016119a290613137565b60405180910390fd5b6002600181905550565b60018081905550565b6119c88282610d26565b611a3f576119d581611492565b6119e38360001c60206114bf565b6040516020016119f4929190613220565b6040516020818303038152906040526040517f08c379a0000000000000000000000000000000000000000000000000000000008152600401611a369190612b8d565b60405180910390fd5b5050565b604051806101a0016040528060608152602001606081526020016060815260200160608152602001606081526020016060815260200160608152602001606081526020016060815260200160001515815260200160001515815260200160008152602001600081525090565b600082825260208201905092915050565b7f526576657274696e67202e2e2e74727920746f2062757920612063617220667260008201527f6f6d206f6e65206f66206f75722073746f726500000000000000000000000000602082015250565b6000611b1c603383611aaf565b9150611b2782611ac0565b604082019050919050565b60006020820190508181036000830152611b4b81611b0f565b9050919050565b6000604051905090565b600080fd5b600080fd5b600073ffffffffffffffffffffffffffffffffffffffff82169050919050565b6000611b9182611b66565b9050919050565b611ba181611b86565b8114611bac57600080fd5b50565b600081359050611bbe81611b98565b92915050565b6000819050919050565b611bd781611bc4565b8114611be257600080fd5b50565b600081359050611bf481611bce565b92915050565b600063ffffffff82169050919050565b611c1381611bfa565b8114611c1e57600080fd5b50565b600081359050611c3081611c0a565b92915050565b600080fd5b600080fd5b6000601f19601f8301169050919050565b7f4e487b7100000000000000000000000000000000000000000000000000000000600052604160045260246000fd5b611c8982611c40565b810181811067ffffffffffffffff82111715611ca857611ca7611c51565b5b80604052505050565b6000611cbb611b52565b9050611cc78282611c80565b919050565b600067ffffffffffffffff821115611ce757611ce6611c51565b5b611cf082611c40565b9050602081019050919050565b82818337600083830152505050565b6000611d1f611d1a84611ccc565b611cb1565b905082815260208101848484011115611d3b57611d3a611c3b565b5b611d46848285611cfd565b509392505050565b600082601f830112611d6357611d62611c36565b5b8135611d73848260208601611d0c565b91505092915050565b60008060008060808587031215611d9657611d95611b5c565b5b6000611da487828801611baf565b9450506020611db587828801611be5565b9350506040611dc687828801611c21565b925050606085013567ffffffffffffffff811115611de757611de6611b61565b5b611df387828801611d4e565b91505092959194509250565b60008115159050919050565b611e1481611dff565b82525050565b6000602082019050611e2f6000830184611e0b565b92915050565b60007fffffffff0000000000000000000000000000000000000000000000000000000082169050919050565b611e6a81611e35565b8114611e7557600080fd5b50565b600081359050611e8781611e61565b92915050565b600060208284031215611ea357611ea2611b5c565b5b6000611eb184828501611e78565b91505092915050565b6000806000806000806000806000806101408b8d031215611ede57611edd611b5c565b5b60008b013567ffffffffffffffff811115611efc57611efb611b61565b5b611f088d828e01611d4e565b9a505060208b013567ffffffffffffffff811115611f2957611f28611b61565b5b611f358d828e01611d4e565b99505060408b013567ffffffffffffffff811115611f5657611f55611b61565b5b611f628d828e01611d4e565b98505060608b013567ffffffffffffffff811115611f8357611f82611b61565b5b611f8f8d828e01611d4e565b97505060808b013567ffffffffffffffff811115611fb057611faf611b61565b5b611fbc8d828e01611d4e565b96505060a08b013567ffffffffffffffff811115611fdd57611fdc611b61565b5b611fe98d828e01611d4e565b95505060c08b013567ffffffffffffffff81111561200a57612009611b61565b5b6120168d828e01611d4e565b94505060e08b013567ffffffffffffffff81111561203757612036611b61565b5b6120438d828e01611d4e565b9350506101008b013567ffffffffffffffff81111561206557612064611b61565b5b6120718d828e01611d4e565b9250506101206120838d828e01611be5565b9150509295989b9194979a5092959850565b61209e81611bc4565b82525050565b60006020820190506120b96000830184612095565b92915050565b6000819050919050565b6120d2816120bf565b81146120dd57600080fd5b50565b6000813590506120ef816120c9565b92915050565b60006020828403121561210b5761210a611b5c565b5b6000612119848285016120e0565b91505092915050565b61212b816120bf565b82525050565b60006020820190506121466000830184612122565b92915050565b6000806040838503121561216357612162611b5c565b5b6000612171858286016120e0565b925050602061218285828601611baf565b9150509250929050565b6000602082840312156121a2576121a1611b5c565b5b60006121b084828501611be5565b91505092915050565b600081519050919050565b600082825260208201905092915050565b6000819050602082019050919050565b600081519050919050565b600082825260208201905092915050565b60005b8381101561221f578082015181840152602081019050612204565b60008484015250505050565b6000612236826121e5565b61224081856121f0565b9350612250818560208601612201565b61225981611c40565b840191505092915050565b61226d81611dff565b82525050565b61227c81611bc4565b82525050565b60006101a08301600083015184820360008601526122a0828261222b565b915050602083015184820360208601526122ba828261222b565b915050604083015184820360408601526122d4828261222b565b915050606083015184820360608601526122ee828261222b565b91505060808301518482036080860152612308828261222b565b91505060a083015184820360a0860152612322828261222b565b91505060c083015184820360c086015261233c828261222b565b91505060e083015184820360e0860152612356828261222b565b915050610100830151848203610100860152612372828261222b565b915050610120830151612389610120860182612264565b5061014083015161239e610140860182612264565b506101608301516123b3610160860182612273565b506101808301516123c8610180860182612273565b508091505092915050565b60006123df8383612282565b905092915050565b6000602082019050919050565b60006123ff826121b9565b61240981856121c4565b93508360208202850161241b856121d5565b8060005b85811015612457578484038952815161243885826123d3565b9450612443836123e7565b925060208a0199505060018101905061241f565b50829750879550505050505092915050565b6000602082019050818103600083015261248381846123f4565b905092915050565b6000602082840312156124a1576124a0611b5c565b5b60006124af84828501611baf565b91505092915050565b6124c181611b86565b82525050565b6124d081611bfa565b82525050565b60006124e1826121e5565b6124eb8185611aaf565b93506124fb818560208601612201565b61250481611c40565b840191505092915050565b7f43727970746f4361720000000000000000000000000000000000000000000000600082015250565b6000612545600983611aaf565b91506125508261250f565b602082019050919050565b600060a08201905061257060008301876124b8565b61257d6020830186612095565b61258a60408301856124c7565b818103606083015261259c81846124d6565b905081810360808301526125af81612538565b905095945050505050565b7f4e487b7100000000000000000000000000000000000000000000000000000000600052602260045260246000fd5b6000600282049050600182168061260157607f821691505b602082108103612614576126136125ba565b5b50919050565b60008190508160005260206000209050919050565b60006020601f8301049050919050565b600082821b905092915050565b60006008830261267c7fffffffffffffffffffffffffffffffffffffffffffffffffffffffffffffffff8261263f565b612686868361263f565b95508019841693508086168417925050509392505050565b6000819050919050565b60006126c36126be6126b984611bc4565b61269e565b611bc4565b9050919050565b6000819050919050565b6126dd836126a8565b6126f16126e9826126ca565b84845461264c565b825550505050565b600090565b6127066126f9565b6127118184846126d4565b505050565b5b818110156127355761272a6000826126fe565b600181019050612717565b5050565b601f82111561277a5761274b8161261a565b6127548461262f565b81016020851015612763578190505b61277761276f8561262f565b830182612716565b50505b505050565b600082821c905092915050565b600061279d6000198460080261277f565b1980831691505092915050565b60006127b6838361278c565b9150826002028217905092915050565b6127cf826121e5565b67ffffffffffffffff8111156127e8576127e7611c51565b5b6127f282546125e9565b6127fd828285612739565b600060209050601f831160018114612830576000841561281e578287015190505b61282885826127aa565b865550612890565b601f19841661283e8661261a565b60005b8281101561286657848901518255600182019150602085019450602081019050612841565b86831015612883578489015161287f601f89168261278c565b8355505b6001600288020188555050505b505050505050565b7f4e657720636172206a6f696e656420746f20746865206c697374000000000000600082015250565b60006128ce601a83611aaf565b91506128d982612898565b602082019050919050565b600081546128f1816125e9565b6128fb8186611aaf565b94506001821660008114612916576001811461292c5761295f565b60ff19831686528115156020028601935061295f565b6129358561261a565b60005b8381101561295757815481890152600182019150602081019050612938565b808801955050505b50505092915050565b60006060820190508181036000830152612981816128c1565b90506129906020830185612095565b81810360408301526129a281846128e4565b90509392505050565b7f416363657373436f6e74726f6c3a2063616e206f6e6c792072656e6f756e636560008201527f20726f6c657320666f722073656c660000000000000000000000000000000000602082015250565b6000612a07602f83611aaf565b9150612a12826129ab565b604082019050919050565b60006020820190508181036000830152612a36816129fa565b9050919050565b600081905092915050565b50565b6000612a58600083612a3d565b9150612a6382612a48565b600082019050919050565b6000612a7982612a4b565b9150819050919050565b7f4661696c6564207769746864726f772045746865720000000000000000000000600082015250565b6000612ab9601583611aaf565b9150612ac482612a83565b602082019050919050565b60006020820190508181036000830152612ae881612aac565b9050919050565b600081905092915050565b7f5769746864726f772068617070656e203a200000000000000000000000000000600082015250565b6000612b30601283612aef565b9150612b3b82612afa565b601282019050919050565b6000819050919050565b612b61612b5c82611bc4565b612b46565b82525050565b6000612b7282612b23565b9150612b7e8284612b50565b60208201915081905092915050565b60006020820190508181036000830152612ba781846124d6565b905092915050565b7f5468652063617220646f65736e27742065786973747300000000000000000000600082015250565b6000612be5601683611aaf565b9150612bf082612baf565b602082019050919050565b60006020820190508181036000830152612c1481612bd8565b9050919050565b7f416c726561647920736f6c640000000000000000000000000000000000000000600082015250565b6000612c51600c83611aaf565b9150612c5c82612c1b565b602082019050919050565b60006020820190508181036000830152612c8081612c44565b9050919050565b7f496e73756666696369656e74206f72206e6f7420636f72726563742066756e6460008201527f7300000000000000000000000000000000000000000000000000000000000000602082015250565b6000612ce3602183611aaf565b9150612cee82612c87565b604082019050919050565b60006020820190508181036000830152612d1281612cd6565b9050919050565b600061012082019050612d2f600083018c6124b8565b8181036020830152612d41818b6128e4565b90508181036040830152612d55818a6128e4565b90508181036060830152612d6981896128e4565b90508181036080830152612d7d81886128e4565b905081810360a0830152612d9181876128e4565b905081810360c0830152612da581866128e4565b905081810360e0830152612db981856128e4565b9050818103610100830152612dce81846128e4565b90509a9950505050505050505050565b600081519050612ded81611bce565b92915050565b600060208284031215612e0957612e08611b5c565b5b6000612e1784828501612dde565b91505092915050565b7f416e206572726f72206f63637572656420647572696e6720636172206372656160008201527f74696f6e00000000000000000000000000000000000000000000000000000000602082015250565b6000612e7c602483611aaf565b9150612e8782612e20565b604082019050919050565b60006020820190508181036000830152612eab81612e6f565b9050919050565b7f4361722063726561746564000000000000000000000000000000000000000000600082015250565b6000612ee8600b83611aaf565b9150612ef382612eb2565b602082019050919050565b60006060820190508181036000830152612f1781612edb565b9050612f266020830185612095565b612f3360408301846124b8565b9392505050565b7f4e487b7100000000000000000000000000000000000000000000000000000000600052603260045260246000fd5b7f4e487b7100000000000000000000000000000000000000000000000000000000600052601160045260246000fd5b6000612fa382611bc4565b91507fffffffffffffffffffffffffffffffffffffffffffffffffffffffffffffffff8203612fd557612fd4612f69565b5b600182019050919050565b6000612feb82611bc4565b9150612ff683611bc4565b925082820261300481611bc4565b9150828204841483151761301b5761301a612f69565b5b5092915050565b600061302d82611bc4565b915061303883611bc4565b92508282019050808211156130505761304f612f69565b5b92915050565b600061306182611bc4565b91506000820361307457613073612f69565b5b600182039050919050565b7f537472696e67733a20686578206c656e67746820696e73756666696369656e74600082015250565b60006130b5602083611aaf565b91506130c08261307f565b602082019050919050565b600060208201905081810360008301526130e4816130a8565b9050919050565b7f5265656e7472616e637947756172643a207265656e7472616e742063616c6c00600082015250565b6000613121601f83611aaf565b915061312c826130eb565b602082019050919050565b6000602082019050818103600083015261315081613114565b9050919050565b7f416363657373436f6e74726f6c3a206163636f756e7420000000000000000000600082015250565b600061318d601783612aef565b915061319882613157565b601782019050919050565b60006131ae826121e5565b6131b88185612aef565b93506131c8818560208601612201565b80840191505092915050565b7f206973206d697373696e6720726f6c6520000000000000000000000000000000600082015250565b600061320a601183612aef565b9150613215826131d4565b601182019050919050565b600061322b82613180565b915061323782856131a3565b9150613242826131fd565b915061324e82846131a3565b9150819050939250505056fea264697066735822122005f53bada7f6078776ea113a18d102caf7fc5e4af87a30564673920bcb606c2d64736f6c63430008110033",
  "immutableReferences": {},
  "source": "// SPDX-License-Identifier: MIT\npragma solidity ^0.8.9;\n\nimport \"@openzeppelin/contracts/access/AccessControl.sol\";\nimport \"@openzeppelin/contracts/utils/Counters.sol\";\nimport \"@openzeppelin/contracts/security/ReentrancyGuard.sol\";\n\n\ninterface ICarLedger {\n\n\tfunction createCar(address to ,string memory _name,string memory _age_production, string memory _model,string memory _staging, string memory _motor, string memory _power, string memory _url_info, string memory _optionals  )  external returns (uint256); \n\n\tfunction addDealer(address dealer) external;\n\n\tfunction addService(address client, uint256 tokenId, uint32 _km, string memory _operation, string memory _office) external;\n\n\tfunction addStation(address serv) external;  \n\n}\n\ncontract CryptoCar is AccessControl, ReentrancyGuard {\n\t using Counters for Counters.Counter; \n\n    Counters.Counter private _tokenIdCounter;\n\n\tevent Log(string message);\n\tevent CarCreation( string message, uint256 tokenId, address to); \n\tevent CarAdd( string message, uint256 id, string model); \n\n\tbytes32 public constant DEALER_ROLE = keccak256(\"DEALER_ROLE\");\n    bytes32 public constant MEC_ROLE = keccak256(\"MEC_ROLE\");\n\n\taddress payable private _owner;  \n\tICarLedger private carLedger; \n\n\tstruct Info { \n\n\t\tstring name;\n\t\tstring picture; \n        string age_production; \n\t\tstring model;\n\t\tstring staging; \n\t\tstring motor;\n\t\tstring power;  \n        string optionals; \n        string url_info; \n        bool isSold;\n\t\tbool isSet;\n\t\tuint256 price; //wei\n\t\tuint256 tokenId;    \n    }\n\n\tmapping(uint256 => Info) private list;\n\n\tconstructor( address ledger ){\n\n\t\t_owner =payable (msg.sender);\n\t\t_setupRole(DEFAULT_ADMIN_ROLE, _owner);\n\t\tgrantRole(DEALER_ROLE, _owner);\n\t\tgrantRole(MEC_ROLE, _owner);\n\t\tcarLedger = ICarLedger(ledger);\n\n\t}\n\n\tfunction addMech(address mec) public onlyRole(DEFAULT_ADMIN_ROLE) {\n        _grantRole(MEC_ROLE, mec);\n    }\n\n\tfunction insertServiceCustomer(address client, uint256 tokenId, uint32 _km, string memory _operation) public onlyRole(MEC_ROLE) returns (bool)  {\n\n\t\ttry\tcarLedger.addService(client, tokenId, _km, _operation, \"CryptoCar\")\n\t\t{\n\t\t\treturn true; \n\t\t\n\t\t}catch \n\t\t{\n\t\t\treturn false;\n\t\t} \n\t}\n\n\tfunction getCarList() public view returns( Info[] memory){\n\t\t\n\t\tuint j  = 0; \n\t\tInfo[] memory cars = new Info[](_tokenIdCounter.current());\n    \tfor (uint i = 0; i < _tokenIdCounter.current(); i++) {\n        \t\n\t\t\tif(list[i].isSet == true)\n\t\t\t{\t\n\t\t\t\tcars[j] = list[i];\n\t\t\t\tj++; \n\t\t\t}\n    }\n\n    \treturn cars; \n\t}\n\n\tfunction addCar(string memory model, string memory name, string memory picture, string memory age_prod, string memory staging, string memory motor, string memory power, string memory optionals, string memory url_info, uint256 price) external onlyRole(DEALER_ROLE) returns (uint256) {\n\n\t\tuint256 Id = _tokenIdCounter.current(); \n\t\tlist[Id].name = name; \n\t\tlist[Id].picture = picture;\n\t\tlist[Id].age_production = age_prod; \n\t\tlist[Id].model = model;\n\t\tlist[Id].staging = staging;\n\t\tlist[Id].motor = motor;\n\t\tlist[Id].power = power;\n\t\tlist[Id].optionals = optionals;\n\t\tlist[Id].url_info = url_info;\n\t\tlist[Id].isSold = false;\n\t\tlist[Id].isSet = true;\n\t\tlist[Id].price = price; \n\t\temit CarAdd(\"New car joined to the list\", Id, list[Id].model);\n\t\t_tokenIdCounter.increment();\n\t\treturn Id; \n\t}    \n \n\n\tfunction buyCar( uint256 idCar ) public payable returns (uint)  {\n\n\t\trequire(list[idCar].isSet == true , \"The car doesn't exists\");\n\t\trequire(list[idCar].isSold == false ,\"Already sold\");\n\t\trequire(msg.value == list[idCar].price , \"Insufficient or not correct funds\" ); \n\t\ttry carLedger.createCar(msg.sender,list[idCar].name,list[idCar].age_production, list[idCar].model, list[idCar].staging, list[idCar].motor,list[idCar].power, list[idCar].url_info, list[idCar].optionals) returns(uint256 carId)\n\t\t{\n\t\t\tlist[idCar].isSold = true;\n\t\t\tlist[idCar].tokenId = carId;\n\t\t\temit CarCreation(\"Car created\", carId, msg.sender);\n\t\t\treturn carId;\n\n\t\t}catch\n\t\t{\n\t\t\temit Log(\"An error occured during car creation\");\n\t\t\trevert();\n\t\t}\n\t}\n\n\tfunction withdrow() external payable onlyRole(DEFAULT_ADMIN_ROLE) nonReentrant()  {\n\n\t\tuint256 balance = address(this).balance;\n\t\t(bool sent,) = msg.sender.call{value: balance}(\"\");\n        require(sent, \"Failed withdrow Ether\");\n\t\temit Log( string(abi.encodePacked(\"Withdrow happen : \", balance)) );\n\n\t}\n\n\treceive() external payable{\n\n\t\temit Log(\"Reverting ...try to buy a car from one of our store\");\n\t\trevert();\n\n\t}\n\tfallback() external payable{\n\n\t\temit Log(\"Reverting ...try to buy a car from one of our store\");\n\t\trevert();\n\n\t}\n\n\t\n\n\n\n\t\n\n}\n",
  "sourcePath": "D:\\ethCar\\contracts\\CryptoCar.sol",
  "compiler": {
    "name": "solc",
    "version": "0.8.17+commit.8df45f5f.Emscripten.clang"
  },
  "schemaVersion": "3.4.11",
  "updatedAt": "2023-02-10T14:35:48.871Z",
  "devdoc": {
    "kind": "dev",
    "methods": {
      "getRoleAdmin(bytes32)": {
        "details": "Returns the admin role that controls `role`. See {grantRole} and {revokeRole}. To change a role's admin, use {_setRoleAdmin}."
      },
      "grantRole(bytes32,address)": {
        "details": "Grants `role` to `account`. If `account` had not been already granted `role`, emits a {RoleGranted} event. Requirements: - the caller must have ``role``'s admin role. May emit a {RoleGranted} event."
      },
      "hasRole(bytes32,address)": {
        "details": "Returns `true` if `account` has been granted `role`."
      },
      "renounceRole(bytes32,address)": {
        "details": "Revokes `role` from the calling account. Roles are often managed via {grantRole} and {revokeRole}: this function's purpose is to provide a mechanism for accounts to lose their privileges if they are compromised (such as when a trusted device is misplaced). If the calling account had been revoked `role`, emits a {RoleRevoked} event. Requirements: - the caller must be `account`. May emit a {RoleRevoked} event."
      },
      "revokeRole(bytes32,address)": {
        "details": "Revokes `role` from `account`. If `account` had been granted `role`, emits a {RoleRevoked} event. Requirements: - the caller must have ``role``'s admin role. May emit a {RoleRevoked} event."
      },
      "supportsInterface(bytes4)": {
        "details": "See {IERC165-supportsInterface}."
      }
    },
    "version": 1
  },
  "userdoc": {
    "kind": "user",
    "methods": {},
    "version": 1
  }
}