{
  "contractName": "CryptoCar",
  "abi": [
    {
      "inputs": [
        {
          "internalType": "address",
          "name": "ledger",
          "type": "address"
        }
      ],
      "stateMutability": "nonpayable",
      "type": "constructor"
    },
    {
      "anonymous": false,
      "inputs": [
        {
          "indexed": false,
          "internalType": "string",
          "name": "message",
          "type": "string"
        },
        {
          "indexed": false,
          "internalType": "string",
          "name": "id",
          "type": "string"
        },
        {
          "indexed": false,
          "internalType": "string",
          "name": "model",
          "type": "string"
        }
      ],
      "name": "CarAdd",
      "type": "event"
    },
    {
      "anonymous": false,
      "inputs": [
        {
          "indexed": false,
          "internalType": "string",
          "name": "message",
          "type": "string"
        },
        {
          "indexed": false,
          "internalType": "string",
          "name": "tokenId",
          "type": "string"
        },
        {
          "indexed": false,
          "internalType": "address",
          "name": "to",
          "type": "address"
        }
      ],
      "name": "CarCreation",
      "type": "event"
    },
    {
      "anonymous": false,
      "inputs": [
        {
          "indexed": false,
          "internalType": "string",
          "name": "message",
          "type": "string"
        }
      ],
      "name": "Log",
      "type": "event"
    },
    {
      "anonymous": false,
      "inputs": [
        {
          "indexed": true,
          "internalType": "bytes32",
          "name": "role",
          "type": "bytes32"
        },
        {
          "indexed": true,
          "internalType": "bytes32",
          "name": "previousAdminRole",
          "type": "bytes32"
        },
        {
          "indexed": true,
          "internalType": "bytes32",
          "name": "newAdminRole",
          "type": "bytes32"
        }
      ],
      "name": "RoleAdminChanged",
      "type": "event"
    },
    {
      "anonymous": false,
      "inputs": [
        {
          "indexed": true,
          "internalType": "bytes32",
          "name": "role",
          "type": "bytes32"
        },
        {
          "indexed": true,
          "internalType": "address",
          "name": "account",
          "type": "address"
        },
        {
          "indexed": true,
          "internalType": "address",
          "name": "sender",
          "type": "address"
        }
      ],
      "name": "RoleGranted",
      "type": "event"
    },
    {
      "anonymous": false,
      "inputs": [
        {
          "indexed": true,
          "internalType": "bytes32",
          "name": "role",
          "type": "bytes32"
        },
        {
          "indexed": true,
          "internalType": "address",
          "name": "account",
          "type": "address"
        },
        {
          "indexed": true,
          "internalType": "address",
          "name": "sender",
          "type": "address"
        }
      ],
      "name": "RoleRevoked",
      "type": "event"
    },
    {
      "stateMutability": "payable",
      "type": "fallback",
      "payable": true
    },
    {
      "inputs": [],
      "name": "DEALER_ROLE",
      "outputs": [
        {
          "internalType": "bytes32",
          "name": "",
          "type": "bytes32"
        }
      ],
      "stateMutability": "view",
      "type": "function",
      "constant": true
    },
    {
      "inputs": [],
      "name": "DEFAULT_ADMIN_ROLE",
      "outputs": [
        {
          "internalType": "bytes32",
          "name": "",
          "type": "bytes32"
        }
      ],
      "stateMutability": "view",
      "type": "function",
      "constant": true
    },
    {
      "inputs": [],
      "name": "MEC_ROLE",
      "outputs": [
        {
          "internalType": "bytes32",
          "name": "",
          "type": "bytes32"
        }
      ],
      "stateMutability": "view",
      "type": "function",
      "constant": true
    },
    {
      "inputs": [
        {
          "internalType": "bytes32",
          "name": "role",
          "type": "bytes32"
        }
      ],
      "name": "getRoleAdmin",
      "outputs": [
        {
          "internalType": "bytes32",
          "name": "",
          "type": "bytes32"
        }
      ],
      "stateMutability": "view",
      "type": "function",
      "constant": true
    },
    {
      "inputs": [
        {
          "internalType": "bytes32",
          "name": "role",
          "type": "bytes32"
        },
        {
          "internalType": "address",
          "name": "account",
          "type": "address"
        }
      ],
      "name": "grantRole",
      "outputs": [],
      "stateMutability": "nonpayable",
      "type": "function"
    },
    {
      "inputs": [
        {
          "internalType": "bytes32",
          "name": "role",
          "type": "bytes32"
        },
        {
          "internalType": "address",
          "name": "account",
          "type": "address"
        }
      ],
      "name": "hasRole",
      "outputs": [
        {
          "internalType": "bool",
          "name": "",
          "type": "bool"
        }
      ],
      "stateMutability": "view",
      "type": "function",
      "constant": true
    },
    {
      "inputs": [
        {
          "internalType": "bytes32",
          "name": "role",
          "type": "bytes32"
        },
        {
          "internalType": "address",
          "name": "account",
          "type": "address"
        }
      ],
      "name": "renounceRole",
      "outputs": [],
      "stateMutability": "nonpayable",
      "type": "function"
    },
    {
      "inputs": [
        {
          "internalType": "bytes32",
          "name": "role",
          "type": "bytes32"
        },
        {
          "internalType": "address",
          "name": "account",
          "type": "address"
        }
      ],
      "name": "revokeRole",
      "outputs": [],
      "stateMutability": "nonpayable",
      "type": "function"
    },
    {
      "inputs": [
        {
          "internalType": "bytes4",
          "name": "interfaceId",
          "type": "bytes4"
        }
      ],
      "name": "supportsInterface",
      "outputs": [
        {
          "internalType": "bool",
          "name": "",
          "type": "bool"
        }
      ],
      "stateMutability": "view",
      "type": "function",
      "constant": true
    },
    {
      "stateMutability": "payable",
      "type": "receive",
      "payable": true
    },
    {
      "inputs": [
        {
          "internalType": "address",
          "name": "mec",
          "type": "address"
        }
      ],
      "name": "addMech",
      "outputs": [],
      "stateMutability": "nonpayable",
      "type": "function"
    },
    {
      "inputs": [
        {
          "internalType": "uint256",
          "name": "tokenId",
          "type": "uint256"
        },
        {
          "internalType": "uint32",
          "name": "_km",
          "type": "uint32"
        },
        {
          "internalType": "string",
          "name": "_operation",
          "type": "string"
        }
      ],
      "name": "insertServiceCustomer",
      "outputs": [
        {
          "internalType": "bool",
          "name": "",
          "type": "bool"
        }
      ],
      "stateMutability": "nonpayable",
      "type": "function"
    },
    {
      "inputs": [],
      "name": "getCarList",
      "outputs": [
        {
          "components": [
            {
              "internalType": "string",
              "name": "name",
              "type": "string"
            },
            {
              "internalType": "string",
              "name": "picture",
              "type": "string"
            },
            {
              "internalType": "string",
              "name": "age_production",
              "type": "string"
            },
            {
              "internalType": "string",
              "name": "model",
              "type": "string"
            },
            {
              "internalType": "string",
              "name": "staging",
              "type": "string"
            },
            {
              "internalType": "string",
              "name": "motor",
              "type": "string"
            },
            {
              "internalType": "string",
              "name": "power",
              "type": "string"
            },
            {
              "internalType": "string",
              "name": "optionals",
              "type": "string"
            },
            {
              "internalType": "string",
              "name": "url_info",
              "type": "string"
            },
            {
              "internalType": "bool",
              "name": "isSold",
              "type": "bool"
            },
            {
              "internalType": "bool",
              "name": "isSet",
              "type": "bool"
            },
            {
              "internalType": "uint256",
              "name": "price",
              "type": "uint256"
            },
            {
              "internalType": "uint256",
              "name": "tokenId",
              "type": "uint256"
            }
          ],
          "internalType": "struct CryptoCar.Info[]",
          "name": "",
          "type": "tuple[]"
        }
      ],
      "stateMutability": "view",
      "type": "function",
      "constant": true
    },
    {
      "inputs": [
        {
          "internalType": "string",
          "name": "model",
          "type": "string"
        },
        {
          "internalType": "string",
          "name": "name",
          "type": "string"
        },
        {
          "internalType": "string",
          "name": "picture",
          "type": "string"
        },
        {
          "internalType": "string",
          "name": "age_prod",
          "type": "string"
        },
        {
          "internalType": "string",
          "name": "staging",
          "type": "string"
        },
        {
          "internalType": "string",
          "name": "motor",
          "type": "string"
        },
        {
          "internalType": "string",
          "name": "power",
          "type": "string"
        },
        {
          "internalType": "string",
          "name": "optionals",
          "type": "string"
        },
        {
          "internalType": "string",
          "name": "url_info",
          "type": "string"
        },
        {
          "internalType": "uint256",
          "name": "price",
          "type": "uint256"
        }
      ],
      "name": "addCar",
      "outputs": [
        {
          "internalType": "uint256",
          "name": "",
          "type": "uint256"
        }
      ],
      "stateMutability": "nonpayable",
      "type": "function"
    },
    {
      "inputs": [
        {
          "internalType": "uint256",
          "name": "idCar",
          "type": "uint256"
        }
      ],
      "name": "buyCar",
      "outputs": [
        {
          "internalType": "uint256",
          "name": "",
          "type": "uint256"
        }
      ],
      "stateMutability": "payable",
      "type": "function",
      "payable": true
    },
    {
      "inputs": [],
      "name": "withdrow",
      "outputs": [],
      "stateMutability": "payable",
      "type": "function",
      "payable": true
    }
  ],
  "bytecode": "0x60806040523480156200001157600080fd5b506040516200404d3803806200404d833981810160405281019062000037919062000741565b6001808190555033600360006101000a81548173ffffffffffffffffffffffffffffffffffffffff021916908373ffffffffffffffffffffffffffffffffffffffff160217905550620000b66000801b600360009054906101000a900473ffffffffffffffffffffffffffffffffffffffff16620001a660201b60201c565b6200010a7fcf75f067314df4d0527f2a9e12148d8bd7c8a3f7235b2171d24fa195d2c3ecb9600360009054906101000a900473ffffffffffffffffffffffffffffffffffffffff16620001bc60201b60201c565b6200015e7f2ec661f4dc1364cd2d7198905b94b6807bc2be6c423cf69e4b7c802f4eb1cf8a600360009054906101000a900473ffffffffffffffffffffffffffffffffffffffff16620001bc60201b60201c565b80600460006101000a81548173ffffffffffffffffffffffffffffffffffffffff021916908373ffffffffffffffffffffffffffffffffffffffff1602179055505062000b12565b620001b88282620001f560201b60201c565b5050565b620001cd82620002e660201b60201c565b620001de816200030560201b60201c565b620001f08383620001f560201b60201c565b505050565b6200020782826200032960201b60201c565b620002e257600160008084815260200190815260200160002060000160008373ffffffffffffffffffffffffffffffffffffffff1673ffffffffffffffffffffffffffffffffffffffff16815260200190815260200160002060006101000a81548160ff021916908315150217905550620002876200039360201b60201c565b73ffffffffffffffffffffffffffffffffffffffff168173ffffffffffffffffffffffffffffffffffffffff16837f2f8788117e7eff1d82e926ec794901d17c78024a50270940304540a733656f0d60405160405180910390a45b5050565b6000806000838152602001908152602001600020600101549050919050565b62000326816200031a6200039360201b60201c565b6200039b60201b60201c565b50565b600080600084815260200190815260200160002060000160008373ffffffffffffffffffffffffffffffffffffffff1673ffffffffffffffffffffffffffffffffffffffff16815260200190815260200160002060009054906101000a900460ff16905092915050565b600033905090565b620003ad82826200032960201b60201c565b6200044357620003c8816200044760201b620014db1760201c565b620003e38360001c60206200047c60201b620015081760201c565b604051602001620003f69291906200088c565b6040516020818303038152906040526040517f08c379a00000000000000000000000000000000000000000000000000000000081526004016200043a919062000931565b60405180910390fd5b5050565b6060620004758273ffffffffffffffffffffffffffffffffffffffff16601460ff166200047c60201b60201c565b9050919050565b6060600060028360026200049191906200098e565b6200049d9190620009d9565b67ffffffffffffffff811115620004b957620004b862000a14565b5b6040519080825280601f01601f191660200182016040528015620004ec5781602001600182028036833780820191505090505b5090507f30000000000000000000000000000000000000000000000000000000000000008160008151811062000527576200052662000a43565b5b60200101907effffffffffffffffffffffffffffffffffffffffffffffffffffffffffffff1916908160001a9053507f7800000000000000000000000000000000000000000000000000000000000000816001815181106200058e576200058d62000a43565b5b60200101907effffffffffffffffffffffffffffffffffffffffffffffffffffffffffffff1916908160001a90535060006001846002620005d091906200098e565b620005dc9190620009d9565b90505b600181111562000686577f3031323334353637383961626364656600000000000000000000000000000000600f86166010811062000622576200062162000a43565b5b1a60f81b8282815181106200063c576200063b62000a43565b5b60200101907effffffffffffffffffffffffffffffffffffffffffffffffffffffffffffff1916908160001a905350600485901c9450806200067e9062000a72565b9050620005df565b5060008414620006cd576040517f08c379a0000000000000000000000000000000000000000000000000000000008152600401620006c49062000af0565b60405180910390fd5b8091505092915050565b600080fd5b600073ffffffffffffffffffffffffffffffffffffffff82169050919050565b60006200070982620006dc565b9050919050565b6200071b81620006fc565b81146200072757600080fd5b50565b6000815190506200073b8162000710565b92915050565b6000602082840312156200075a5762000759620006d7565b5b60006200076a848285016200072a565b91505092915050565b600081905092915050565b7f416363657373436f6e74726f6c3a206163636f756e7420000000000000000000600082015250565b6000620007b660178362000773565b9150620007c3826200077e565b601782019050919050565b600081519050919050565b60005b83811015620007f9578082015181840152602081019050620007dc565b60008484015250505050565b60006200081282620007ce565b6200081e818562000773565b935062000830818560208601620007d9565b80840191505092915050565b7f206973206d697373696e6720726f6c6520000000000000000000000000000000600082015250565b60006200087460118362000773565b915062000881826200083c565b601182019050919050565b60006200089982620007a7565b9150620008a7828562000805565b9150620008b48262000865565b9150620008c2828462000805565b91508190509392505050565b600082825260208201905092915050565b6000601f19601f8301169050919050565b6000620008fd82620007ce565b620009098185620008ce565b93506200091b818560208601620007d9565b6200092681620008df565b840191505092915050565b600060208201905081810360008301526200094d8184620008f0565b905092915050565b6000819050919050565b7f4e487b7100000000000000000000000000000000000000000000000000000000600052601160045260246000fd5b60006200099b8262000955565b9150620009a88362000955565b9250828202620009b88162000955565b91508282048414831517620009d257620009d16200095f565b5b5092915050565b6000620009e68262000955565b9150620009f38362000955565b925082820190508082111562000a0e5762000a0d6200095f565b5b92915050565b7f4e487b7100000000000000000000000000000000000000000000000000000000600052604160045260246000fd5b7f4e487b7100000000000000000000000000000000000000000000000000000000600052603260045260246000fd5b600062000a7f8262000955565b91506000820362000a955762000a946200095f565b5b600182039050919050565b7f537472696e67733a20686578206c656e67746820696e73756666696369656e74600082015250565b600062000ad8602083620008ce565b915062000ae58262000aa0565b602082019050919050565b6000602082019050818103600083015262000b0b8162000ac9565b9050919050565b61352b8062000b226000396000f3fe6080604052600436106100ec5760003560e01c80636c2310601161008a578063d0adcdf611610059578063d0adcdf614610366578063d547741f1461038f578063eb5394ef146103b8578063ee4db4e5146103f55761012b565b80636c231060146102a357806391d14854146102d3578063924f730714610310578063a217fddf1461033b5761012b565b80632f2ff15d116100c65780632f2ff15d1461021c57806334d6ff4c1461024557806336568abe146102705780633b874521146102995761012b565b806301ffc9a7146101655780631b043d5d146101a2578063248a9ca3146101df5761012b565b3661012b577fcf34ef537ac33ee1ac626ca1587a0a7e8e51561e5514f8cb36afa1c5102b3bab60405161011e90611d9c565b60405180910390a1600080fd5b7fcf34ef537ac33ee1ac626ca1587a0a7e8e51561e5514f8cb36afa1c5102b3bab60405161015890611d9c565b60405180910390a1600080fd5b34801561017157600080fd5b5061018c60048036038101906101879190611e28565b610420565b6040516101999190611e70565b60405180910390f35b3480156101ae57600080fd5b506101c960048036038101906101c49190612007565b61049a565b6040516101d691906121f1565b60405180910390f35b3480156101eb57600080fd5b5061020660048036038101906102019190612242565b610704565b604051610213919061227e565b60405180910390f35b34801561022857600080fd5b50610243600480360381019061023e91906122f7565b610723565b005b34801561025157600080fd5b5061025a610744565b604051610267919061227e565b60405180910390f35b34801561027c57600080fd5b50610297600480360381019061029291906122f7565b610768565b005b6102a16107eb565b005b6102bd60048036038101906102b89190612337565b610914565b6040516102ca91906121f1565b60405180910390f35b3480156102df57600080fd5b506102fa60048036038101906102f591906122f7565b610c7a565b6040516103079190611e70565b60405180910390f35b34801561031c57600080fd5b50610325610ce4565b6040516103329190612614565b60405180910390f35b34801561034757600080fd5b50610350611384565b60405161035d919061227e565b60405180910390f35b34801561037257600080fd5b5061038d60048036038101906103889190612636565b61138b565b005b34801561039b57600080fd5b506103b660048036038101906103b191906122f7565b6113c6565b005b3480156103c457600080fd5b506103df60048036038101906103da919061269f565b6113e7565b6040516103ec9190611e70565b60405180910390f35b34801561040157600080fd5b5061040a6114b7565b604051610417919061227e565b60405180910390f35b60007f7965db0b000000000000000000000000000000000000000000000000000000007bffffffffffffffffffffffffffffffffffffffffffffffffffffffff1916827bffffffffffffffffffffffffffffffffffffffffffffffffffffffff19161480610493575061049282611744565b5b9050919050565b60007fcf75f067314df4d0527f2a9e12148d8bd7c8a3f7235b2171d24fa195d2c3ecb96104c6816117ae565b60006104d260026117c2565b90508b6005600083815260200190815260200160002060000190816104f7919061291a565b508a60056000838152602001908152602001600020600101908161051b919061291a565b508960056000838152602001908152602001600020600201908161053f919061291a565b508c600560008381526020019081526020016000206003019081610563919061291a565b5088600560008381526020019081526020016000206004019081610587919061291a565b50876005600083815260200190815260200160002060050190816105ab919061291a565b50866005600083815260200190815260200160002060060190816105cf919061291a565b50856005600083815260200190815260200160002060070190816105f3919061291a565b5084600560008381526020019081526020016000206008019081610617919061291a565b5060006005600083815260200190815260200160002060090160006101000a81548160ff02191690831515021790555060016005600083815260200190815260200160002060090160016101000a81548160ff0219169083151502179055508360056000838152602001908152602001600020600a01819055507fd21a9e5fb36820d7c31409698dc15bec0396d860663687a94c902e48674c2fb16106bb826117d0565b600560008481526020019081526020016000206003016040516106df929190612af5565b60405180910390a16106f1600261189e565b80925050509a9950505050505050505050565b6000806000838152602001908152602001600020600101549050919050565b61072c82610704565b610735816117ae565b61073f83836118b4565b505050565b7fcf75f067314df4d0527f2a9e12148d8bd7c8a3f7235b2171d24fa195d2c3ecb981565b610770611994565b73ffffffffffffffffffffffffffffffffffffffff168173ffffffffffffffffffffffffffffffffffffffff16146107dd576040517f08c379a00000000000000000000000000000000000000000000000000000000081526004016107d490612bb1565b60405180910390fd5b6107e7828261199c565b5050565b6000801b6107f8816117ae565b610800611a7d565b600047905060003373ffffffffffffffffffffffffffffffffffffffff168260405161082b90612c02565b60006040518083038185875af1925050503d8060008114610868576040519150601f19603f3d011682016040523d82523d6000602084013e61086d565b606091505b50509050806108b1576040517f08c379a00000000000000000000000000000000000000000000000000000000081526004016108a890612c63565b60405180910390fd5b7fcf34ef537ac33ee1ac626ca1587a0a7e8e51561e5514f8cb36afa1c5102b3bab826040516020016108e39190612cfb565b6040516020818303038152906040526040516108ff9190612d21565b60405180910390a15050610911611acc565b50565b6000600115156005600084815260200190815260200160002060090160019054906101000a900460ff16151514610980576040517f08c379a000000000000000000000000000000000000000000000000000000000815260040161097790612d8f565b60405180910390fd5b600015156005600084815260200190815260200160002060090160009054906101000a900460ff161515146109ea576040517f08c379a00000000000000000000000000000000000000000000000000000000081526004016109e190612dfb565b60405180910390fd5b60056000838152602001908152602001600020600a01543414610a42576040517f08c379a0000000000000000000000000000000000000000000000000000000008152600401610a3990612e8d565b60405180910390fd5b600460009054906101000a900473ffffffffffffffffffffffffffffffffffffffff1673ffffffffffffffffffffffffffffffffffffffff16634dc54a033360056000868152602001908152602001600020600001600560008781526020019081526020016000206002016005600088815260200190815260200160002060030160056000898152602001908152602001600020600401600560008a8152602001908152602001600020600501600560008b8152602001908152602001600020600601600560008c8152602001908152602001600020600801600560008d8152602001908152602001600020600701600560008e81526020019081526020016000206001016040518b63ffffffff1660e01b8152600401610b6c9a99989796959493929190612ebc565b6020604051808303816000875af1925050508015610ba857506040513d601f19601f82011682018060405250810190610ba59190612fac565b60015b610be6577fcf34ef537ac33ee1ac626ca1587a0a7e8e51561e5514f8cb36afa1c5102b3bab604051610bd99061304b565b60405180910390a1600080fd5b60016005600085815260200190815260200160002060090160006101000a81548160ff0219169083151502179055508060056000858152602001908152602001600020600b01819055507f67d42ba165ed703cfec72951c30e02a0215b40ea73c5690c63dde4941db27748610c5a826117d0565b33604051610c699291906130b7565b60405180910390a180915050919050565b600080600084815260200190815260200160002060000160008373ffffffffffffffffffffffffffffffffffffffff1673ffffffffffffffffffffffffffffffffffffffff16815260200190815260200160002060009054906101000a900460ff16905092915050565b6060600080610cf360026117c2565b67ffffffffffffffff811115610d0c57610d0b611ea6565b5b604051908082528060200260200182016040528015610d4557816020015b610d32611cad565b815260200190600190039081610d2a5790505b50905060005b610d5560026117c2565b81101561137b57600115156005600083815260200190815260200160002060090160019054906101000a900460ff161515036113685760056000828152602001908152602001600020604051806101a0016040529081600082018054610dba9061273d565b80601f0160208091040260200160405190810160405280929190818152602001828054610de69061273d565b8015610e335780601f10610e0857610100808354040283529160200191610e33565b820191906000526020600020905b815481529060010190602001808311610e1657829003601f168201915b50505050508152602001600182018054610e4c9061273d565b80601f0160208091040260200160405190810160405280929190818152602001828054610e789061273d565b8015610ec55780601f10610e9a57610100808354040283529160200191610ec5565b820191906000526020600020905b815481529060010190602001808311610ea857829003601f168201915b50505050508152602001600282018054610ede9061273d565b80601f0160208091040260200160405190810160405280929190818152602001828054610f0a9061273d565b8015610f575780601f10610f2c57610100808354040283529160200191610f57565b820191906000526020600020905b815481529060010190602001808311610f3a57829003601f168201915b50505050508152602001600382018054610f709061273d565b80601f0160208091040260200160405190810160405280929190818152602001828054610f9c9061273d565b8015610fe95780601f10610fbe57610100808354040283529160200191610fe9565b820191906000526020600020905b815481529060010190602001808311610fcc57829003601f168201915b505050505081526020016004820180546110029061273d565b80601f016020809104026020016040519081016040528092919081815260200182805461102e9061273d565b801561107b5780601f106110505761010080835404028352916020019161107b565b820191906000526020600020905b81548152906001019060200180831161105e57829003601f168201915b505050505081526020016005820180546110949061273d565b80601f01602080910402602001604051908101604052809291908181526020018280546110c09061273d565b801561110d5780601f106110e25761010080835404028352916020019161110d565b820191906000526020600020905b8154815290600101906020018083116110f057829003601f168201915b505050505081526020016006820180546111269061273d565b80601f01602080910402602001604051908101604052809291908181526020018280546111529061273d565b801561119f5780601f106111745761010080835404028352916020019161119f565b820191906000526020600020905b81548152906001019060200180831161118257829003601f168201915b505050505081526020016007820180546111b89061273d565b80601f01602080910402602001604051908101604052809291908181526020018280546111e49061273d565b80156112315780601f1061120657610100808354040283529160200191611231565b820191906000526020600020905b81548152906001019060200180831161121457829003601f168201915b5050505050815260200160088201805461124a9061273d565b80601f01602080910402602001604051908101604052809291908181526020018280546112769061273d565b80156112c35780601f10611298576101008083540402835291602001916112c3565b820191906000526020600020905b8154815290600101906020018083116112a657829003601f168201915b505050505081526020016009820160009054906101000a900460ff161515151581526020016009820160019054906101000a900460ff16151515158152602001600a8201548152602001600b82015481525050828481518110611329576113286130fa565b5b602002602001018190525080828481518110611348576113476130fa565b5b6020026020010151610180018181525050828061136490613158565b9350505b808061137390613158565b915050610d4b565b50809250505090565b6000801b81565b6000801b611398816117ae565b6113c27f2ec661f4dc1364cd2d7198905b94b6807bc2be6c423cf69e4b7c802f4eb1cf8a836118b4565b5050565b6113cf82610704565b6113d8816117ae565b6113e2838361199c565b505050565b60007f2ec661f4dc1364cd2d7198905b94b6807bc2be6c423cf69e4b7c802f4eb1cf8a611413816117ae565b600460009054906101000a900473ffffffffffffffffffffffffffffffffffffffff1673ffffffffffffffffffffffffffffffffffffffff16634a5b68bc8686866040518463ffffffff1660e01b8152600401611472939291906131fb565b600060405180830381600087803b15801561148c57600080fd5b505af192505050801561149d575060015b6114aa57600091506114af565b600191505b509392505050565b7f2ec661f4dc1364cd2d7198905b94b6807bc2be6c423cf69e4b7c802f4eb1cf8a81565b60606115018273ffffffffffffffffffffffffffffffffffffffff16601460ff16611508565b9050919050565b60606000600283600261151b919061324c565b611525919061328e565b67ffffffffffffffff81111561153e5761153d611ea6565b5b6040519080825280601f01601f1916602001820160405280156115705781602001600182028036833780820191505090505b5090507f3000000000000000000000000000000000000000000000000000000000000000816000815181106115a8576115a76130fa565b5b60200101907effffffffffffffffffffffffffffffffffffffffffffffffffffffffffffff1916908160001a9053507f78000000000000000000000000000000000000000000000000000000000000008160018151811061160c5761160b6130fa565b5b60200101907effffffffffffffffffffffffffffffffffffffffffffffffffffffffffffff1916908160001a9053506000600184600261164c919061324c565b611656919061328e565b90505b60018111156116f6577f3031323334353637383961626364656600000000000000000000000000000000600f861660108110611698576116976130fa565b5b1a60f81b8282815181106116af576116ae6130fa565b5b60200101907effffffffffffffffffffffffffffffffffffffffffffffffffffffffffffff1916908160001a905350600485901c9450806116ef906132c2565b9050611659565b506000841461173a576040517f08c379a000000000000000000000000000000000000000000000000000000000815260040161173190613337565b60405180910390fd5b8091505092915050565b60007f01ffc9a7000000000000000000000000000000000000000000000000000000007bffffffffffffffffffffffffffffffffffffffffffffffffffffffff1916827bffffffffffffffffffffffffffffffffffffffffffffffffffffffff1916149050919050565b6117bf816117ba611994565b611ad5565b50565b600081600001549050919050565b6060600060016117df84611b5a565b01905060008167ffffffffffffffff8111156117fe576117fd611ea6565b5b6040519080825280601f01601f1916602001820160405280156118305781602001600182028036833780820191505090505b509050600082602001820190505b600115611893578080600190039150507f3031323334353637383961626364656600000000000000000000000000000000600a86061a8153600a858161188757611886613357565b5b0494506000850361183e575b819350505050919050565b6001816000016000828254019250508190555050565b6118be8282610c7a565b61199057600160008084815260200190815260200160002060000160008373ffffffffffffffffffffffffffffffffffffffff1673ffffffffffffffffffffffffffffffffffffffff16815260200190815260200160002060006101000a81548160ff021916908315150217905550611935611994565b73ffffffffffffffffffffffffffffffffffffffff168173ffffffffffffffffffffffffffffffffffffffff16837f2f8788117e7eff1d82e926ec794901d17c78024a50270940304540a733656f0d60405160405180910390a45b5050565b600033905090565b6119a68282610c7a565b15611a7957600080600084815260200190815260200160002060000160008373ffffffffffffffffffffffffffffffffffffffff1673ffffffffffffffffffffffffffffffffffffffff16815260200190815260200160002060006101000a81548160ff021916908315150217905550611a1e611994565b73ffffffffffffffffffffffffffffffffffffffff168173ffffffffffffffffffffffffffffffffffffffff16837ff6391f5c32d9c69d2a47ea670b442974b53935d1edc7fd64eb21e047a839171b60405160405180910390a45b5050565b600260015403611ac2576040517f08c379a0000000000000000000000000000000000000000000000000000000008152600401611ab9906133d2565b60405180910390fd5b6002600181905550565b60018081905550565b611adf8282610c7a565b611b5657611aec816114db565b611afa8360001c6020611508565b604051602001611b0b9291906134bb565b6040516020818303038152906040526040517f08c379a0000000000000000000000000000000000000000000000000000000008152600401611b4d9190612d21565b60405180910390fd5b5050565b600080600090507a184f03e93ff9f4daa797ed6e38ed64bf6a1f0100000000000000008310611bb8577a184f03e93ff9f4daa797ed6e38ed64bf6a1f0100000000000000008381611bae57611bad613357565b5b0492506040810190505b6d04ee2d6d415b85acef81000000008310611bf5576d04ee2d6d415b85acef81000000008381611beb57611bea613357565b5b0492506020810190505b662386f26fc100008310611c2457662386f26fc100008381611c1a57611c19613357565b5b0492506010810190505b6305f5e1008310611c4d576305f5e1008381611c4357611c42613357565b5b0492506008810190505b6127108310611c72576127108381611c6857611c67613357565b5b0492506004810190505b60648310611c955760648381611c8b57611c8a613357565b5b0492506002810190505b600a8310611ca4576001810190505b80915050919050565b604051806101a0016040528060608152602001606081526020016060815260200160608152602001606081526020016060815260200160608152602001606081526020016060815260200160001515815260200160001515815260200160008152602001600081525090565b600082825260208201905092915050565b7f526576657274696e67202e2e2e74727920746f2062757920612063617220667260008201527f6f6d206f6e65206f66206f75722073746f726500000000000000000000000000602082015250565b6000611d86603383611d19565b9150611d9182611d2a565b604082019050919050565b60006020820190508181036000830152611db581611d79565b9050919050565b6000604051905090565b600080fd5b600080fd5b60007fffffffff0000000000000000000000000000000000000000000000000000000082169050919050565b611e0581611dd0565b8114611e1057600080fd5b50565b600081359050611e2281611dfc565b92915050565b600060208284031215611e3e57611e3d611dc6565b5b6000611e4c84828501611e13565b91505092915050565b60008115159050919050565b611e6a81611e55565b82525050565b6000602082019050611e856000830184611e61565b92915050565b600080fd5b600080fd5b6000601f19601f8301169050919050565b7f4e487b7100000000000000000000000000000000000000000000000000000000600052604160045260246000fd5b611ede82611e95565b810181811067ffffffffffffffff82111715611efd57611efc611ea6565b5b80604052505050565b6000611f10611dbc565b9050611f1c8282611ed5565b919050565b600067ffffffffffffffff821115611f3c57611f3b611ea6565b5b611f4582611e95565b9050602081019050919050565b82818337600083830152505050565b6000611f74611f6f84611f21565b611f06565b905082815260208101848484011115611f9057611f8f611e90565b5b611f9b848285611f52565b509392505050565b600082601f830112611fb857611fb7611e8b565b5b8135611fc8848260208601611f61565b91505092915050565b6000819050919050565b611fe481611fd1565b8114611fef57600080fd5b50565b60008135905061200181611fdb565b92915050565b6000806000806000806000806000806101408b8d03121561202b5761202a611dc6565b5b60008b013567ffffffffffffffff81111561204957612048611dcb565b5b6120558d828e01611fa3565b9a505060208b013567ffffffffffffffff81111561207657612075611dcb565b5b6120828d828e01611fa3565b99505060408b013567ffffffffffffffff8111156120a3576120a2611dcb565b5b6120af8d828e01611fa3565b98505060608b013567ffffffffffffffff8111156120d0576120cf611dcb565b5b6120dc8d828e01611fa3565b97505060808b013567ffffffffffffffff8111156120fd576120fc611dcb565b5b6121098d828e01611fa3565b96505060a08b013567ffffffffffffffff81111561212a57612129611dcb565b5b6121368d828e01611fa3565b95505060c08b013567ffffffffffffffff81111561215757612156611dcb565b5b6121638d828e01611fa3565b94505060e08b013567ffffffffffffffff81111561218457612183611dcb565b5b6121908d828e01611fa3565b9350506101008b013567ffffffffffffffff8111156121b2576121b1611dcb565b5b6121be8d828e01611fa3565b9250506101206121d08d828e01611ff2565b9150509295989b9194979a5092959850565b6121eb81611fd1565b82525050565b600060208201905061220660008301846121e2565b92915050565b6000819050919050565b61221f8161220c565b811461222a57600080fd5b50565b60008135905061223c81612216565b92915050565b60006020828403121561225857612257611dc6565b5b60006122668482850161222d565b91505092915050565b6122788161220c565b82525050565b6000602082019050612293600083018461226f565b92915050565b600073ffffffffffffffffffffffffffffffffffffffff82169050919050565b60006122c482612299565b9050919050565b6122d4816122b9565b81146122df57600080fd5b50565b6000813590506122f1816122cb565b92915050565b6000806040838503121561230e5761230d611dc6565b5b600061231c8582860161222d565b925050602061232d858286016122e2565b9150509250929050565b60006020828403121561234d5761234c611dc6565b5b600061235b84828501611ff2565b91505092915050565b600081519050919050565b600082825260208201905092915050565b6000819050602082019050919050565b600081519050919050565b600082825260208201905092915050565b60005b838110156123ca5780820151818401526020810190506123af565b60008484015250505050565b60006123e182612390565b6123eb818561239b565b93506123fb8185602086016123ac565b61240481611e95565b840191505092915050565b61241881611e55565b82525050565b61242781611fd1565b82525050565b60006101a083016000830151848203600086015261244b82826123d6565b9150506020830151848203602086015261246582826123d6565b9150506040830151848203604086015261247f82826123d6565b9150506060830151848203606086015261249982826123d6565b915050608083015184820360808601526124b382826123d6565b91505060a083015184820360a08601526124cd82826123d6565b91505060c083015184820360c08601526124e782826123d6565b91505060e083015184820360e086015261250182826123d6565b91505061010083015184820361010086015261251d82826123d6565b91505061012083015161253461012086018261240f565b5061014083015161254961014086018261240f565b5061016083015161255e61016086018261241e565b5061018083015161257361018086018261241e565b508091505092915050565b600061258a838361242d565b905092915050565b6000602082019050919050565b60006125aa82612364565b6125b4818561236f565b9350836020820285016125c685612380565b8060005b8581101561260257848403895281516125e3858261257e565b94506125ee83612592565b925060208a019950506001810190506125ca565b50829750879550505050505092915050565b6000602082019050818103600083015261262e818461259f565b905092915050565b60006020828403121561264c5761264b611dc6565b5b600061265a848285016122e2565b91505092915050565b600063ffffffff82169050919050565b61267c81612663565b811461268757600080fd5b50565b60008135905061269981612673565b92915050565b6000806000606084860312156126b8576126b7611dc6565b5b60006126c686828701611ff2565b93505060206126d78682870161268a565b925050604084013567ffffffffffffffff8111156126f8576126f7611dcb565b5b61270486828701611fa3565b9150509250925092565b7f4e487b7100000000000000000000000000000000000000000000000000000000600052602260045260246000fd5b6000600282049050600182168061275557607f821691505b6020821081036127685761276761270e565b5b50919050565b60008190508160005260206000209050919050565b60006020601f8301049050919050565b600082821b905092915050565b6000600883026127d07fffffffffffffffffffffffffffffffffffffffffffffffffffffffffffffffff82612793565b6127da8683612793565b95508019841693508086168417925050509392505050565b6000819050919050565b600061281761281261280d84611fd1565b6127f2565b611fd1565b9050919050565b6000819050919050565b612831836127fc565b61284561283d8261281e565b8484546127a0565b825550505050565b600090565b61285a61284d565b612865818484612828565b505050565b5b818110156128895761287e600082612852565b60018101905061286b565b5050565b601f8211156128ce5761289f8161276e565b6128a884612783565b810160208510156128b7578190505b6128cb6128c385612783565b83018261286a565b50505b505050565b600082821c905092915050565b60006128f1600019846008026128d3565b1980831691505092915050565b600061290a83836128e0565b9150826002028217905092915050565b61292382612390565b67ffffffffffffffff81111561293c5761293b611ea6565b5b612946825461273d565b61295182828561288d565b600060209050601f8311600181146129845760008415612972578287015190505b61297c85826128fe565b8655506129e4565b601f1984166129928661276e565b60005b828110156129ba57848901518255600182019150602085019450602081019050612995565b868310156129d757848901516129d3601f8916826128e0565b8355505b6001600288020188555050505b505050505050565b7f4e657720636172206a6f696e656420746f20746865206c697374000000000000600082015250565b6000612a22601a83611d19565b9150612a2d826129ec565b602082019050919050565b6000612a4382612390565b612a4d8185611d19565b9350612a5d8185602086016123ac565b612a6681611e95565b840191505092915050565b60008154612a7e8161273d565b612a888186611d19565b94506001821660008114612aa35760018114612ab957612aec565b60ff198316865281151560200286019350612aec565b612ac28561276e565b60005b83811015612ae457815481890152600182019150602081019050612ac5565b808801955050505b50505092915050565b60006060820190508181036000830152612b0e81612a15565b90508181036020830152612b228185612a38565b90508181036040830152612b368184612a71565b90509392505050565b7f416363657373436f6e74726f6c3a2063616e206f6e6c792072656e6f756e636560008201527f20726f6c657320666f722073656c660000000000000000000000000000000000602082015250565b6000612b9b602f83611d19565b9150612ba682612b3f565b604082019050919050565b60006020820190508181036000830152612bca81612b8e565b9050919050565b600081905092915050565b50565b6000612bec600083612bd1565b9150612bf782612bdc565b600082019050919050565b6000612c0d82612bdf565b9150819050919050565b7f4661696c6564207769746864726f772045746865720000000000000000000000600082015250565b6000612c4d601583611d19565b9150612c5882612c17565b602082019050919050565b60006020820190508181036000830152612c7c81612c40565b9050919050565b600081905092915050565b7f5769746864726f772068617070656e203a200000000000000000000000000000600082015250565b6000612cc4601283612c83565b9150612ccf82612c8e565b601282019050919050565b6000819050919050565b612cf5612cf082611fd1565b612cda565b82525050565b6000612d0682612cb7565b9150612d128284612ce4565b60208201915081905092915050565b60006020820190508181036000830152612d3b8184612a38565b905092915050565b7f5468652063617220646f65736e27742065786973747300000000000000000000600082015250565b6000612d79601683611d19565b9150612d8482612d43565b602082019050919050565b60006020820190508181036000830152612da881612d6c565b9050919050565b7f416c726561647920736f6c640000000000000000000000000000000000000000600082015250565b6000612de5600c83611d19565b9150612df082612daf565b602082019050919050565b60006020820190508181036000830152612e1481612dd8565b9050919050565b7f496e73756666696369656e74206f72206e6f7420636f72726563742066756e6460008201527f7300000000000000000000000000000000000000000000000000000000000000602082015250565b6000612e77602183611d19565b9150612e8282612e1b565b604082019050919050565b60006020820190508181036000830152612ea681612e6a565b9050919050565b612eb6816122b9565b82525050565b600061014082019050612ed2600083018d612ead565b8181036020830152612ee4818c612a71565b90508181036040830152612ef8818b612a71565b90508181036060830152612f0c818a612a71565b90508181036080830152612f208189612a71565b905081810360a0830152612f348188612a71565b905081810360c0830152612f488187612a71565b905081810360e0830152612f5c8186612a71565b9050818103610100830152612f718185612a71565b9050818103610120830152612f868184612a71565b90509b9a5050505050505050505050565b600081519050612fa681611fdb565b92915050565b600060208284031215612fc257612fc1611dc6565b5b6000612fd084828501612f97565b91505092915050565b7f416e206572726f72206f63637572656420647572696e6720636172206372656160008201527f74696f6e00000000000000000000000000000000000000000000000000000000602082015250565b6000613035602483611d19565b915061304082612fd9565b604082019050919050565b6000602082019050818103600083015261306481613028565b9050919050565b7f4361722063726561746564000000000000000000000000000000000000000000600082015250565b60006130a1600b83611d19565b91506130ac8261306b565b602082019050919050565b600060608201905081810360008301526130d081613094565b905081810360208301526130e48185612a38565b90506130f36040830184612ead565b9392505050565b7f4e487b7100000000000000000000000000000000000000000000000000000000600052603260045260246000fd5b7f4e487b7100000000000000000000000000000000000000000000000000000000600052601160045260246000fd5b600061316382611fd1565b91507fffffffffffffffffffffffffffffffffffffffffffffffffffffffffffffffff820361319557613194613129565b5b600182019050919050565b6131a981612663565b82525050565b7f43727970746f4361720000000000000000000000000000000000000000000000600082015250565b60006131e5600983611d19565b91506131f0826131af565b602082019050919050565b600060808201905061321060008301866121e2565b61321d60208301856131a0565b818103604083015261322f8184612a38565b90508181036060830152613242816131d8565b9050949350505050565b600061325782611fd1565b915061326283611fd1565b925082820261327081611fd1565b9150828204841483151761328757613286613129565b5b5092915050565b600061329982611fd1565b91506132a483611fd1565b92508282019050808211156132bc576132bb613129565b5b92915050565b60006132cd82611fd1565b9150600082036132e0576132df613129565b5b600182039050919050565b7f537472696e67733a20686578206c656e67746820696e73756666696369656e74600082015250565b6000613321602083611d19565b915061332c826132eb565b602082019050919050565b6000602082019050818103600083015261335081613314565b9050919050565b7f4e487b7100000000000000000000000000000000000000000000000000000000600052601260045260246000fd5b7f5265656e7472616e637947756172643a207265656e7472616e742063616c6c00600082015250565b60006133bc601f83611d19565b91506133c782613386565b602082019050919050565b600060208201905081810360008301526133eb816133af565b9050919050565b7f416363657373436f6e74726f6c3a206163636f756e7420000000000000000000600082015250565b6000613428601783612c83565b9150613433826133f2565b601782019050919050565b600061344982612390565b6134538185612c83565b93506134638185602086016123ac565b80840191505092915050565b7f206973206d697373696e6720726f6c6520000000000000000000000000000000600082015250565b60006134a5601183612c83565b91506134b08261346f565b601182019050919050565b60006134c68261341b565b91506134d2828561343e565b91506134dd82613498565b91506134e9828461343e565b9150819050939250505056fea264697066735822122030a7c5f06ac3f972ab157ff35b6ffcced28ecb6dcb4a979be119b0de1ababb4e64736f6c63430008110033",
  "immutableReferences": {},
  "source": "// SPDX-License-Identifier: MIT\npragma solidity ^0.8.9;\n\nimport \"@openzeppelin/contracts/access/AccessControl.sol\";\nimport \"@openzeppelin/contracts/utils/Counters.sol\";\nimport \"@openzeppelin/contracts/security/ReentrancyGuard.sol\";\nimport \"@openzeppelin/contracts/utils/Strings.sol\";\n\n\ninterface ICarLedger {\n\n\tfunction createCar(address to ,string memory _name,string memory _age_production, string memory _model,string memory _staging, string memory _motor, string memory _power, string memory _url_info, string memory _optionals , string memory picture  )  external returns (uint256); \n\n\tfunction addDealer(address dealer) external;\n\n\tfunction addService( uint256 tokenId, uint32 _km, string memory _operation, string memory _office) external;\n\n\tfunction addStation(address serv) external;  \n\n}\n\ncontract CryptoCar is AccessControl, ReentrancyGuard {\n\t using Counters for Counters.Counter; \n\n    Counters.Counter private _tokenIdCounter;\n\n\tevent Log(string message);\n\tevent CarCreation( string message, string tokenId, address to); \n\tevent CarAdd( string message, string id, string model); \n\n\tbytes32 public constant DEALER_ROLE = keccak256(\"DEALER_ROLE\");\n    bytes32 public constant MEC_ROLE = keccak256(\"MEC_ROLE\");\n\n\taddress payable private _owner;  \n\tICarLedger private carLedger; \n\n\tstruct Info { \n\n\t\tstring name;\n\t\tstring picture; \n        string age_production; \n\t\tstring model;\n\t\tstring staging; \n\t\tstring motor;\n\t\tstring power;  \n        string optionals; \n        string url_info; \n        bool isSold;\n\t\tbool isSet;\n\t\tuint256 price; //wei\n\t\tuint256 tokenId;    \n    }\n\n\tmapping(uint256 => Info) private list;\n\n\tconstructor( address ledger ){\n\n\t\t_owner =payable (msg.sender);\n\t\t_setupRole(DEFAULT_ADMIN_ROLE, _owner);\n\t\tgrantRole(DEALER_ROLE, _owner);\n\t\tgrantRole(MEC_ROLE, _owner);\n\t\tcarLedger = ICarLedger(ledger);\n\n\t}\n\n\tfunction addMech(address mec) public onlyRole(DEFAULT_ADMIN_ROLE) {\n        _grantRole(MEC_ROLE, mec);\n    }\n\n\tfunction insertServiceCustomer(uint256 tokenId, uint32 _km, string memory _operation) public onlyRole(MEC_ROLE) returns (bool)  {\n\n\t\ttry\tcarLedger.addService(tokenId, _km, _operation, \"CryptoCar\")\n\t\t{\n\t\t\treturn true; \n\t\t\n\t\t}catch \n\t\t{\n\t\t\treturn false;\n\t\t} \n\t}\n\n\tfunction getCarList() public view returns( Info[] memory){\n\t\t\n\t\tuint j  = 0; \n\t\tInfo[] memory cars = new Info[](_tokenIdCounter.current());\n    \tfor (uint i = 0; i < _tokenIdCounter.current(); i++) {\n        \t\n\t\t\tif(list[i].isSet == true)\n\t\t\t{\t\n\t\t\t\tcars[j] = list[i];\n\t\t\t\tcars[j].tokenId = i; \n\t\t\t\tj++; \n\t\t\t}\n    }\n\n    \treturn cars; \n\t}\n\n\tfunction addCar(string memory model, string memory name, string memory picture, string memory age_prod, string memory staging, string memory motor, string memory power, string memory optionals, string memory url_info, uint256 price) external onlyRole(DEALER_ROLE) returns (uint256) {\n\n\t\tuint256 Id = _tokenIdCounter.current(); \n\t\tlist[Id].name = name; \n\t\tlist[Id].picture = picture;\n\t\tlist[Id].age_production = age_prod; \n\t\tlist[Id].model = model;\n\t\tlist[Id].staging = staging;\n\t\tlist[Id].motor = motor;\n\t\tlist[Id].power = power;\n\t\tlist[Id].optionals = optionals;\n\t\tlist[Id].url_info = url_info;\n\t\tlist[Id].isSold = false;\n\t\tlist[Id].isSet = true;\n\t\tlist[Id].price = price; \n\t\temit CarAdd(\"New car joined to the list\", Strings.toString(Id) , list[Id].model);\n\t\t_tokenIdCounter.increment();\n\t\treturn Id; \n\t}    \n \n\n\tfunction buyCar( uint256 idCar ) public payable returns (uint256)  {\n\n\t\trequire(list[idCar].isSet == true , \"The car doesn't exists\");\n\t\trequire(list[idCar].isSold == false ,\"Already sold\");\n\t\trequire(msg.value == list[idCar].price , \"Insufficient or not correct funds\" ); \n\t\ttry carLedger.createCar(msg.sender,list[idCar].name,list[idCar].age_production, list[idCar].model, list[idCar].staging, list[idCar].motor,list[idCar].power, list[idCar].url_info, list[idCar].optionals, list[idCar].picture ) returns(uint256 carId)\n\t\t{\n\t\t\tlist[idCar].isSold = true;\n\t\t\tlist[idCar].tokenId = carId;\n\t\t\temit CarCreation(\"Car created\", Strings.toString(carId) , msg.sender);\n\t\t\treturn carId;\n\n\t\t}catch\n\t\t{\n\t\t\temit Log(\"An error occured during car creation\");\n\t\t\trevert();\n\t\t}\n\t}\n\n\tfunction withdrow() external payable onlyRole(DEFAULT_ADMIN_ROLE) nonReentrant()  {\n\n\t\tuint256 balance = address(this).balance;\n\t\t(bool sent,) = msg.sender.call{value: balance}(\"\");\n        require(sent, \"Failed withdrow Ether\");\n\t\temit Log( string(abi.encodePacked(\"Withdrow happen : \", balance)) );\n\n\t}\n\n\treceive() external payable{\n\n\t\temit Log(\"Reverting ...try to buy a car from one of our store\");\n\t\trevert();\n\n\t}\n\tfallback() external payable{\n\n\t\temit Log(\"Reverting ...try to buy a car from one of our store\");\n\t\trevert();\n\n\t}\n\n\t\n\n\n\n\t\n\n}\n",
  "sourcePath": "D:\\ethCar\\contracts\\CryptoCar.sol",
  "compiler": {
    "name": "solc",
    "version": "0.8.17+commit.8df45f5f.Emscripten.clang"
  },
  "schemaVersion": "3.4.11",
  "updatedAt": "2023-02-18T19:47:21.817Z",
  "networkType": "ethereum",
  "devdoc": {
    "kind": "dev",
    "methods": {
      "getRoleAdmin(bytes32)": {
        "details": "Returns the admin role that controls `role`. See {grantRole} and {revokeRole}. To change a role's admin, use {_setRoleAdmin}."
      },
      "grantRole(bytes32,address)": {
        "details": "Grants `role` to `account`. If `account` had not been already granted `role`, emits a {RoleGranted} event. Requirements: - the caller must have ``role``'s admin role. May emit a {RoleGranted} event."
      },
      "hasRole(bytes32,address)": {
        "details": "Returns `true` if `account` has been granted `role`."
      },
      "renounceRole(bytes32,address)": {
        "details": "Revokes `role` from the calling account. Roles are often managed via {grantRole} and {revokeRole}: this function's purpose is to provide a mechanism for accounts to lose their privileges if they are compromised (such as when a trusted device is misplaced). If the calling account had been revoked `role`, emits a {RoleRevoked} event. Requirements: - the caller must be `account`. May emit a {RoleRevoked} event."
      },
      "revokeRole(bytes32,address)": {
        "details": "Revokes `role` from `account`. If `account` had been granted `role`, emits a {RoleRevoked} event. Requirements: - the caller must have ``role``'s admin role. May emit a {RoleRevoked} event."
      },
      "supportsInterface(bytes4)": {
        "details": "See {IERC165-supportsInterface}."
      }
    },
    "version": 1
  },
  "userdoc": {
    "kind": "user",
    "methods": {},
    "version": 1
  }
}