{
  "contractName": "CryptoCar",
  "abi": [
    {
      "inputs": [
        {
          "internalType": "address",
          "name": "ledger",
          "type": "address"
        }
      ],
      "stateMutability": "nonpayable",
      "type": "constructor"
    },
    {
      "anonymous": false,
      "inputs": [
        {
          "indexed": false,
          "internalType": "string",
          "name": "message",
          "type": "string"
        },
        {
          "indexed": false,
          "internalType": "uint256",
          "name": "id",
          "type": "uint256"
        },
        {
          "components": [
            {
              "internalType": "string",
              "name": "name",
              "type": "string"
            },
            {
              "internalType": "string",
              "name": "picture",
              "type": "string"
            },
            {
              "internalType": "string",
              "name": "age_production",
              "type": "string"
            },
            {
              "internalType": "string",
              "name": "model",
              "type": "string"
            },
            {
              "internalType": "string",
              "name": "staging",
              "type": "string"
            },
            {
              "internalType": "string",
              "name": "motor",
              "type": "string"
            },
            {
              "internalType": "string",
              "name": "power",
              "type": "string"
            },
            {
              "internalType": "string",
              "name": "optionals",
              "type": "string"
            },
            {
              "internalType": "string",
              "name": "url_info",
              "type": "string"
            },
            {
              "internalType": "bool",
              "name": "isSold",
              "type": "bool"
            },
            {
              "internalType": "bool",
              "name": "isSet",
              "type": "bool"
            },
            {
              "internalType": "uint256",
              "name": "price",
              "type": "uint256"
            },
            {
              "internalType": "uint256",
              "name": "tokenId",
              "type": "uint256"
            }
          ],
          "indexed": false,
          "internalType": "struct CryptoCar.Info",
          "name": "info",
          "type": "tuple"
        }
      ],
      "name": "CarAdd",
      "type": "event"
    },
    {
      "anonymous": false,
      "inputs": [
        {
          "indexed": false,
          "internalType": "string",
          "name": "message",
          "type": "string"
        },
        {
          "indexed": false,
          "internalType": "uint256",
          "name": "tokenId",
          "type": "uint256"
        },
        {
          "indexed": false,
          "internalType": "address",
          "name": "to",
          "type": "address"
        }
      ],
      "name": "CarCreation",
      "type": "event"
    },
    {
      "anonymous": false,
      "inputs": [
        {
          "indexed": false,
          "internalType": "string",
          "name": "message",
          "type": "string"
        }
      ],
      "name": "Log",
      "type": "event"
    },
    {
      "anonymous": false,
      "inputs": [
        {
          "indexed": true,
          "internalType": "bytes32",
          "name": "role",
          "type": "bytes32"
        },
        {
          "indexed": true,
          "internalType": "bytes32",
          "name": "previousAdminRole",
          "type": "bytes32"
        },
        {
          "indexed": true,
          "internalType": "bytes32",
          "name": "newAdminRole",
          "type": "bytes32"
        }
      ],
      "name": "RoleAdminChanged",
      "type": "event"
    },
    {
      "anonymous": false,
      "inputs": [
        {
          "indexed": true,
          "internalType": "bytes32",
          "name": "role",
          "type": "bytes32"
        },
        {
          "indexed": true,
          "internalType": "address",
          "name": "account",
          "type": "address"
        },
        {
          "indexed": true,
          "internalType": "address",
          "name": "sender",
          "type": "address"
        }
      ],
      "name": "RoleGranted",
      "type": "event"
    },
    {
      "anonymous": false,
      "inputs": [
        {
          "indexed": true,
          "internalType": "bytes32",
          "name": "role",
          "type": "bytes32"
        },
        {
          "indexed": true,
          "internalType": "address",
          "name": "account",
          "type": "address"
        },
        {
          "indexed": true,
          "internalType": "address",
          "name": "sender",
          "type": "address"
        }
      ],
      "name": "RoleRevoked",
      "type": "event"
    },
    {
      "stateMutability": "payable",
      "type": "fallback",
      "payable": true
    },
    {
      "inputs": [],
      "name": "DEALER_ROLE",
      "outputs": [
        {
          "internalType": "bytes32",
          "name": "",
          "type": "bytes32"
        }
      ],
      "stateMutability": "view",
      "type": "function",
      "constant": true
    },
    {
      "inputs": [],
      "name": "DEFAULT_ADMIN_ROLE",
      "outputs": [
        {
          "internalType": "bytes32",
          "name": "",
          "type": "bytes32"
        }
      ],
      "stateMutability": "view",
      "type": "function",
      "constant": true
    },
    {
      "inputs": [],
      "name": "MEC_ROLE",
      "outputs": [
        {
          "internalType": "bytes32",
          "name": "",
          "type": "bytes32"
        }
      ],
      "stateMutability": "view",
      "type": "function",
      "constant": true
    },
    {
      "inputs": [
        {
          "internalType": "bytes32",
          "name": "role",
          "type": "bytes32"
        }
      ],
      "name": "getRoleAdmin",
      "outputs": [
        {
          "internalType": "bytes32",
          "name": "",
          "type": "bytes32"
        }
      ],
      "stateMutability": "view",
      "type": "function",
      "constant": true
    },
    {
      "inputs": [
        {
          "internalType": "bytes32",
          "name": "role",
          "type": "bytes32"
        },
        {
          "internalType": "address",
          "name": "account",
          "type": "address"
        }
      ],
      "name": "grantRole",
      "outputs": [],
      "stateMutability": "nonpayable",
      "type": "function"
    },
    {
      "inputs": [
        {
          "internalType": "bytes32",
          "name": "role",
          "type": "bytes32"
        },
        {
          "internalType": "address",
          "name": "account",
          "type": "address"
        }
      ],
      "name": "hasRole",
      "outputs": [
        {
          "internalType": "bool",
          "name": "",
          "type": "bool"
        }
      ],
      "stateMutability": "view",
      "type": "function",
      "constant": true
    },
    {
      "inputs": [
        {
          "internalType": "bytes32",
          "name": "role",
          "type": "bytes32"
        },
        {
          "internalType": "address",
          "name": "account",
          "type": "address"
        }
      ],
      "name": "renounceRole",
      "outputs": [],
      "stateMutability": "nonpayable",
      "type": "function"
    },
    {
      "inputs": [
        {
          "internalType": "bytes32",
          "name": "role",
          "type": "bytes32"
        },
        {
          "internalType": "address",
          "name": "account",
          "type": "address"
        }
      ],
      "name": "revokeRole",
      "outputs": [],
      "stateMutability": "nonpayable",
      "type": "function"
    },
    {
      "inputs": [
        {
          "internalType": "bytes4",
          "name": "interfaceId",
          "type": "bytes4"
        }
      ],
      "name": "supportsInterface",
      "outputs": [
        {
          "internalType": "bool",
          "name": "",
          "type": "bool"
        }
      ],
      "stateMutability": "view",
      "type": "function",
      "constant": true
    },
    {
      "stateMutability": "payable",
      "type": "receive",
      "payable": true
    },
    {
      "inputs": [
        {
          "internalType": "address",
          "name": "mec",
          "type": "address"
        }
      ],
      "name": "addMech",
      "outputs": [],
      "stateMutability": "nonpayable",
      "type": "function"
    },
    {
      "inputs": [
        {
          "internalType": "address",
          "name": "client",
          "type": "address"
        },
        {
          "internalType": "uint256",
          "name": "tokenId",
          "type": "uint256"
        },
        {
          "internalType": "uint32",
          "name": "_km",
          "type": "uint32"
        },
        {
          "internalType": "string",
          "name": "_operation",
          "type": "string"
        }
      ],
      "name": "insertServiceCustomer",
      "outputs": [
        {
          "internalType": "bool",
          "name": "",
          "type": "bool"
        }
      ],
      "stateMutability": "nonpayable",
      "type": "function"
    },
    {
      "inputs": [],
      "name": "getCarList",
      "outputs": [
        {
          "components": [
            {
              "internalType": "string",
              "name": "name",
              "type": "string"
            },
            {
              "internalType": "string",
              "name": "picture",
              "type": "string"
            },
            {
              "internalType": "string",
              "name": "age_production",
              "type": "string"
            },
            {
              "internalType": "string",
              "name": "model",
              "type": "string"
            },
            {
              "internalType": "string",
              "name": "staging",
              "type": "string"
            },
            {
              "internalType": "string",
              "name": "motor",
              "type": "string"
            },
            {
              "internalType": "string",
              "name": "power",
              "type": "string"
            },
            {
              "internalType": "string",
              "name": "optionals",
              "type": "string"
            },
            {
              "internalType": "string",
              "name": "url_info",
              "type": "string"
            },
            {
              "internalType": "bool",
              "name": "isSold",
              "type": "bool"
            },
            {
              "internalType": "bool",
              "name": "isSet",
              "type": "bool"
            },
            {
              "internalType": "uint256",
              "name": "price",
              "type": "uint256"
            },
            {
              "internalType": "uint256",
              "name": "tokenId",
              "type": "uint256"
            }
          ],
          "internalType": "struct CryptoCar.Info[]",
          "name": "",
          "type": "tuple[]"
        }
      ],
      "stateMutability": "view",
      "type": "function",
      "constant": true
    },
    {
      "inputs": [
        {
          "internalType": "string",
          "name": "model",
          "type": "string"
        },
        {
          "internalType": "string",
          "name": "name",
          "type": "string"
        },
        {
          "internalType": "string",
          "name": "picture",
          "type": "string"
        },
        {
          "internalType": "string",
          "name": "age_prod",
          "type": "string"
        },
        {
          "internalType": "string",
          "name": "staging",
          "type": "string"
        },
        {
          "internalType": "string",
          "name": "motor",
          "type": "string"
        },
        {
          "internalType": "string",
          "name": "power",
          "type": "string"
        },
        {
          "internalType": "string",
          "name": "optionals",
          "type": "string"
        },
        {
          "internalType": "string",
          "name": "url_info",
          "type": "string"
        },
        {
          "internalType": "uint256",
          "name": "price",
          "type": "uint256"
        }
      ],
      "name": "addCar",
      "outputs": [
        {
          "internalType": "uint256",
          "name": "",
          "type": "uint256"
        }
      ],
      "stateMutability": "nonpayable",
      "type": "function"
    },
    {
      "inputs": [
        {
          "internalType": "uint256",
          "name": "idCar",
          "type": "uint256"
        }
      ],
      "name": "buyCar",
      "outputs": [
        {
          "internalType": "uint256",
          "name": "",
          "type": "uint256"
        }
      ],
      "stateMutability": "payable",
      "type": "function",
      "payable": true
    },
    {
      "inputs": [],
      "name": "withdrow",
      "outputs": [],
      "stateMutability": "payable",
      "type": "function",
      "payable": true
    }
  ],
  "bytecode": "0x60806040523480156200001157600080fd5b5060405162003ed538038062003ed5833981810160405281019062000037919062000741565b6001808190555033600360006101000a81548173ffffffffffffffffffffffffffffffffffffffff021916908373ffffffffffffffffffffffffffffffffffffffff160217905550620000b66000801b600360009054906101000a900473ffffffffffffffffffffffffffffffffffffffff16620001a660201b60201c565b6200010a7fcf75f067314df4d0527f2a9e12148d8bd7c8a3f7235b2171d24fa195d2c3ecb9600360009054906101000a900473ffffffffffffffffffffffffffffffffffffffff16620001bc60201b60201c565b6200015e7f2ec661f4dc1364cd2d7198905b94b6807bc2be6c423cf69e4b7c802f4eb1cf8a600360009054906101000a900473ffffffffffffffffffffffffffffffffffffffff16620001bc60201b60201c565b80600460006101000a81548173ffffffffffffffffffffffffffffffffffffffff021916908373ffffffffffffffffffffffffffffffffffffffff1602179055505062000b12565b620001b88282620001f560201b60201c565b5050565b620001cd82620002e660201b60201c565b620001de816200030560201b60201c565b620001f08383620001f560201b60201c565b505050565b6200020782826200032960201b60201c565b620002e257600160008084815260200190815260200160002060000160008373ffffffffffffffffffffffffffffffffffffffff1673ffffffffffffffffffffffffffffffffffffffff16815260200190815260200160002060006101000a81548160ff021916908315150217905550620002876200039360201b60201c565b73ffffffffffffffffffffffffffffffffffffffff168173ffffffffffffffffffffffffffffffffffffffff16837f2f8788117e7eff1d82e926ec794901d17c78024a50270940304540a733656f0d60405160405180910390a45b5050565b6000806000838152602001908152602001600020600101549050919050565b62000326816200031a6200039360201b60201c565b6200039b60201b60201c565b50565b600080600084815260200190815260200160002060000160008373ffffffffffffffffffffffffffffffffffffffff1673ffffffffffffffffffffffffffffffffffffffff16815260200190815260200160002060009054906101000a900460ff16905092915050565b600033905090565b620003ad82826200032960201b60201c565b6200044357620003c8816200044760201b620013ef1760201c565b620003e38360001c60206200047c60201b6200141c1760201c565b604051602001620003f69291906200088c565b6040516020818303038152906040526040517f08c379a00000000000000000000000000000000000000000000000000000000081526004016200043a919062000931565b60405180910390fd5b5050565b6060620004758273ffffffffffffffffffffffffffffffffffffffff16601460ff166200047c60201b60201c565b9050919050565b6060600060028360026200049191906200098e565b6200049d9190620009d9565b67ffffffffffffffff811115620004b957620004b862000a14565b5b6040519080825280601f01601f191660200182016040528015620004ec5781602001600182028036833780820191505090505b5090507f30000000000000000000000000000000000000000000000000000000000000008160008151811062000527576200052662000a43565b5b60200101907effffffffffffffffffffffffffffffffffffffffffffffffffffffffffffff1916908160001a9053507f7800000000000000000000000000000000000000000000000000000000000000816001815181106200058e576200058d62000a43565b5b60200101907effffffffffffffffffffffffffffffffffffffffffffffffffffffffffffff1916908160001a90535060006001846002620005d091906200098e565b620005dc9190620009d9565b90505b600181111562000686577f3031323334353637383961626364656600000000000000000000000000000000600f86166010811062000622576200062162000a43565b5b1a60f81b8282815181106200063c576200063b62000a43565b5b60200101907effffffffffffffffffffffffffffffffffffffffffffffffffffffffffffff1916908160001a905350600485901c9450806200067e9062000a72565b9050620005df565b5060008414620006cd576040517f08c379a0000000000000000000000000000000000000000000000000000000008152600401620006c49062000af0565b60405180910390fd5b8091505092915050565b600080fd5b600073ffffffffffffffffffffffffffffffffffffffff82169050919050565b60006200070982620006dc565b9050919050565b6200071b81620006fc565b81146200072757600080fd5b50565b6000815190506200073b8162000710565b92915050565b6000602082840312156200075a5762000759620006d7565b5b60006200076a848285016200072a565b91505092915050565b600081905092915050565b7f416363657373436f6e74726f6c3a206163636f756e7420000000000000000000600082015250565b6000620007b660178362000773565b9150620007c3826200077e565b601782019050919050565b600081519050919050565b60005b83811015620007f9578082015181840152602081019050620007dc565b60008484015250505050565b60006200081282620007ce565b6200081e818562000773565b935062000830818560208601620007d9565b80840191505092915050565b7f206973206d697373696e6720726f6c6520000000000000000000000000000000600082015250565b60006200087460118362000773565b915062000881826200083c565b601182019050919050565b60006200089982620007a7565b9150620008a7828562000805565b9150620008b48262000865565b9150620008c2828462000805565b91508190509392505050565b600082825260208201905092915050565b6000601f19601f8301169050919050565b6000620008fd82620007ce565b620009098185620008ce565b93506200091b818560208601620007d9565b6200092681620008df565b840191505092915050565b600060208201905081810360008301526200094d8184620008f0565b905092915050565b6000819050919050565b7f4e487b7100000000000000000000000000000000000000000000000000000000600052601160045260246000fd5b60006200099b8262000955565b9150620009a88362000955565b9250828202620009b88162000955565b91508282048414831517620009d257620009d16200095f565b5b5092915050565b6000620009e68262000955565b9150620009f38362000955565b925082820190508082111562000a0e5762000a0d6200095f565b5b92915050565b7f4e487b7100000000000000000000000000000000000000000000000000000000600052604160045260246000fd5b7f4e487b7100000000000000000000000000000000000000000000000000000000600052603260045260246000fd5b600062000a7f8262000955565b91506000820362000a955762000a946200095f565b5b600182039050919050565b7f537472696e67733a20686578206c656e67746820696e73756666696369656e74600082015250565b600062000ad8602083620008ce565b915062000ae58262000aa0565b602082019050919050565b6000602082019050818103600083015262000b0b8162000ac9565b9050919050565b6133b38062000b226000396000f3fe6080604052600436106100ec5760003560e01c80633b8745211161008a578063a217fddf11610059578063a217fddf14610378578063d0adcdf6146103a3578063d547741f146103cc578063ee4db4e5146103f55761012b565b80633b874521146102d65780636c231060146102e057806391d1485414610310578063924f73071461034d5761012b565b8063248a9ca3116100c6578063248a9ca31461021c5780632f2ff15d1461025957806334d6ff4c1461028257806336568abe146102ad5761012b565b8063019727b41461016557806301ffc9a7146101a25780631b043d5d146101df5761012b565b3661012b577fcf34ef537ac33ee1ac626ca1587a0a7e8e51561e5514f8cb36afa1c5102b3bab60405161011e90611a79565b60405180910390a1600080fd5b7fcf34ef537ac33ee1ac626ca1587a0a7e8e51561e5514f8cb36afa1c5102b3bab60405161015890611a79565b60405180910390a1600080fd5b34801561017157600080fd5b5061018c60048036038101906101879190611cc3565b610420565b6040516101999190611d61565b60405180910390f35b3480156101ae57600080fd5b506101c960048036038101906101c49190611dd4565b6104f3565b6040516101d69190611d61565b60405180910390f35b3480156101eb57600080fd5b5061020660048036038101906102019190611e01565b61056d565b6040516102139190611feb565b60405180910390f35b34801561022857600080fd5b50610243600480360381019061023e919061203c565b61079e565b6040516102509190612078565b60405180910390f35b34801561026557600080fd5b50610280600480360381019061027b9190612093565b6107bd565b005b34801561028e57600080fd5b506102976107de565b6040516102a49190612078565b60405180910390f35b3480156102b957600080fd5b506102d460048036038101906102cf9190612093565b610802565b005b6102de610885565b005b6102fa60048036038101906102f591906120d3565b6109ae565b6040516103079190611feb565b60405180910390f35b34801561031c57600080fd5b5061033760048036038101906103329190612093565b610c83565b6040516103449190611d61565b60405180910390f35b34801561035957600080fd5b50610362610ced565b60405161036f91906123b0565b60405180910390f35b34801561038457600080fd5b5061038d611368565b60405161039a9190612078565b60405180910390f35b3480156103af57600080fd5b506103ca60048036038101906103c591906123d2565b61136f565b005b3480156103d857600080fd5b506103f360048036038101906103ee9190612093565b6113aa565b005b34801561040157600080fd5b5061040a6113cb565b6040516104179190612078565b60405180910390f35b60007f2ec661f4dc1364cd2d7198905b94b6807bc2be6c423cf69e4b7c802f4eb1cf8a61044c81611658565b600460009054906101000a900473ffffffffffffffffffffffffffffffffffffffff1673ffffffffffffffffffffffffffffffffffffffff1663f94e4846878787876040518563ffffffff1660e01b81526004016104ad94939291906124a2565b600060405180830381600087803b1580156104c757600080fd5b505af19250505080156104d8575060015b6104e557600091506104ea565b600191505b50949350505050565b60007f7965db0b000000000000000000000000000000000000000000000000000000007bffffffffffffffffffffffffffffffffffffffffffffffffffffffff1916827bffffffffffffffffffffffffffffffffffffffffffffffffffffffff1916148061056657506105658261166c565b5b9050919050565b60007fcf75f067314df4d0527f2a9e12148d8bd7c8a3f7235b2171d24fa195d2c3ecb961059981611658565b60006105a560026116d6565b90506000604051806101a001604052808e81526020018d81526020018c81526020018f81526020018b81526020018a815260200189815260200188815260200187815260200160001515815260200160011515815260200186815260200183815250905080600560008481526020019081526020016000206000820151816000019081610632919061270d565b506020820151816001019081610648919061270d565b50604082015181600201908161065e919061270d565b506060820151816003019081610674919061270d565b50608082015181600401908161068a919061270d565b5060a08201518160050190816106a0919061270d565b5060c08201518160060190816106b6919061270d565b5060e08201518160070190816106cc919061270d565b506101008201518160080190816106e3919061270d565b506101208201518160090160006101000a81548160ff0219169083151502179055506101408201518160090160016101000a81548160ff02191690831515021790555061016082015181600a015561018082015181600b01559050507ffe591694e9eac710c91c58437b0142ef22ea162aab1c1446d8eb5277d6e31d0e8260056000858152602001908152602001600020604051610782929190612a98565b60405180910390a18193505050509a9950505050505050505050565b6000806000838152602001908152602001600020600101549050919050565b6107c68261079e565b6107cf81611658565b6107d983836116e4565b505050565b7fcf75f067314df4d0527f2a9e12148d8bd7c8a3f7235b2171d24fa195d2c3ecb981565b61080a6117c4565b73ffffffffffffffffffffffffffffffffffffffff168173ffffffffffffffffffffffffffffffffffffffff1614610877576040517f08c379a000000000000000000000000000000000000000000000000000000000815260040161086e90612b4d565b60405180910390fd5b61088182826117cc565b5050565b6000801b61089281611658565b61089a6118ad565b600047905060003373ffffffffffffffffffffffffffffffffffffffff16826040516108c590612b9e565b60006040518083038185875af1925050503d8060008114610902576040519150601f19603f3d011682016040523d82523d6000602084013e610907565b606091505b505090508061094b576040517f08c379a000000000000000000000000000000000000000000000000000000000815260040161094290612bff565b60405180910390fd5b7fcf34ef537ac33ee1ac626ca1587a0a7e8e51561e5514f8cb36afa1c5102b3bab8260405160200161097d9190612c97565b6040516020818303038152906040526040516109999190612cbd565b60405180910390a150506109ab6118fc565b50565b6000600115156005600084815260200190815260200160002060090160019054906101000a900460ff16151514610a1a576040517f08c379a0000000000000000000000000000000000000000000000000000000008152600401610a1190612d2b565b60405180910390fd5b600015156005600084815260200190815260200160002060090160009054906101000a900460ff16151514610a84576040517f08c379a0000000000000000000000000000000000000000000000000000000008152600401610a7b90612d97565b60405180910390fd5b60056000838152602001908152602001600020600a0154341015610add576040517f08c379a0000000000000000000000000000000000000000000000000000000008152600401610ad490612e03565b60405180910390fd5b600460009054906101000a900473ffffffffffffffffffffffffffffffffffffffff1673ffffffffffffffffffffffffffffffffffffffff16637f511f60336005600086815260200190815260200160002060030160056000878152602001908152602001600020600801600560008881526020019081526020016000206007016040518563ffffffff1660e01b8152600401610b7d9493929190612ea7565b6020604051808303816000875af1925050508015610bb957506040513d601f19601f82011682018060405250810190610bb69190612f16565b60015b610bf7577fcf34ef537ac33ee1ac626ca1587a0a7e8e51561e5514f8cb36afa1c5102b3bab604051610bea90612fb5565b60405180910390a1600080fd5b60016005600085815260200190815260200160002060090160006101000a81548160ff0219169083151502179055508060056000858152602001908152602001600020600b01819055507f7f7dada9e0d2e0b68ea025179eeca3b34d40e60d5ff418726bc785f013b897ba8133604051610c72929190613021565b60405180910390a180915050919050565b600080600084815260200190815260200160002060000160008373ffffffffffffffffffffffffffffffffffffffff1673ffffffffffffffffffffffffffffffffffffffff16815260200190815260200160002060009054906101000a900460ff16905092915050565b6060600080610cfc60026116d6565b67ffffffffffffffff811115610d1557610d14611b98565b5b604051908082528060200260200182016040528015610d4e57816020015b610d3b61198a565b815260200190600190039081610d335790505b50905060005b610d5e60026116d6565b81101561135f57600115156005600083815260200190815260200160002060090160019054906101000a900460ff1615150361134c5760056000828152602001908152602001600020604051806101a0016040529081600082018054610dc390612530565b80601f0160208091040260200160405190810160405280929190818152602001828054610def90612530565b8015610e3c5780601f10610e1157610100808354040283529160200191610e3c565b820191906000526020600020905b815481529060010190602001808311610e1f57829003601f168201915b50505050508152602001600182018054610e5590612530565b80601f0160208091040260200160405190810160405280929190818152602001828054610e8190612530565b8015610ece5780601f10610ea357610100808354040283529160200191610ece565b820191906000526020600020905b815481529060010190602001808311610eb157829003601f168201915b50505050508152602001600282018054610ee790612530565b80601f0160208091040260200160405190810160405280929190818152602001828054610f1390612530565b8015610f605780601f10610f3557610100808354040283529160200191610f60565b820191906000526020600020905b815481529060010190602001808311610f4357829003601f168201915b50505050508152602001600382018054610f7990612530565b80601f0160208091040260200160405190810160405280929190818152602001828054610fa590612530565b8015610ff25780601f10610fc757610100808354040283529160200191610ff2565b820191906000526020600020905b815481529060010190602001808311610fd557829003601f168201915b5050505050815260200160048201805461100b90612530565b80601f016020809104026020016040519081016040528092919081815260200182805461103790612530565b80156110845780601f1061105957610100808354040283529160200191611084565b820191906000526020600020905b81548152906001019060200180831161106757829003601f168201915b5050505050815260200160058201805461109d90612530565b80601f01602080910402602001604051908101604052809291908181526020018280546110c990612530565b80156111165780601f106110eb57610100808354040283529160200191611116565b820191906000526020600020905b8154815290600101906020018083116110f957829003601f168201915b5050505050815260200160068201805461112f90612530565b80601f016020809104026020016040519081016040528092919081815260200182805461115b90612530565b80156111a85780601f1061117d576101008083540402835291602001916111a8565b820191906000526020600020905b81548152906001019060200180831161118b57829003601f168201915b505050505081526020016007820180546111c190612530565b80601f01602080910402602001604051908101604052809291908181526020018280546111ed90612530565b801561123a5780601f1061120f5761010080835404028352916020019161123a565b820191906000526020600020905b81548152906001019060200180831161121d57829003601f168201915b5050505050815260200160088201805461125390612530565b80601f016020809104026020016040519081016040528092919081815260200182805461127f90612530565b80156112cc5780601f106112a1576101008083540402835291602001916112cc565b820191906000526020600020905b8154815290600101906020018083116112af57829003601f168201915b505050505081526020016009820160009054906101000a900460ff161515151581526020016009820160019054906101000a900460ff16151515158152602001600a8201548152602001600b820154815250508284815181106113325761133161305d565b5b60200260200101819052508280611348906130bb565b9350505b8080611357906130bb565b915050610d54565b50809250505090565b6000801b81565b6000801b61137c81611658565b6113a67f2ec661f4dc1364cd2d7198905b94b6807bc2be6c423cf69e4b7c802f4eb1cf8a836116e4565b5050565b6113b38261079e565b6113bc81611658565b6113c683836117cc565b505050565b7f2ec661f4dc1364cd2d7198905b94b6807bc2be6c423cf69e4b7c802f4eb1cf8a81565b60606114158273ffffffffffffffffffffffffffffffffffffffff16601460ff1661141c565b9050919050565b60606000600283600261142f9190613103565b6114399190613145565b67ffffffffffffffff81111561145257611451611b98565b5b6040519080825280601f01601f1916602001820160405280156114845781602001600182028036833780820191505090505b5090507f3000000000000000000000000000000000000000000000000000000000000000816000815181106114bc576114bb61305d565b5b60200101907effffffffffffffffffffffffffffffffffffffffffffffffffffffffffffff1916908160001a9053507f7800000000000000000000000000000000000000000000000000000000000000816001815181106115205761151f61305d565b5b60200101907effffffffffffffffffffffffffffffffffffffffffffffffffffffffffffff1916908160001a905350600060018460026115609190613103565b61156a9190613145565b90505b600181111561160a577f3031323334353637383961626364656600000000000000000000000000000000600f8616601081106115ac576115ab61305d565b5b1a60f81b8282815181106115c3576115c261305d565b5b60200101907effffffffffffffffffffffffffffffffffffffffffffffffffffffffffffff1916908160001a905350600485901c94508061160390613179565b905061156d565b506000841461164e576040517f08c379a0000000000000000000000000000000000000000000000000000000008152600401611645906131ee565b60405180910390fd5b8091505092915050565b611669816116646117c4565b611905565b50565b60007f01ffc9a7000000000000000000000000000000000000000000000000000000007bffffffffffffffffffffffffffffffffffffffffffffffffffffffff1916827bffffffffffffffffffffffffffffffffffffffffffffffffffffffff1916149050919050565b600081600001549050919050565b6116ee8282610c83565b6117c057600160008084815260200190815260200160002060000160008373ffffffffffffffffffffffffffffffffffffffff1673ffffffffffffffffffffffffffffffffffffffff16815260200190815260200160002060006101000a81548160ff0219169083151502179055506117656117c4565b73ffffffffffffffffffffffffffffffffffffffff168173ffffffffffffffffffffffffffffffffffffffff16837f2f8788117e7eff1d82e926ec794901d17c78024a50270940304540a733656f0d60405160405180910390a45b5050565b600033905090565b6117d68282610c83565b156118a957600080600084815260200190815260200160002060000160008373ffffffffffffffffffffffffffffffffffffffff1673ffffffffffffffffffffffffffffffffffffffff16815260200190815260200160002060006101000a81548160ff02191690831515021790555061184e6117c4565b73ffffffffffffffffffffffffffffffffffffffff168173ffffffffffffffffffffffffffffffffffffffff16837ff6391f5c32d9c69d2a47ea670b442974b53935d1edc7fd64eb21e047a839171b60405160405180910390a45b5050565b6002600154036118f2576040517f08c379a00000000000000000000000000000000000000000000000000000000081526004016118e99061325a565b60405180910390fd5b6002600181905550565b60018081905550565b61190f8282610c83565b6119865761191c816113ef565b61192a8360001c602061141c565b60405160200161193b929190613343565b6040516020818303038152906040526040517f08c379a000000000000000000000000000000000000000000000000000000000815260040161197d9190612cbd565b60405180910390fd5b5050565b604051806101a0016040528060608152602001606081526020016060815260200160608152602001606081526020016060815260200160608152602001606081526020016060815260200160001515815260200160001515815260200160008152602001600081525090565b600082825260208201905092915050565b7f526576657274696e67202e2e2e74727920746f2062757920612063617220667260008201527f6f6d206f6e65206f66206f75722073746f726500000000000000000000000000602082015250565b6000611a636033836119f6565b9150611a6e82611a07565b604082019050919050565b60006020820190508181036000830152611a9281611a56565b9050919050565b6000604051905090565b600080fd5b600080fd5b600073ffffffffffffffffffffffffffffffffffffffff82169050919050565b6000611ad882611aad565b9050919050565b611ae881611acd565b8114611af357600080fd5b50565b600081359050611b0581611adf565b92915050565b6000819050919050565b611b1e81611b0b565b8114611b2957600080fd5b50565b600081359050611b3b81611b15565b92915050565b600063ffffffff82169050919050565b611b5a81611b41565b8114611b6557600080fd5b50565b600081359050611b7781611b51565b92915050565b600080fd5b600080fd5b6000601f19601f8301169050919050565b7f4e487b7100000000000000000000000000000000000000000000000000000000600052604160045260246000fd5b611bd082611b87565b810181811067ffffffffffffffff82111715611bef57611bee611b98565b5b80604052505050565b6000611c02611a99565b9050611c0e8282611bc7565b919050565b600067ffffffffffffffff821115611c2e57611c2d611b98565b5b611c3782611b87565b9050602081019050919050565b82818337600083830152505050565b6000611c66611c6184611c13565b611bf8565b905082815260208101848484011115611c8257611c81611b82565b5b611c8d848285611c44565b509392505050565b600082601f830112611caa57611ca9611b7d565b5b8135611cba848260208601611c53565b91505092915050565b60008060008060808587031215611cdd57611cdc611aa3565b5b6000611ceb87828801611af6565b9450506020611cfc87828801611b2c565b9350506040611d0d87828801611b68565b925050606085013567ffffffffffffffff811115611d2e57611d2d611aa8565b5b611d3a87828801611c95565b91505092959194509250565b60008115159050919050565b611d5b81611d46565b82525050565b6000602082019050611d766000830184611d52565b92915050565b60007fffffffff0000000000000000000000000000000000000000000000000000000082169050919050565b611db181611d7c565b8114611dbc57600080fd5b50565b600081359050611dce81611da8565b92915050565b600060208284031215611dea57611de9611aa3565b5b6000611df884828501611dbf565b91505092915050565b6000806000806000806000806000806101408b8d031215611e2557611e24611aa3565b5b60008b013567ffffffffffffffff811115611e4357611e42611aa8565b5b611e4f8d828e01611c95565b9a505060208b013567ffffffffffffffff811115611e7057611e6f611aa8565b5b611e7c8d828e01611c95565b99505060408b013567ffffffffffffffff811115611e9d57611e9c611aa8565b5b611ea98d828e01611c95565b98505060608b013567ffffffffffffffff811115611eca57611ec9611aa8565b5b611ed68d828e01611c95565b97505060808b013567ffffffffffffffff811115611ef757611ef6611aa8565b5b611f038d828e01611c95565b96505060a08b013567ffffffffffffffff811115611f2457611f23611aa8565b5b611f308d828e01611c95565b95505060c08b013567ffffffffffffffff811115611f5157611f50611aa8565b5b611f5d8d828e01611c95565b94505060e08b013567ffffffffffffffff811115611f7e57611f7d611aa8565b5b611f8a8d828e01611c95565b9350506101008b013567ffffffffffffffff811115611fac57611fab611aa8565b5b611fb88d828e01611c95565b925050610120611fca8d828e01611b2c565b9150509295989b9194979a5092959850565b611fe581611b0b565b82525050565b60006020820190506120006000830184611fdc565b92915050565b6000819050919050565b61201981612006565b811461202457600080fd5b50565b60008135905061203681612010565b92915050565b60006020828403121561205257612051611aa3565b5b600061206084828501612027565b91505092915050565b61207281612006565b82525050565b600060208201905061208d6000830184612069565b92915050565b600080604083850312156120aa576120a9611aa3565b5b60006120b885828601612027565b92505060206120c985828601611af6565b9150509250929050565b6000602082840312156120e9576120e8611aa3565b5b60006120f784828501611b2c565b91505092915050565b600081519050919050565b600082825260208201905092915050565b6000819050602082019050919050565b600081519050919050565b600082825260208201905092915050565b60005b8381101561216657808201518184015260208101905061214b565b60008484015250505050565b600061217d8261212c565b6121878185612137565b9350612197818560208601612148565b6121a081611b87565b840191505092915050565b6121b481611d46565b82525050565b6121c381611b0b565b82525050565b60006101a08301600083015184820360008601526121e78282612172565b915050602083015184820360208601526122018282612172565b9150506040830151848203604086015261221b8282612172565b915050606083015184820360608601526122358282612172565b9150506080830151848203608086015261224f8282612172565b91505060a083015184820360a08601526122698282612172565b91505060c083015184820360c08601526122838282612172565b91505060e083015184820360e086015261229d8282612172565b9150506101008301518482036101008601526122b98282612172565b9150506101208301516122d06101208601826121ab565b506101408301516122e56101408601826121ab565b506101608301516122fa6101608601826121ba565b5061018083015161230f6101808601826121ba565b508091505092915050565b600061232683836121c9565b905092915050565b6000602082019050919050565b600061234682612100565b612350818561210b565b9350836020820285016123628561211c565b8060005b8581101561239e578484038952815161237f858261231a565b945061238a8361232e565b925060208a01995050600181019050612366565b50829750879550505050505092915050565b600060208201905081810360008301526123ca818461233b565b905092915050565b6000602082840312156123e8576123e7611aa3565b5b60006123f684828501611af6565b91505092915050565b61240881611acd565b82525050565b61241781611b41565b82525050565b60006124288261212c565b61243281856119f6565b9350612442818560208601612148565b61244b81611b87565b840191505092915050565b7f43727970746f4361720000000000000000000000000000000000000000000000600082015250565b600061248c6009836119f6565b915061249782612456565b602082019050919050565b600060a0820190506124b760008301876123ff565b6124c46020830186611fdc565b6124d1604083018561240e565b81810360608301526124e3818461241d565b905081810360808301526124f68161247f565b905095945050505050565b7f4e487b7100000000000000000000000000000000000000000000000000000000600052602260045260246000fd5b6000600282049050600182168061254857607f821691505b60208210810361255b5761255a612501565b5b50919050565b60008190508160005260206000209050919050565b60006020601f8301049050919050565b600082821b905092915050565b6000600883026125c37fffffffffffffffffffffffffffffffffffffffffffffffffffffffffffffffff82612586565b6125cd8683612586565b95508019841693508086168417925050509392505050565b6000819050919050565b600061260a61260561260084611b0b565b6125e5565b611b0b565b9050919050565b6000819050919050565b612624836125ef565b61263861263082612611565b848454612593565b825550505050565b600090565b61264d612640565b61265881848461261b565b505050565b5b8181101561267c57612671600082612645565b60018101905061265e565b5050565b601f8211156126c15761269281612561565b61269b84612576565b810160208510156126aa578190505b6126be6126b685612576565b83018261265d565b50505b505050565b600082821c905092915050565b60006126e4600019846008026126c6565b1980831691505092915050565b60006126fd83836126d3565b9150826002028217905092915050565b6127168261212c565b67ffffffffffffffff81111561272f5761272e611b98565b5b6127398254612530565b612744828285612680565b600060209050601f8311600181146127775760008415612765578287015190505b61276f85826126f1565b8655506127d7565b601f19841661278586612561565b60005b828110156127ad57848901518255600182019150602085019450602081019050612788565b868310156127ca57848901516127c6601f8916826126d3565b8355505b6001600288020188555050505b505050505050565b7f4e657720636172206a6f696e656420746f20746865206c697374000000000000600082015250565b6000612815601a836119f6565b9150612820826127df565b602082019050919050565b6000815461283881612530565b6128428186612137565b9450600182166000811461285d5760018114612873576128a6565b60ff1983168652811515602002860193506128a6565b61287c85612561565b60005b8381101561289e5781548189015260018201915060208101905061287f565b808801955050505b50505092915050565b60008160001c9050919050565b600060ff82169050919050565b60006128dc6128d7836128af565b6128bc565b9050919050565b60008160081c9050919050565b60006129036128fe836128e3565b6128bc565b9050919050565b6000819050919050565b6000612927612922836128af565b61290a565b9050919050565b60006101a083016000808401858303600087015261294c838261282b565b925050600184018583036020870152612965838261282b565b92505060028401858303604087015261297e838261282b565b925050600384018583036060870152612997838261282b565b9250506004840185830360808701526129b0838261282b565b9250506005840185830360a08701526129c9838261282b565b9250506006840185830360c08701526129e2838261282b565b9250506007840185830360e08701526129fb838261282b565b92505060088401858303610100870152612a15838261282b565b92505060098401549050612a28816128c9565b612a366101208701826121ab565b50612a40816128f0565b612a4e6101408701826121ab565b50600a8401549050612a5f81612914565b612a6d6101608701826121ba565b50600b8401549050612a7e81612914565b612a8c6101808701826121ba565b50819250505092915050565b60006060820190508181036000830152612ab181612808565b9050612ac06020830185611fdc565b8181036040830152612ad2818461292e565b90509392505050565b7f416363657373436f6e74726f6c3a2063616e206f6e6c792072656e6f756e636560008201527f20726f6c657320666f722073656c660000000000000000000000000000000000602082015250565b6000612b37602f836119f6565b9150612b4282612adb565b604082019050919050565b60006020820190508181036000830152612b6681612b2a565b9050919050565b600081905092915050565b50565b6000612b88600083612b6d565b9150612b9382612b78565b600082019050919050565b6000612ba982612b7b565b9150819050919050565b7f4661696c6564207769746864726f772045746865720000000000000000000000600082015250565b6000612be96015836119f6565b9150612bf482612bb3565b602082019050919050565b60006020820190508181036000830152612c1881612bdc565b9050919050565b600081905092915050565b7f5769746864726f772068617070656e203a200000000000000000000000000000600082015250565b6000612c60601283612c1f565b9150612c6b82612c2a565b601282019050919050565b6000819050919050565b612c91612c8c82611b0b565b612c76565b82525050565b6000612ca282612c53565b9150612cae8284612c80565b60208201915081905092915050565b60006020820190508181036000830152612cd7818461241d565b905092915050565b7f5468652063617220646f65736e27742065786973747300000000000000000000600082015250565b6000612d156016836119f6565b9150612d2082612cdf565b602082019050919050565b60006020820190508181036000830152612d4481612d08565b9050919050565b7f416c726561647920736f6c640000000000000000000000000000000000000000600082015250565b6000612d81600c836119f6565b9150612d8c82612d4b565b602082019050919050565b60006020820190508181036000830152612db081612d74565b9050919050565b7f496e73756666696369656e742066756e64730000000000000000000000000000600082015250565b6000612ded6012836119f6565b9150612df882612db7565b602082019050919050565b60006020820190508181036000830152612e1c81612de0565b9050919050565b60008154612e3081612530565b612e3a81866119f6565b94506001821660008114612e555760018114612e6b57612e9e565b60ff198316865281151560200286019350612e9e565b612e7485612561565b60005b83811015612e9657815481890152600182019150602081019050612e77565b808801955050505b50505092915050565b6000608082019050612ebc60008301876123ff565b8181036020830152612ece8186612e23565b90508181036040830152612ee28185612e23565b90508181036060830152612ef68184612e23565b905095945050505050565b600081519050612f1081611b15565b92915050565b600060208284031215612f2c57612f2b611aa3565b5b6000612f3a84828501612f01565b91505092915050565b7f416e206572726f72206f63637572656420647572696e6720636172206372656160008201527f74696f6e00000000000000000000000000000000000000000000000000000000602082015250565b6000612f9f6024836119f6565b9150612faa82612f43565b604082019050919050565b60006020820190508181036000830152612fce81612f92565b9050919050565b7f4361722063726561746564000000000000000000000000000000000000000000600082015250565b600061300b600b836119f6565b915061301682612fd5565b602082019050919050565b6000606082019050818103600083015261303a81612ffe565b90506130496020830185611fdc565b61305660408301846123ff565b9392505050565b7f4e487b7100000000000000000000000000000000000000000000000000000000600052603260045260246000fd5b7f4e487b7100000000000000000000000000000000000000000000000000000000600052601160045260246000fd5b60006130c682611b0b565b91507fffffffffffffffffffffffffffffffffffffffffffffffffffffffffffffffff82036130f8576130f761308c565b5b600182019050919050565b600061310e82611b0b565b915061311983611b0b565b925082820261312781611b0b565b9150828204841483151761313e5761313d61308c565b5b5092915050565b600061315082611b0b565b915061315b83611b0b565b92508282019050808211156131735761317261308c565b5b92915050565b600061318482611b0b565b9150600082036131975761319661308c565b5b600182039050919050565b7f537472696e67733a20686578206c656e67746820696e73756666696369656e74600082015250565b60006131d86020836119f6565b91506131e3826131a2565b602082019050919050565b60006020820190508181036000830152613207816131cb565b9050919050565b7f5265656e7472616e637947756172643a207265656e7472616e742063616c6c00600082015250565b6000613244601f836119f6565b915061324f8261320e565b602082019050919050565b6000602082019050818103600083015261327381613237565b9050919050565b7f416363657373436f6e74726f6c3a206163636f756e7420000000000000000000600082015250565b60006132b0601783612c1f565b91506132bb8261327a565b601782019050919050565b60006132d18261212c565b6132db8185612c1f565b93506132eb818560208601612148565b80840191505092915050565b7f206973206d697373696e6720726f6c6520000000000000000000000000000000600082015250565b600061332d601183612c1f565b9150613338826132f7565b601182019050919050565b600061334e826132a3565b915061335a82856132c6565b915061336582613320565b915061337182846132c6565b9150819050939250505056fea26469706673582212202d0d00cc6aff528e82a7426c849ca8ad378ee1036a1ec60266af173a0c4f66a164736f6c63430008110033",
  "immutableReferences": {},
  "source": "// SPDX-License-Identifier: MIT\npragma solidity ^0.8.9;\n\nimport \"@openzeppelin/contracts/access/AccessControl.sol\";\nimport \"@openzeppelin/contracts/utils/Counters.sol\";\nimport \"@openzeppelin/contracts/security/ReentrancyGuard.sol\";\n\n\ninterface ICarLedger {\n\n\tfunction createCar(address to , string memory _model, string memory _url_info, string memory _optionals  ) external returns (uint256); \n\n\tfunction addDealer(address dealer) external;\n\n\tfunction addService(address client, uint256 tokenId, uint32 _km, string memory _operation, string memory _office) external;\n\n\tfunction addStation(address serv) external;  \n\n}\n\ncontract CryptoCar is AccessControl, ReentrancyGuard {\n\t using Counters for Counters.Counter; \n\n    Counters.Counter private _tokenIdCounter;\n\n\tevent Log(string message);\n\tevent CarCreation( string message, uint256 tokenId, address to); \n\tevent CarAdd( string message, uint256 id, Info info); \n\n\tbytes32 public constant DEALER_ROLE = keccak256(\"DEALER_ROLE\");\n    bytes32 public constant MEC_ROLE = keccak256(\"MEC_ROLE\");\n\n\taddress payable private _owner;  \n\tICarLedger private carLedger; \n\n\tstruct Info { \n\n\t\tstring name;\n\t\tstring picture; \n        string age_production; \n\t\tstring model;\n\t\tstring staging; \n\t\tstring motor;\n\t\tstring power;  \n        string optionals; \n        string url_info; \n        bool isSold;\n\t\tbool isSet;\n\t\tuint256 price; //wei\n\t\tuint256 tokenId;    \n    }\n\n\tmapping(uint256 => Info) private list;\n\n\tconstructor( address ledger ){\n\n\t\t_owner =payable (msg.sender);\n\t\t_setupRole(DEFAULT_ADMIN_ROLE, _owner);\n\t\tgrantRole(DEALER_ROLE, _owner);\n\t\tgrantRole(MEC_ROLE, _owner);\n\t\tcarLedger = ICarLedger(ledger);\n\n\t}\n\n\tfunction addMech(address mec) public onlyRole(DEFAULT_ADMIN_ROLE) {\n        _grantRole(MEC_ROLE, mec);\n    }\n\n\tfunction insertServiceCustomer(address client, uint256 tokenId, uint32 _km, string memory _operation) public onlyRole(MEC_ROLE) returns (bool)  {\n\n\t\ttry\tcarLedger.addService(client, tokenId, _km, _operation, \"CryptoCar\")\n\t\t{\n\t\t\treturn true; \n\t\t\n\t\t}catch \n\t\t{\n\t\t\treturn false;\n\t\t} \n\t}\n\n\tfunction getCarList() public view returns( Info[] memory){\n\t\t\n\t\tuint j  = 0; \n\t\tInfo[] memory cars = new Info[](_tokenIdCounter.current());\n    \tfor (uint i = 0; i < _tokenIdCounter.current(); i++) {\n        \t\n\t\t\tif(list[i].isSet == true)\n\t\t\t{\t\n\t\t\t\tcars[j] = list[i];\n\t\t\t\tj++; \n\t\t\t}\n    }\n\n    \treturn cars; \n\t}\n\n\tfunction addCar(string memory model, string memory name, string memory picture, string memory age_prod, string memory staging, string memory motor, string memory power, string memory optionals, string memory url_info, uint256 price) external onlyRole(DEALER_ROLE) returns (uint256) {\n\n\t\tuint256 Id = _tokenIdCounter.current(); \n\t\tInfo memory _newInfo = Info(name,picture,age_prod ,model, staging, motor, power, optionals, url_info, false, true, price, Id);\n\t\tlist[Id] = _newInfo; \n\t\temit CarAdd(\"New car joined to the list\", Id, list[Id]);\n\t\treturn Id; \n\t}    \n \n\n\tfunction buyCar( uint256 idCar ) public payable returns (uint)  {\n\n\t\trequire(list[idCar].isSet == true , \"The car doesn't exists\");\n\t\trequire(list[idCar].isSold == false ,\"Already sold\");\n\t\trequire(msg.value >= list[idCar].price , \"Insufficient funds\" ); \n\t\t\n\t\ttry carLedger.createCar(msg.sender, list[idCar].model, list[idCar].url_info, list[idCar].optionals) returns(uint256 carId)\n\t\t{\n\t\t\tlist[idCar].isSold = true;\n\t\t\tlist[idCar].tokenId = carId;\n\t\t\temit CarCreation(\"Car created\", carId, msg.sender);\n\t\t\treturn carId;\n\n\t\t}catch\n\t\t{\n\t\t\temit Log(\"An error occured during car creation\");\n\t\t\trevert();\n\t\t}\n\t}\n\n\tfunction withdrow() external payable onlyRole(DEFAULT_ADMIN_ROLE) nonReentrant()  {\n\n\t\tuint256 balance = address(this).balance;\n\t\t(bool sent,) = msg.sender.call{value: balance}(\"\");\n        require(sent, \"Failed withdrow Ether\");\n\t\temit Log( string(abi.encodePacked(\"Withdrow happen : \", balance)) );\n\n\t}\n\n\treceive() external payable{\n\n\t\temit Log(\"Reverting ...try to buy a car from one of our store\");\n\t\trevert();\n\n\t}\n\tfallback() external payable{\n\n\t\temit Log(\"Reverting ...try to buy a car from one of our store\");\n\t\trevert();\n\n\t}\n\n\t\n\n\n\n\t\n\n}\n",
  "sourcePath": "D:\\ethCar\\contracts\\CryptoCar.sol",
  "compiler": {
    "name": "solc",
    "version": "0.8.17+commit.8df45f5f.Emscripten.clang"
  },
  "schemaVersion": "3.4.11",
  "updatedAt": "2023-02-09T16:28:23.800Z",
  "networkType": "ethereum",
  "devdoc": {
    "kind": "dev",
    "methods": {
      "getRoleAdmin(bytes32)": {
        "details": "Returns the admin role that controls `role`. See {grantRole} and {revokeRole}. To change a role's admin, use {_setRoleAdmin}."
      },
      "grantRole(bytes32,address)": {
        "details": "Grants `role` to `account`. If `account` had not been already granted `role`, emits a {RoleGranted} event. Requirements: - the caller must have ``role``'s admin role. May emit a {RoleGranted} event."
      },
      "hasRole(bytes32,address)": {
        "details": "Returns `true` if `account` has been granted `role`."
      },
      "renounceRole(bytes32,address)": {
        "details": "Revokes `role` from the calling account. Roles are often managed via {grantRole} and {revokeRole}: this function's purpose is to provide a mechanism for accounts to lose their privileges if they are compromised (such as when a trusted device is misplaced). If the calling account had been revoked `role`, emits a {RoleRevoked} event. Requirements: - the caller must be `account`. May emit a {RoleRevoked} event."
      },
      "revokeRole(bytes32,address)": {
        "details": "Revokes `role` from `account`. If `account` had been granted `role`, emits a {RoleRevoked} event. Requirements: - the caller must have ``role``'s admin role. May emit a {RoleRevoked} event."
      },
      "supportsInterface(bytes4)": {
        "details": "See {IERC165-supportsInterface}."
      }
    },
    "version": 1
  },
  "userdoc": {
    "kind": "user",
    "methods": {},
    "version": 1
  }
}