{
  "contractName": "CryptoCar",
  "abi": [
    {
      "inputs": [
        {
          "internalType": "address",
          "name": "ledger",
          "type": "address"
        }
      ],
      "stateMutability": "nonpayable",
      "type": "constructor"
    },
    {
      "anonymous": false,
      "inputs": [
        {
          "indexed": false,
          "internalType": "string",
          "name": "message",
          "type": "string"
        },
        {
          "indexed": false,
          "internalType": "string",
          "name": "id",
          "type": "string"
        },
        {
          "indexed": false,
          "internalType": "string",
          "name": "model",
          "type": "string"
        }
      ],
      "name": "CarAdd",
      "type": "event"
    },
    {
      "anonymous": false,
      "inputs": [
        {
          "indexed": false,
          "internalType": "string",
          "name": "message",
          "type": "string"
        },
        {
          "indexed": false,
          "internalType": "string",
          "name": "tokenId",
          "type": "string"
        },
        {
          "indexed": false,
          "internalType": "address",
          "name": "to",
          "type": "address"
        }
      ],
      "name": "CarCreation",
      "type": "event"
    },
    {
      "anonymous": false,
      "inputs": [
        {
          "indexed": false,
          "internalType": "string",
          "name": "message",
          "type": "string"
        }
      ],
      "name": "Log",
      "type": "event"
    },
    {
      "anonymous": false,
      "inputs": [
        {
          "indexed": true,
          "internalType": "bytes32",
          "name": "role",
          "type": "bytes32"
        },
        {
          "indexed": true,
          "internalType": "bytes32",
          "name": "previousAdminRole",
          "type": "bytes32"
        },
        {
          "indexed": true,
          "internalType": "bytes32",
          "name": "newAdminRole",
          "type": "bytes32"
        }
      ],
      "name": "RoleAdminChanged",
      "type": "event"
    },
    {
      "anonymous": false,
      "inputs": [
        {
          "indexed": true,
          "internalType": "bytes32",
          "name": "role",
          "type": "bytes32"
        },
        {
          "indexed": true,
          "internalType": "address",
          "name": "account",
          "type": "address"
        },
        {
          "indexed": true,
          "internalType": "address",
          "name": "sender",
          "type": "address"
        }
      ],
      "name": "RoleGranted",
      "type": "event"
    },
    {
      "anonymous": false,
      "inputs": [
        {
          "indexed": true,
          "internalType": "bytes32",
          "name": "role",
          "type": "bytes32"
        },
        {
          "indexed": true,
          "internalType": "address",
          "name": "account",
          "type": "address"
        },
        {
          "indexed": true,
          "internalType": "address",
          "name": "sender",
          "type": "address"
        }
      ],
      "name": "RoleRevoked",
      "type": "event"
    },
    {
      "stateMutability": "payable",
      "type": "fallback",
      "payable": true
    },
    {
      "inputs": [],
      "name": "DEALER_ROLE",
      "outputs": [
        {
          "internalType": "bytes32",
          "name": "",
          "type": "bytes32"
        }
      ],
      "stateMutability": "view",
      "type": "function",
      "constant": true
    },
    {
      "inputs": [],
      "name": "DEFAULT_ADMIN_ROLE",
      "outputs": [
        {
          "internalType": "bytes32",
          "name": "",
          "type": "bytes32"
        }
      ],
      "stateMutability": "view",
      "type": "function",
      "constant": true
    },
    {
      "inputs": [],
      "name": "MEC_ROLE",
      "outputs": [
        {
          "internalType": "bytes32",
          "name": "",
          "type": "bytes32"
        }
      ],
      "stateMutability": "view",
      "type": "function",
      "constant": true
    },
    {
      "inputs": [
        {
          "internalType": "bytes32",
          "name": "role",
          "type": "bytes32"
        }
      ],
      "name": "getRoleAdmin",
      "outputs": [
        {
          "internalType": "bytes32",
          "name": "",
          "type": "bytes32"
        }
      ],
      "stateMutability": "view",
      "type": "function",
      "constant": true
    },
    {
      "inputs": [
        {
          "internalType": "bytes32",
          "name": "role",
          "type": "bytes32"
        },
        {
          "internalType": "address",
          "name": "account",
          "type": "address"
        }
      ],
      "name": "grantRole",
      "outputs": [],
      "stateMutability": "nonpayable",
      "type": "function"
    },
    {
      "inputs": [
        {
          "internalType": "bytes32",
          "name": "role",
          "type": "bytes32"
        },
        {
          "internalType": "address",
          "name": "account",
          "type": "address"
        }
      ],
      "name": "hasRole",
      "outputs": [
        {
          "internalType": "bool",
          "name": "",
          "type": "bool"
        }
      ],
      "stateMutability": "view",
      "type": "function",
      "constant": true
    },
    {
      "inputs": [
        {
          "internalType": "bytes32",
          "name": "role",
          "type": "bytes32"
        },
        {
          "internalType": "address",
          "name": "account",
          "type": "address"
        }
      ],
      "name": "renounceRole",
      "outputs": [],
      "stateMutability": "nonpayable",
      "type": "function"
    },
    {
      "inputs": [
        {
          "internalType": "bytes32",
          "name": "role",
          "type": "bytes32"
        },
        {
          "internalType": "address",
          "name": "account",
          "type": "address"
        }
      ],
      "name": "revokeRole",
      "outputs": [],
      "stateMutability": "nonpayable",
      "type": "function"
    },
    {
      "inputs": [
        {
          "internalType": "bytes4",
          "name": "interfaceId",
          "type": "bytes4"
        }
      ],
      "name": "supportsInterface",
      "outputs": [
        {
          "internalType": "bool",
          "name": "",
          "type": "bool"
        }
      ],
      "stateMutability": "view",
      "type": "function",
      "constant": true
    },
    {
      "stateMutability": "payable",
      "type": "receive",
      "payable": true
    },
    {
      "inputs": [
        {
          "internalType": "address",
          "name": "mec",
          "type": "address"
        }
      ],
      "name": "addMech",
      "outputs": [],
      "stateMutability": "nonpayable",
      "type": "function"
    },
    {
      "inputs": [
        {
          "internalType": "uint256",
          "name": "tokenId",
          "type": "uint256"
        },
        {
          "internalType": "uint32",
          "name": "_km",
          "type": "uint32"
        },
        {
          "internalType": "string",
          "name": "_operation",
          "type": "string"
        }
      ],
      "name": "insertServiceCustomer",
      "outputs": [
        {
          "internalType": "bool",
          "name": "",
          "type": "bool"
        }
      ],
      "stateMutability": "nonpayable",
      "type": "function"
    },
    {
      "inputs": [],
      "name": "getCarList",
      "outputs": [
        {
          "components": [
            {
              "internalType": "string",
              "name": "name",
              "type": "string"
            },
            {
              "internalType": "string",
              "name": "picture",
              "type": "string"
            },
            {
              "internalType": "string",
              "name": "age_production",
              "type": "string"
            },
            {
              "internalType": "string",
              "name": "model",
              "type": "string"
            },
            {
              "internalType": "string",
              "name": "staging",
              "type": "string"
            },
            {
              "internalType": "string",
              "name": "motor",
              "type": "string"
            },
            {
              "internalType": "string",
              "name": "power",
              "type": "string"
            },
            {
              "internalType": "string",
              "name": "optionals",
              "type": "string"
            },
            {
              "internalType": "string",
              "name": "url_info",
              "type": "string"
            },
            {
              "internalType": "bool",
              "name": "isSold",
              "type": "bool"
            },
            {
              "internalType": "bool",
              "name": "isSet",
              "type": "bool"
            },
            {
              "internalType": "uint256",
              "name": "price",
              "type": "uint256"
            },
            {
              "internalType": "uint256",
              "name": "tokenId",
              "type": "uint256"
            }
          ],
          "internalType": "struct CryptoCar.Info[]",
          "name": "",
          "type": "tuple[]"
        }
      ],
      "stateMutability": "view",
      "type": "function",
      "constant": true
    },
    {
      "inputs": [
        {
          "internalType": "string",
          "name": "model",
          "type": "string"
        },
        {
          "internalType": "string",
          "name": "name",
          "type": "string"
        },
        {
          "internalType": "string",
          "name": "picture",
          "type": "string"
        },
        {
          "internalType": "string",
          "name": "age_prod",
          "type": "string"
        },
        {
          "internalType": "string",
          "name": "staging",
          "type": "string"
        },
        {
          "internalType": "string",
          "name": "motor",
          "type": "string"
        },
        {
          "internalType": "string",
          "name": "power",
          "type": "string"
        },
        {
          "internalType": "string",
          "name": "optionals",
          "type": "string"
        },
        {
          "internalType": "string",
          "name": "url_info",
          "type": "string"
        },
        {
          "internalType": "uint256",
          "name": "price",
          "type": "uint256"
        }
      ],
      "name": "addCar",
      "outputs": [
        {
          "internalType": "uint256",
          "name": "",
          "type": "uint256"
        }
      ],
      "stateMutability": "nonpayable",
      "type": "function"
    },
    {
      "inputs": [
        {
          "internalType": "uint256",
          "name": "idCar",
          "type": "uint256"
        }
      ],
      "name": "buyCar",
      "outputs": [
        {
          "internalType": "uint256",
          "name": "",
          "type": "uint256"
        }
      ],
      "stateMutability": "payable",
      "type": "function",
      "payable": true
    },
    {
      "inputs": [],
      "name": "withdrow",
      "outputs": [],
      "stateMutability": "payable",
      "type": "function",
      "payable": true
    }
  ],
  "bytecode": "0x60806040523480156200001157600080fd5b50604051620040c5380380620040c5833981810160405281019062000037919062000741565b6001808190555033600360006101000a81548173ffffffffffffffffffffffffffffffffffffffff021916908373ffffffffffffffffffffffffffffffffffffffff160217905550620000b66000801b600360009054906101000a900473ffffffffffffffffffffffffffffffffffffffff16620001a660201b60201c565b6200010a7fcf75f067314df4d0527f2a9e12148d8bd7c8a3f7235b2171d24fa195d2c3ecb9600360009054906101000a900473ffffffffffffffffffffffffffffffffffffffff16620001bc60201b60201c565b6200015e7f2ec661f4dc1364cd2d7198905b94b6807bc2be6c423cf69e4b7c802f4eb1cf8a600360009054906101000a900473ffffffffffffffffffffffffffffffffffffffff16620001bc60201b60201c565b80600460006101000a81548173ffffffffffffffffffffffffffffffffffffffff021916908373ffffffffffffffffffffffffffffffffffffffff1602179055505062000b12565b620001b88282620001f560201b60201c565b5050565b620001cd82620002e660201b60201c565b620001de816200030560201b60201c565b620001f08383620001f560201b60201c565b505050565b6200020782826200032960201b60201c565b620002e257600160008084815260200190815260200160002060000160008373ffffffffffffffffffffffffffffffffffffffff1673ffffffffffffffffffffffffffffffffffffffff16815260200190815260200160002060006101000a81548160ff021916908315150217905550620002876200039360201b60201c565b73ffffffffffffffffffffffffffffffffffffffff168173ffffffffffffffffffffffffffffffffffffffff16837f2f8788117e7eff1d82e926ec794901d17c78024a50270940304540a733656f0d60405160405180910390a45b5050565b6000806000838152602001908152602001600020600101549050919050565b62000326816200031a6200039360201b60201c565b6200039b60201b60201c565b50565b600080600084815260200190815260200160002060000160008373ffffffffffffffffffffffffffffffffffffffff1673ffffffffffffffffffffffffffffffffffffffff16815260200190815260200160002060009054906101000a900460ff16905092915050565b600033905090565b620003ad82826200032960201b60201c565b6200044357620003c8816200044760201b620014e31760201c565b620003e38360001c60206200047c60201b620015101760201c565b604051602001620003f69291906200088c565b6040516020818303038152906040526040517f08c379a00000000000000000000000000000000000000000000000000000000081526004016200043a919062000931565b60405180910390fd5b5050565b6060620004758273ffffffffffffffffffffffffffffffffffffffff16601460ff166200047c60201b60201c565b9050919050565b6060600060028360026200049191906200098e565b6200049d9190620009d9565b67ffffffffffffffff811115620004b957620004b862000a14565b5b6040519080825280601f01601f191660200182016040528015620004ec5781602001600182028036833780820191505090505b5090507f30000000000000000000000000000000000000000000000000000000000000008160008151811062000527576200052662000a43565b5b60200101907effffffffffffffffffffffffffffffffffffffffffffffffffffffffffffff1916908160001a9053507f7800000000000000000000000000000000000000000000000000000000000000816001815181106200058e576200058d62000a43565b5b60200101907effffffffffffffffffffffffffffffffffffffffffffffffffffffffffffff1916908160001a90535060006001846002620005d091906200098e565b620005dc9190620009d9565b90505b600181111562000686577f3031323334353637383961626364656600000000000000000000000000000000600f86166010811062000622576200062162000a43565b5b1a60f81b8282815181106200063c576200063b62000a43565b5b60200101907effffffffffffffffffffffffffffffffffffffffffffffffffffffffffffff1916908160001a905350600485901c9450806200067e9062000a72565b9050620005df565b5060008414620006cd576040517f08c379a0000000000000000000000000000000000000000000000000000000008152600401620006c49062000af0565b60405180910390fd5b8091505092915050565b600080fd5b600073ffffffffffffffffffffffffffffffffffffffff82169050919050565b60006200070982620006dc565b9050919050565b6200071b81620006fc565b81146200072757600080fd5b50565b6000815190506200073b8162000710565b92915050565b6000602082840312156200075a5762000759620006d7565b5b60006200076a848285016200072a565b91505092915050565b600081905092915050565b7f416363657373436f6e74726f6c3a206163636f756e7420000000000000000000600082015250565b6000620007b660178362000773565b9150620007c3826200077e565b601782019050919050565b600081519050919050565b60005b83811015620007f9578082015181840152602081019050620007dc565b60008484015250505050565b60006200081282620007ce565b6200081e818562000773565b935062000830818560208601620007d9565b80840191505092915050565b7f206973206d697373696e6720726f6c6520000000000000000000000000000000600082015250565b60006200087460118362000773565b915062000881826200083c565b601182019050919050565b60006200089982620007a7565b9150620008a7828562000805565b9150620008b48262000865565b9150620008c2828462000805565b91508190509392505050565b600082825260208201905092915050565b6000601f19601f8301169050919050565b6000620008fd82620007ce565b620009098185620008ce565b93506200091b818560208601620007d9565b6200092681620008df565b840191505092915050565b600060208201905081810360008301526200094d8184620008f0565b905092915050565b6000819050919050565b7f4e487b7100000000000000000000000000000000000000000000000000000000600052601160045260246000fd5b60006200099b8262000955565b9150620009a88362000955565b9250828202620009b88162000955565b91508282048414831517620009d257620009d16200095f565b5b5092915050565b6000620009e68262000955565b9150620009f38362000955565b925082820190508082111562000a0e5762000a0d6200095f565b5b92915050565b7f4e487b7100000000000000000000000000000000000000000000000000000000600052604160045260246000fd5b7f4e487b7100000000000000000000000000000000000000000000000000000000600052603260045260246000fd5b600062000a7f8262000955565b91506000820362000a955762000a946200095f565b5b600182039050919050565b7f537472696e67733a20686578206c656e67746820696e73756666696369656e74600082015250565b600062000ad8602083620008ce565b915062000ae58262000aa0565b602082019050919050565b6000602082019050818103600083015262000b0b8162000ac9565b9050919050565b6135a38062000b226000396000f3fe6080604052600436106100ec5760003560e01c80636c2310601161008a578063d0adcdf611610059578063d0adcdf614610366578063d547741f1461038f578063eb5394ef146103b8578063ee4db4e5146103f55761012b565b80636c231060146102a357806391d14854146102d3578063924f730714610310578063a217fddf1461033b5761012b565b80632f2ff15d116100c65780632f2ff15d1461021c57806334d6ff4c1461024557806336568abe146102705780633b874521146102995761012b565b806301ffc9a7146101655780631b043d5d146101a2578063248a9ca3146101df5761012b565b3661012b577fcf34ef537ac33ee1ac626ca1587a0a7e8e51561e5514f8cb36afa1c5102b3bab60405161011e90611de3565b60405180910390a1600080fd5b7fcf34ef537ac33ee1ac626ca1587a0a7e8e51561e5514f8cb36afa1c5102b3bab60405161015890611de3565b60405180910390a1600080fd5b34801561017157600080fd5b5061018c60048036038101906101879190611e6f565b610420565b6040516101999190611eb7565b60405180910390f35b3480156101ae57600080fd5b506101c960048036038101906101c4919061204e565b61049a565b6040516101d69190612238565b60405180910390f35b3480156101eb57600080fd5b5061020660048036038101906102019190612289565b610704565b60405161021391906122c5565b60405180910390f35b34801561022857600080fd5b50610243600480360381019061023e919061233e565b610723565b005b34801561025157600080fd5b5061025a610744565b60405161026791906122c5565b60405180910390f35b34801561027c57600080fd5b506102976004803603810190610292919061233e565b610768565b005b6102a16107eb565b005b6102bd60048036038101906102b8919061237e565b610914565b6040516102ca9190612238565b60405180910390f35b3480156102df57600080fd5b506102fa60048036038101906102f5919061233e565b610c82565b6040516103079190611eb7565b60405180910390f35b34801561031c57600080fd5b50610325610cec565b604051610332919061265b565b60405180910390f35b34801561034757600080fd5b5061035061138c565b60405161035d91906122c5565b60405180910390f35b34801561037257600080fd5b5061038d6004803603810190610388919061267d565b611393565b005b34801561039b57600080fd5b506103b660048036038101906103b1919061233e565b6113ce565b005b3480156103c457600080fd5b506103df60048036038101906103da91906126e6565b6113ef565b6040516103ec9190611eb7565b60405180910390f35b34801561040157600080fd5b5061040a6114bf565b60405161041791906122c5565b60405180910390f35b60007f7965db0b000000000000000000000000000000000000000000000000000000007bffffffffffffffffffffffffffffffffffffffffffffffffffffffff1916827bffffffffffffffffffffffffffffffffffffffffffffffffffffffff1916148061049357506104928261174c565b5b9050919050565b60007fcf75f067314df4d0527f2a9e12148d8bd7c8a3f7235b2171d24fa195d2c3ecb96104c6816117b6565b60006104d260026117ca565b90508b6005600083815260200190815260200160002060000190816104f79190612961565b508a60056000838152602001908152602001600020600101908161051b9190612961565b508960056000838152602001908152602001600020600201908161053f9190612961565b508c6005600083815260200190815260200160002060030190816105639190612961565b50886005600083815260200190815260200160002060040190816105879190612961565b50876005600083815260200190815260200160002060050190816105ab9190612961565b50866005600083815260200190815260200160002060060190816105cf9190612961565b50856005600083815260200190815260200160002060070190816105f39190612961565b50846005600083815260200190815260200160002060080190816106179190612961565b5060006005600083815260200190815260200160002060090160006101000a81548160ff02191690831515021790555060016005600083815260200190815260200160002060090160016101000a81548160ff0219169083151502179055508360056000838152602001908152602001600020600a01819055507fd21a9e5fb36820d7c31409698dc15bec0396d860663687a94c902e48674c2fb16106bb826117d8565b600560008481526020019081526020016000206003016040516106df929190612b3c565b60405180910390a16106f160026118a6565b80925050509a9950505050505050505050565b6000806000838152602001908152602001600020600101549050919050565b61072c82610704565b610735816117b6565b61073f83836118bc565b505050565b7fcf75f067314df4d0527f2a9e12148d8bd7c8a3f7235b2171d24fa195d2c3ecb981565b61077061199c565b73ffffffffffffffffffffffffffffffffffffffff168173ffffffffffffffffffffffffffffffffffffffff16146107dd576040517f08c379a00000000000000000000000000000000000000000000000000000000081526004016107d490612bf8565b60405180910390fd5b6107e782826119a4565b5050565b6000801b6107f8816117b6565b610800611a85565b600047905060003373ffffffffffffffffffffffffffffffffffffffff168260405161082b90612c49565b60006040518083038185875af1925050503d8060008114610868576040519150601f19603f3d011682016040523d82523d6000602084013e61086d565b606091505b50509050806108b1576040517f08c379a00000000000000000000000000000000000000000000000000000000081526004016108a890612caa565b60405180910390fd5b7fcf34ef537ac33ee1ac626ca1587a0a7e8e51561e5514f8cb36afa1c5102b3bab826040516020016108e39190612d42565b6040516020818303038152906040526040516108ff9190612d68565b60405180910390a15050610911611ad4565b50565b6000600115156005600084815260200190815260200160002060090160019054906101000a900460ff16151514610980576040517f08c379a000000000000000000000000000000000000000000000000000000000815260040161097790612dd6565b60405180910390fd5b600015156005600084815260200190815260200160002060090160009054906101000a900460ff161515146109ea576040517f08c379a00000000000000000000000000000000000000000000000000000000081526004016109e190612e42565b60405180910390fd5b60056000838152602001908152602001600020600a0154610a0a34611add565b14610a4a576040517f08c379a0000000000000000000000000000000000000000000000000000000008152600401610a4190612ed4565b60405180910390fd5b600460009054906101000a900473ffffffffffffffffffffffffffffffffffffffff1673ffffffffffffffffffffffffffffffffffffffff16634dc54a033360056000868152602001908152602001600020600001600560008781526020019081526020016000206002016005600088815260200190815260200160002060030160056000898152602001908152602001600020600401600560008a8152602001908152602001600020600501600560008b8152602001908152602001600020600601600560008c8152602001908152602001600020600801600560008d8152602001908152602001600020600701600560008e81526020019081526020016000206001016040518b63ffffffff1660e01b8152600401610b749a99989796959493929190612f03565b6020604051808303816000875af1925050508015610bb057506040513d601f19601f82011682018060405250810190610bad9190612ff3565b60015b610bee577fcf34ef537ac33ee1ac626ca1587a0a7e8e51561e5514f8cb36afa1c5102b3bab604051610be190613092565b60405180910390a1600080fd5b60016005600085815260200190815260200160002060090160006101000a81548160ff0219169083151502179055508060056000858152602001908152602001600020600b01819055507f67d42ba165ed703cfec72951c30e02a0215b40ea73c5690c63dde4941db27748610c62826117d8565b33604051610c719291906130fe565b60405180910390a180915050919050565b600080600084815260200190815260200160002060000160008373ffffffffffffffffffffffffffffffffffffffff1673ffffffffffffffffffffffffffffffffffffffff16815260200190815260200160002060009054906101000a900460ff16905092915050565b6060600080610cfb60026117ca565b67ffffffffffffffff811115610d1457610d13611eed565b5b604051908082528060200260200182016040528015610d4d57816020015b610d3a611cf4565b815260200190600190039081610d325790505b50905060005b610d5d60026117ca565b81101561138357600115156005600083815260200190815260200160002060090160019054906101000a900460ff161515036113705760056000828152602001908152602001600020604051806101a0016040529081600082018054610dc290612784565b80601f0160208091040260200160405190810160405280929190818152602001828054610dee90612784565b8015610e3b5780601f10610e1057610100808354040283529160200191610e3b565b820191906000526020600020905b815481529060010190602001808311610e1e57829003601f168201915b50505050508152602001600182018054610e5490612784565b80601f0160208091040260200160405190810160405280929190818152602001828054610e8090612784565b8015610ecd5780601f10610ea257610100808354040283529160200191610ecd565b820191906000526020600020905b815481529060010190602001808311610eb057829003601f168201915b50505050508152602001600282018054610ee690612784565b80601f0160208091040260200160405190810160405280929190818152602001828054610f1290612784565b8015610f5f5780601f10610f3457610100808354040283529160200191610f5f565b820191906000526020600020905b815481529060010190602001808311610f4257829003601f168201915b50505050508152602001600382018054610f7890612784565b80601f0160208091040260200160405190810160405280929190818152602001828054610fa490612784565b8015610ff15780601f10610fc657610100808354040283529160200191610ff1565b820191906000526020600020905b815481529060010190602001808311610fd457829003601f168201915b5050505050815260200160048201805461100a90612784565b80601f016020809104026020016040519081016040528092919081815260200182805461103690612784565b80156110835780601f1061105857610100808354040283529160200191611083565b820191906000526020600020905b81548152906001019060200180831161106657829003601f168201915b5050505050815260200160058201805461109c90612784565b80601f01602080910402602001604051908101604052809291908181526020018280546110c890612784565b80156111155780601f106110ea57610100808354040283529160200191611115565b820191906000526020600020905b8154815290600101906020018083116110f857829003601f168201915b5050505050815260200160068201805461112e90612784565b80601f016020809104026020016040519081016040528092919081815260200182805461115a90612784565b80156111a75780601f1061117c576101008083540402835291602001916111a7565b820191906000526020600020905b81548152906001019060200180831161118a57829003601f168201915b505050505081526020016007820180546111c090612784565b80601f01602080910402602001604051908101604052809291908181526020018280546111ec90612784565b80156112395780601f1061120e57610100808354040283529160200191611239565b820191906000526020600020905b81548152906001019060200180831161121c57829003601f168201915b5050505050815260200160088201805461125290612784565b80601f016020809104026020016040519081016040528092919081815260200182805461127e90612784565b80156112cb5780601f106112a0576101008083540402835291602001916112cb565b820191906000526020600020905b8154815290600101906020018083116112ae57829003601f168201915b505050505081526020016009820160009054906101000a900460ff161515151581526020016009820160019054906101000a900460ff16151515158152602001600a8201548152602001600b8201548152505082848151811061133157611330613141565b5b6020026020010181905250808284815181106113505761134f613141565b5b6020026020010151610180018181525050828061136c9061319f565b9350505b808061137b9061319f565b915050610d53565b50809250505090565b6000801b81565b6000801b6113a0816117b6565b6113ca7f2ec661f4dc1364cd2d7198905b94b6807bc2be6c423cf69e4b7c802f4eb1cf8a836118bc565b5050565b6113d782610704565b6113e0816117b6565b6113ea83836119a4565b505050565b60007f2ec661f4dc1364cd2d7198905b94b6807bc2be6c423cf69e4b7c802f4eb1cf8a61141b816117b6565b600460009054906101000a900473ffffffffffffffffffffffffffffffffffffffff1673ffffffffffffffffffffffffffffffffffffffff16634a5b68bc8686866040518463ffffffff1660e01b815260040161147a93929190613242565b600060405180830381600087803b15801561149457600080fd5b505af19250505080156114a5575060015b6114b257600091506114b7565b600191505b509392505050565b7f2ec661f4dc1364cd2d7198905b94b6807bc2be6c423cf69e4b7c802f4eb1cf8a81565b60606115098273ffffffffffffffffffffffffffffffffffffffff16601460ff16611510565b9050919050565b6060600060028360026115239190613293565b61152d91906132d5565b67ffffffffffffffff81111561154657611545611eed565b5b6040519080825280601f01601f1916602001820160405280156115785781602001600182028036833780820191505090505b5090507f3000000000000000000000000000000000000000000000000000000000000000816000815181106115b0576115af613141565b5b60200101907effffffffffffffffffffffffffffffffffffffffffffffffffffffffffffff1916908160001a9053507f78000000000000000000000000000000000000000000000000000000000000008160018151811061161457611613613141565b5b60200101907effffffffffffffffffffffffffffffffffffffffffffffffffffffffffffff1916908160001a905350600060018460026116549190613293565b61165e91906132d5565b90505b60018111156116fe577f3031323334353637383961626364656600000000000000000000000000000000600f8616601081106116a05761169f613141565b5b1a60f81b8282815181106116b7576116b6613141565b5b60200101907effffffffffffffffffffffffffffffffffffffffffffffffffffffffffffff1916908160001a905350600485901c9450806116f790613309565b9050611661565b5060008414611742576040517f08c379a00000000000000000000000000000000000000000000000000000000081526004016117399061337e565b60405180910390fd5b8091505092915050565b60007f01ffc9a7000000000000000000000000000000000000000000000000000000007bffffffffffffffffffffffffffffffffffffffffffffffffffffffff1916827bffffffffffffffffffffffffffffffffffffffffffffffffffffffff1916149050919050565b6117c7816117c261199c565b611b06565b50565b600081600001549050919050565b6060600060016117e784611b8b565b01905060008167ffffffffffffffff81111561180657611805611eed565b5b6040519080825280601f01601f1916602001820160405280156118385781602001600182028036833780820191505090505b509050600082602001820190505b60011561189b578080600190039150507f3031323334353637383961626364656600000000000000000000000000000000600a86061a8153600a858161188f5761188e61339e565b5b04945060008503611846575b819350505050919050565b6001816000016000828254019250508190555050565b6118c68282610c82565b61199857600160008084815260200190815260200160002060000160008373ffffffffffffffffffffffffffffffffffffffff1673ffffffffffffffffffffffffffffffffffffffff16815260200190815260200160002060006101000a81548160ff02191690831515021790555061193d61199c565b73ffffffffffffffffffffffffffffffffffffffff168173ffffffffffffffffffffffffffffffffffffffff16837f2f8788117e7eff1d82e926ec794901d17c78024a50270940304540a733656f0d60405160405180910390a45b5050565b600033905090565b6119ae8282610c82565b15611a8157600080600084815260200190815260200160002060000160008373ffffffffffffffffffffffffffffffffffffffff1673ffffffffffffffffffffffffffffffffffffffff16815260200190815260200160002060006101000a81548160ff021916908315150217905550611a2661199c565b73ffffffffffffffffffffffffffffffffffffffff168173ffffffffffffffffffffffffffffffffffffffff16837ff6391f5c32d9c69d2a47ea670b442974b53935d1edc7fd64eb21e047a839171b60405160405180910390a45b5050565b600260015403611aca576040517f08c379a0000000000000000000000000000000000000000000000000000000008152600401611ac190613419565b60405180910390fd5b6002600181905550565b60018081905550565b600080611afb670de0b6b3a764000084611cde90919063ffffffff16565b905080915050919050565b611b108282610c82565b611b8757611b1d816114e3565b611b2b8360001c6020611510565b604051602001611b3c929190613502565b6040516020818303038152906040526040517f08c379a0000000000000000000000000000000000000000000000000000000008152600401611b7e9190612d68565b60405180910390fd5b5050565b600080600090507a184f03e93ff9f4daa797ed6e38ed64bf6a1f0100000000000000008310611be9577a184f03e93ff9f4daa797ed6e38ed64bf6a1f0100000000000000008381611bdf57611bde61339e565b5b0492506040810190505b6d04ee2d6d415b85acef81000000008310611c26576d04ee2d6d415b85acef81000000008381611c1c57611c1b61339e565b5b0492506020810190505b662386f26fc100008310611c5557662386f26fc100008381611c4b57611c4a61339e565b5b0492506010810190505b6305f5e1008310611c7e576305f5e1008381611c7457611c7361339e565b5b0492506008810190505b6127108310611ca3576127108381611c9957611c9861339e565b5b0492506004810190505b60648310611cc65760648381611cbc57611cbb61339e565b5b0492506002810190505b600a8310611cd5576001810190505b80915050919050565b60008183611cec919061353c565b905092915050565b604051806101a0016040528060608152602001606081526020016060815260200160608152602001606081526020016060815260200160608152602001606081526020016060815260200160001515815260200160001515815260200160008152602001600081525090565b600082825260208201905092915050565b7f526576657274696e67202e2e2e74727920746f2062757920612063617220667260008201527f6f6d206f6e65206f66206f75722073746f726500000000000000000000000000602082015250565b6000611dcd603383611d60565b9150611dd882611d71565b604082019050919050565b60006020820190508181036000830152611dfc81611dc0565b9050919050565b6000604051905090565b600080fd5b600080fd5b60007fffffffff0000000000000000000000000000000000000000000000000000000082169050919050565b611e4c81611e17565b8114611e5757600080fd5b50565b600081359050611e6981611e43565b92915050565b600060208284031215611e8557611e84611e0d565b5b6000611e9384828501611e5a565b91505092915050565b60008115159050919050565b611eb181611e9c565b82525050565b6000602082019050611ecc6000830184611ea8565b92915050565b600080fd5b600080fd5b6000601f19601f8301169050919050565b7f4e487b7100000000000000000000000000000000000000000000000000000000600052604160045260246000fd5b611f2582611edc565b810181811067ffffffffffffffff82111715611f4457611f43611eed565b5b80604052505050565b6000611f57611e03565b9050611f638282611f1c565b919050565b600067ffffffffffffffff821115611f8357611f82611eed565b5b611f8c82611edc565b9050602081019050919050565b82818337600083830152505050565b6000611fbb611fb684611f68565b611f4d565b905082815260208101848484011115611fd757611fd6611ed7565b5b611fe2848285611f99565b509392505050565b600082601f830112611fff57611ffe611ed2565b5b813561200f848260208601611fa8565b91505092915050565b6000819050919050565b61202b81612018565b811461203657600080fd5b50565b60008135905061204881612022565b92915050565b6000806000806000806000806000806101408b8d03121561207257612071611e0d565b5b60008b013567ffffffffffffffff8111156120905761208f611e12565b5b61209c8d828e01611fea565b9a505060208b013567ffffffffffffffff8111156120bd576120bc611e12565b5b6120c98d828e01611fea565b99505060408b013567ffffffffffffffff8111156120ea576120e9611e12565b5b6120f68d828e01611fea565b98505060608b013567ffffffffffffffff81111561211757612116611e12565b5b6121238d828e01611fea565b97505060808b013567ffffffffffffffff81111561214457612143611e12565b5b6121508d828e01611fea565b96505060a08b013567ffffffffffffffff81111561217157612170611e12565b5b61217d8d828e01611fea565b95505060c08b013567ffffffffffffffff81111561219e5761219d611e12565b5b6121aa8d828e01611fea565b94505060e08b013567ffffffffffffffff8111156121cb576121ca611e12565b5b6121d78d828e01611fea565b9350506101008b013567ffffffffffffffff8111156121f9576121f8611e12565b5b6122058d828e01611fea565b9250506101206122178d828e01612039565b9150509295989b9194979a5092959850565b61223281612018565b82525050565b600060208201905061224d6000830184612229565b92915050565b6000819050919050565b61226681612253565b811461227157600080fd5b50565b6000813590506122838161225d565b92915050565b60006020828403121561229f5761229e611e0d565b5b60006122ad84828501612274565b91505092915050565b6122bf81612253565b82525050565b60006020820190506122da60008301846122b6565b92915050565b600073ffffffffffffffffffffffffffffffffffffffff82169050919050565b600061230b826122e0565b9050919050565b61231b81612300565b811461232657600080fd5b50565b60008135905061233881612312565b92915050565b6000806040838503121561235557612354611e0d565b5b600061236385828601612274565b925050602061237485828601612329565b9150509250929050565b60006020828403121561239457612393611e0d565b5b60006123a284828501612039565b91505092915050565b600081519050919050565b600082825260208201905092915050565b6000819050602082019050919050565b600081519050919050565b600082825260208201905092915050565b60005b838110156124115780820151818401526020810190506123f6565b60008484015250505050565b6000612428826123d7565b61243281856123e2565b93506124428185602086016123f3565b61244b81611edc565b840191505092915050565b61245f81611e9c565b82525050565b61246e81612018565b82525050565b60006101a0830160008301518482036000860152612492828261241d565b915050602083015184820360208601526124ac828261241d565b915050604083015184820360408601526124c6828261241d565b915050606083015184820360608601526124e0828261241d565b915050608083015184820360808601526124fa828261241d565b91505060a083015184820360a0860152612514828261241d565b91505060c083015184820360c086015261252e828261241d565b91505060e083015184820360e0860152612548828261241d565b915050610100830151848203610100860152612564828261241d565b91505061012083015161257b610120860182612456565b50610140830151612590610140860182612456565b506101608301516125a5610160860182612465565b506101808301516125ba610180860182612465565b508091505092915050565b60006125d18383612474565b905092915050565b6000602082019050919050565b60006125f1826123ab565b6125fb81856123b6565b93508360208202850161260d856123c7565b8060005b85811015612649578484038952815161262a85826125c5565b9450612635836125d9565b925060208a01995050600181019050612611565b50829750879550505050505092915050565b6000602082019050818103600083015261267581846125e6565b905092915050565b60006020828403121561269357612692611e0d565b5b60006126a184828501612329565b91505092915050565b600063ffffffff82169050919050565b6126c3816126aa565b81146126ce57600080fd5b50565b6000813590506126e0816126ba565b92915050565b6000806000606084860312156126ff576126fe611e0d565b5b600061270d86828701612039565b935050602061271e868287016126d1565b925050604084013567ffffffffffffffff81111561273f5761273e611e12565b5b61274b86828701611fea565b9150509250925092565b7f4e487b7100000000000000000000000000000000000000000000000000000000600052602260045260246000fd5b6000600282049050600182168061279c57607f821691505b6020821081036127af576127ae612755565b5b50919050565b60008190508160005260206000209050919050565b60006020601f8301049050919050565b600082821b905092915050565b6000600883026128177fffffffffffffffffffffffffffffffffffffffffffffffffffffffffffffffff826127da565b61282186836127da565b95508019841693508086168417925050509392505050565b6000819050919050565b600061285e61285961285484612018565b612839565b612018565b9050919050565b6000819050919050565b61287883612843565b61288c61288482612865565b8484546127e7565b825550505050565b600090565b6128a1612894565b6128ac81848461286f565b505050565b5b818110156128d0576128c5600082612899565b6001810190506128b2565b5050565b601f821115612915576128e6816127b5565b6128ef846127ca565b810160208510156128fe578190505b61291261290a856127ca565b8301826128b1565b50505b505050565b600082821c905092915050565b60006129386000198460080261291a565b1980831691505092915050565b60006129518383612927565b9150826002028217905092915050565b61296a826123d7565b67ffffffffffffffff81111561298357612982611eed565b5b61298d8254612784565b6129988282856128d4565b600060209050601f8311600181146129cb57600084156129b9578287015190505b6129c38582612945565b865550612a2b565b601f1984166129d9866127b5565b60005b82811015612a01578489015182556001820191506020850194506020810190506129dc565b86831015612a1e5784890151612a1a601f891682612927565b8355505b6001600288020188555050505b505050505050565b7f4e657720636172206a6f696e656420746f20746865206c697374000000000000600082015250565b6000612a69601a83611d60565b9150612a7482612a33565b602082019050919050565b6000612a8a826123d7565b612a948185611d60565b9350612aa48185602086016123f3565b612aad81611edc565b840191505092915050565b60008154612ac581612784565b612acf8186611d60565b94506001821660008114612aea5760018114612b0057612b33565b60ff198316865281151560200286019350612b33565b612b09856127b5565b60005b83811015612b2b57815481890152600182019150602081019050612b0c565b808801955050505b50505092915050565b60006060820190508181036000830152612b5581612a5c565b90508181036020830152612b698185612a7f565b90508181036040830152612b7d8184612ab8565b90509392505050565b7f416363657373436f6e74726f6c3a2063616e206f6e6c792072656e6f756e636560008201527f20726f6c657320666f722073656c660000000000000000000000000000000000602082015250565b6000612be2602f83611d60565b9150612bed82612b86565b604082019050919050565b60006020820190508181036000830152612c1181612bd5565b9050919050565b600081905092915050565b50565b6000612c33600083612c18565b9150612c3e82612c23565b600082019050919050565b6000612c5482612c26565b9150819050919050565b7f4661696c6564207769746864726f772045746865720000000000000000000000600082015250565b6000612c94601583611d60565b9150612c9f82612c5e565b602082019050919050565b60006020820190508181036000830152612cc381612c87565b9050919050565b600081905092915050565b7f5769746864726f772068617070656e203a200000000000000000000000000000600082015250565b6000612d0b601283612cca565b9150612d1682612cd5565b601282019050919050565b6000819050919050565b612d3c612d3782612018565b612d21565b82525050565b6000612d4d82612cfe565b9150612d598284612d2b565b60208201915081905092915050565b60006020820190508181036000830152612d828184612a7f565b905092915050565b7f5468652063617220646f65736e27742065786973747300000000000000000000600082015250565b6000612dc0601683611d60565b9150612dcb82612d8a565b602082019050919050565b60006020820190508181036000830152612def81612db3565b9050919050565b7f416c726561647920736f6c640000000000000000000000000000000000000000600082015250565b6000612e2c600c83611d60565b9150612e3782612df6565b602082019050919050565b60006020820190508181036000830152612e5b81612e1f565b9050919050565b7f496e73756666696369656e74206f72206e6f7420636f72726563742066756e6460008201527f7300000000000000000000000000000000000000000000000000000000000000602082015250565b6000612ebe602183611d60565b9150612ec982612e62565b604082019050919050565b60006020820190508181036000830152612eed81612eb1565b9050919050565b612efd81612300565b82525050565b600061014082019050612f19600083018d612ef4565b8181036020830152612f2b818c612ab8565b90508181036040830152612f3f818b612ab8565b90508181036060830152612f53818a612ab8565b90508181036080830152612f678189612ab8565b905081810360a0830152612f7b8188612ab8565b905081810360c0830152612f8f8187612ab8565b905081810360e0830152612fa38186612ab8565b9050818103610100830152612fb88185612ab8565b9050818103610120830152612fcd8184612ab8565b90509b9a5050505050505050505050565b600081519050612fed81612022565b92915050565b60006020828403121561300957613008611e0d565b5b600061301784828501612fde565b91505092915050565b7f416e206572726f72206f63637572656420647572696e6720636172206372656160008201527f74696f6e00000000000000000000000000000000000000000000000000000000602082015250565b600061307c602483611d60565b915061308782613020565b604082019050919050565b600060208201905081810360008301526130ab8161306f565b9050919050565b7f4361722063726561746564000000000000000000000000000000000000000000600082015250565b60006130e8600b83611d60565b91506130f3826130b2565b602082019050919050565b60006060820190508181036000830152613117816130db565b9050818103602083015261312b8185612a7f565b905061313a6040830184612ef4565b9392505050565b7f4e487b7100000000000000000000000000000000000000000000000000000000600052603260045260246000fd5b7f4e487b7100000000000000000000000000000000000000000000000000000000600052601160045260246000fd5b60006131aa82612018565b91507fffffffffffffffffffffffffffffffffffffffffffffffffffffffffffffffff82036131dc576131db613170565b5b600182019050919050565b6131f0816126aa565b82525050565b7f43727970746f4361720000000000000000000000000000000000000000000000600082015250565b600061322c600983611d60565b9150613237826131f6565b602082019050919050565b60006080820190506132576000830186612229565b61326460208301856131e7565b81810360408301526132768184612a7f565b905081810360608301526132898161321f565b9050949350505050565b600061329e82612018565b91506132a983612018565b92508282026132b781612018565b915082820484148315176132ce576132cd613170565b5b5092915050565b60006132e082612018565b91506132eb83612018565b925082820190508082111561330357613302613170565b5b92915050565b600061331482612018565b91506000820361332757613326613170565b5b600182039050919050565b7f537472696e67733a20686578206c656e67746820696e73756666696369656e74600082015250565b6000613368602083611d60565b915061337382613332565b602082019050919050565b600060208201905081810360008301526133978161335b565b9050919050565b7f4e487b7100000000000000000000000000000000000000000000000000000000600052601260045260246000fd5b7f5265656e7472616e637947756172643a207265656e7472616e742063616c6c00600082015250565b6000613403601f83611d60565b915061340e826133cd565b602082019050919050565b60006020820190508181036000830152613432816133f6565b9050919050565b7f416363657373436f6e74726f6c3a206163636f756e7420000000000000000000600082015250565b600061346f601783612cca565b915061347a82613439565b601782019050919050565b6000613490826123d7565b61349a8185612cca565b93506134aa8185602086016123f3565b80840191505092915050565b7f206973206d697373696e6720726f6c6520000000000000000000000000000000600082015250565b60006134ec601183612cca565b91506134f7826134b6565b601182019050919050565b600061350d82613462565b91506135198285613485565b9150613524826134df565b91506135308284613485565b91508190509392505050565b600061354782612018565b915061355283612018565b9250826135625761356161339e565b5b82820490509291505056fea2646970667358221220102be88e7941501c49c074a17152b793768f9d6f1768f42b5a47745859dd3e2a64736f6c63430008110033",
  "immutableReferences": {},
  "source": "// SPDX-License-Identifier: MIT\npragma solidity ^0.8.9;\n\nimport \"@openzeppelin/contracts/access/AccessControl.sol\";\nimport \"@openzeppelin/contracts/utils/Counters.sol\";\nimport \"@openzeppelin/contracts/security/ReentrancyGuard.sol\";\nimport \"@openzeppelin/contracts/utils/Strings.sol\";\nimport \"@openzeppelin/contracts/utils/math/SafeMath.sol\";\n\n\ninterface ICarLedger {\n\n\tfunction createCar(address to ,string memory _name,string memory _age_production, string memory _model,string memory _staging, string memory _motor, string memory _power, string memory _url_info, string memory _optionals , string memory picture  )  external returns (uint256); \n\n\tfunction addDealer(address dealer) external;\n\n\tfunction addService( uint256 tokenId, uint32 _km, string memory _operation, string memory _office) external;\n\n\tfunction addStation(address serv) external;  \n\n}\n\ncontract CryptoCar is AccessControl, ReentrancyGuard {\n\t using Counters for Counters.Counter; \n\t using SafeMath for uint256;\n\n    Counters.Counter private _tokenIdCounter;\n\n\tevent Log(string message);\n\tevent CarCreation( string message, string tokenId, address to); \n\tevent CarAdd( string message, string id, string model); \n\n\tbytes32 public constant DEALER_ROLE = keccak256(\"DEALER_ROLE\");\n    bytes32 public constant MEC_ROLE = keccak256(\"MEC_ROLE\");\n\n\taddress payable private _owner;  \n\tICarLedger private carLedger; \n\n\tstruct Info { \n\n\t\tstring name;\n\t\tstring picture; \n        string age_production; \n\t\tstring model;\n\t\tstring staging; \n\t\tstring motor;\n\t\tstring power;  \n        string optionals; \n        string url_info; \n        bool isSold;\n\t\tbool isSet;\n\t\tuint256 price; //wei\n\t\tuint256 tokenId;    \n    }\n\n\tmapping(uint256 => Info) private list;\n\n\tconstructor( address ledger ){\n\n\t\t_owner =payable (msg.sender);\n\t\t_setupRole(DEFAULT_ADMIN_ROLE, _owner);\n\t\tgrantRole(DEALER_ROLE, _owner);\n\t\tgrantRole(MEC_ROLE, _owner);\n\t\tcarLedger = ICarLedger(ledger);\n\n\t}\n\n\tfunction addMech(address mec) public onlyRole(DEFAULT_ADMIN_ROLE) {\n        _grantRole(MEC_ROLE, mec);\n    }\n\n\tfunction insertServiceCustomer(uint256 tokenId, uint32 _km, string memory _operation) public onlyRole(MEC_ROLE) returns (bool)  {\n\n\t\ttry\tcarLedger.addService(tokenId, _km, _operation, \"CryptoCar\")\n\t\t{\n\t\t\treturn true; \n\t\t\n\t\t}catch \n\t\t{\n\t\t\treturn false;\n\t\t} \n\t}\n\n\tfunction getCarList() public view returns( Info[] memory){\n\t\t\n\t\tuint j  = 0; \n\t\tInfo[] memory cars = new Info[](_tokenIdCounter.current());\n    \tfor (uint i = 0; i < _tokenIdCounter.current(); i++) {\n        \t\n\t\t\tif(list[i].isSet == true)\n\t\t\t{\t\n\t\t\t\tcars[j] = list[i];\n\t\t\t\tcars[j].tokenId = i; \n\t\t\t\tj++; \n\t\t\t}\n    }\n\n    \treturn cars; \n\t}\n\n\tfunction addCar(string memory model, string memory name, string memory picture, string memory age_prod, string memory staging, string memory motor, string memory power, string memory optionals, string memory url_info, uint256 price) external onlyRole(DEALER_ROLE) returns (uint256) {\n\n\t\tuint256 Id = _tokenIdCounter.current(); \n\t\tlist[Id].name = name; \n\t\tlist[Id].picture = picture;\n\t\tlist[Id].age_production = age_prod; \n\t\tlist[Id].model = model;\n\t\tlist[Id].staging = staging;\n\t\tlist[Id].motor = motor;\n\t\tlist[Id].power = power;\n\t\tlist[Id].optionals = optionals;\n\t\tlist[Id].url_info = url_info;\n\t\tlist[Id].isSold = false;\n\t\tlist[Id].isSet = true;\n\t\tlist[Id].price = price; \n\t\temit CarAdd(\"New car joined to the list\", Strings.toString(Id) , list[Id].model);\n\t\t_tokenIdCounter.increment();\n\t\treturn Id; \n\t}    \n \n\n\tfunction buyCar( uint256 idCar ) public payable returns (uint256)  {\n\n\t\trequire(list[idCar].isSet == true , \"The car doesn't exists\");\n\t\trequire(list[idCar].isSold == false ,\"Already sold\");\n\t\trequire(convertWeiToEthSafe( msg.value )  == list[idCar].price , \"Insufficient or not correct funds\" ); \n\t\ttry carLedger.createCar(msg.sender,list[idCar].name,list[idCar].age_production, list[idCar].model, list[idCar].staging, list[idCar].motor,list[idCar].power, list[idCar].url_info, list[idCar].optionals, list[idCar].picture ) returns(uint256 carId)\n\t\t{\n\t\t\tlist[idCar].isSold = true;\n\t\t\tlist[idCar].tokenId = carId;\n\t\t\temit CarCreation(\"Car created\", Strings.toString(carId) , msg.sender);\n\t\t\treturn carId;\n\n\t\t}catch\n\t\t{\n\t\t\temit Log(\"An error occured during car creation\");\n\t\t\trevert();\n\t\t}\n\t}\n\n\tfunction withdrow() external payable onlyRole(DEFAULT_ADMIN_ROLE) nonReentrant()  {\n\n\t\tuint256 balance = address(this).balance;\n\t\t(bool sent,) = msg.sender.call{value: balance}(\"\");\n        require(sent, \"Failed withdrow Ether\");\n\t\temit Log( string(abi.encodePacked(\"Withdrow happen : \", balance)) );\n\n\t}\n\n\tfunction convertWeiToEthSafe(uint256 weiAmount) internal pure returns (uint256) {\n        uint256 ethAmount = weiAmount.div(10**18); // divisione per 10^18\n        return ethAmount;\n    }\n\n\treceive() external payable{\n\n\t\temit Log(\"Reverting ...try to buy a car from one of our store\");\n\t\trevert();\n\n\t}\n\tfallback() external payable{\n\n\t\temit Log(\"Reverting ...try to buy a car from one of our store\");\n\t\trevert();\n\n\t}\n\n\t\n\n\n\n\t\n\n}\n",
  "sourcePath": "D:\\ethCar\\contracts\\CryptoCar.sol",
  "compiler": {
    "name": "solc",
    "version": "0.8.17+commit.8df45f5f.Emscripten.clang"
  },
  "schemaVersion": "3.4.11",
  "updatedAt": "2023-02-20T18:06:33.814Z",
  "networkType": "ethereum",
  "devdoc": {
    "kind": "dev",
    "methods": {
      "getRoleAdmin(bytes32)": {
        "details": "Returns the admin role that controls `role`. See {grantRole} and {revokeRole}. To change a role's admin, use {_setRoleAdmin}."
      },
      "grantRole(bytes32,address)": {
        "details": "Grants `role` to `account`. If `account` had not been already granted `role`, emits a {RoleGranted} event. Requirements: - the caller must have ``role``'s admin role. May emit a {RoleGranted} event."
      },
      "hasRole(bytes32,address)": {
        "details": "Returns `true` if `account` has been granted `role`."
      },
      "renounceRole(bytes32,address)": {
        "details": "Revokes `role` from the calling account. Roles are often managed via {grantRole} and {revokeRole}: this function's purpose is to provide a mechanism for accounts to lose their privileges if they are compromised (such as when a trusted device is misplaced). If the calling account had been revoked `role`, emits a {RoleRevoked} event. Requirements: - the caller must be `account`. May emit a {RoleRevoked} event."
      },
      "revokeRole(bytes32,address)": {
        "details": "Revokes `role` from `account`. If `account` had been granted `role`, emits a {RoleRevoked} event. Requirements: - the caller must have ``role``'s admin role. May emit a {RoleRevoked} event."
      },
      "supportsInterface(bytes4)": {
        "details": "See {IERC165-supportsInterface}."
      }
    },
    "version": 1
  },
  "userdoc": {
    "kind": "user",
    "methods": {},
    "version": 1
  }
}